{
  "contractName": "FeesCollector",
  "abi": [
    {
      "anonymous": false,
      "inputs": [
        {
          "indexed": true,
          "internalType": "address",
          "name": "previousOwner",
          "type": "address"
        },
        {
          "indexed": true,
          "internalType": "address",
          "name": "newOwner",
          "type": "address"
        }
      ],
      "name": "OwnershipTransferred",
      "type": "event"
    },
    {
      "inputs": [],
      "name": "owner",
      "outputs": [
        {
          "internalType": "address",
          "name": "",
          "type": "address"
        }
      ],
      "stateMutability": "view",
      "type": "function"
    },
    {
      "inputs": [],
      "name": "renounceOwnership",
      "outputs": [],
      "stateMutability": "nonpayable",
      "type": "function"
    },
    {
      "inputs": [
        {
          "internalType": "address",
          "name": "newOwner",
          "type": "address"
        }
      ],
      "name": "transferOwnership",
      "outputs": [],
      "stateMutability": "nonpayable",
      "type": "function"
    },
    {
      "inputs": [
        {
          "internalType": "address",
          "name": "_asset",
          "type": "address"
        },
        {
          "internalType": "uint256",
          "name": "_amount",
          "type": "uint256"
        }
      ],
      "name": "withdraw",
      "outputs": [],
      "stateMutability": "nonpayable",
      "type": "function"
    }
  ],
  "bytecode": "0x608060405234801561001057600080fd5b5061002d61002261003260201b60201c565b61003a60201b60201c565b6100fe565b600033905090565b60008060009054906101000a900473ffffffffffffffffffffffffffffffffffffffff169050816000806101000a81548173ffffffffffffffffffffffffffffffffffffffff021916908373ffffffffffffffffffffffffffffffffffffffff1602179055508173ffffffffffffffffffffffffffffffffffffffff168173ffffffffffffffffffffffffffffffffffffffff167f8be0079c531659141344cd1fd0a4f28419497f9722a3daafe3b4186f6b6457e060405160405180910390a35050565b610c6f8061010d6000396000f3fe608060405234801561001057600080fd5b506004361061004c5760003560e01c8063715018a6146100515780638da5cb5b1461005b578063f2fde38b14610079578063f3fef3a314610095575b600080fd5b6100596100b1565b005b6100636100c5565b6040516100709190610695565b60405180910390f35b610093600480360381019061008e91906106e1565b6100ee565b005b6100af60048036038101906100aa9190610744565b610171565b005b6100b96101ed565b6100c3600061026b565b565b60008060009054906101000a900473ffffffffffffffffffffffffffffffffffffffff16905090565b6100f66101ed565b600073ffffffffffffffffffffffffffffffffffffffff168173ffffffffffffffffffffffffffffffffffffffff1603610165576040517f08c379a000000000000000000000000000000000000000000000000000000000815260040161015c90610807565b60405180910390fd5b61016e8161026b565b50565b6101796101ed565b600081116101bc576040517f08c379a00000000000000000000000000000000000000000000000000000000081526004016101b390610873565b60405180910390fd5b6101e93033838573ffffffffffffffffffffffffffffffffffffffff1661032f909392919063ffffffff16565b5050565b6101f56103b8565b73ffffffffffffffffffffffffffffffffffffffff166102136100c5565b73ffffffffffffffffffffffffffffffffffffffff1614610269576040517f08c379a0000000000000000000000000000000000000000000000000000000008152600401610260906108df565b60405180910390fd5b565b60008060009054906101000a900473ffffffffffffffffffffffffffffffffffffffff169050816000806101000a81548173ffffffffffffffffffffffffffffffffffffffff021916908373ffffffffffffffffffffffffffffffffffffffff1602179055508173ffffffffffffffffffffffffffffffffffffffff168173ffffffffffffffffffffffffffffffffffffffff167f8be0079c531659141344cd1fd0a4f28419497f9722a3daafe3b4186f6b6457e060405160405180910390a35050565b6103b2846323b872dd60e01b8585856040516024016103509392919061090e565b604051602081830303815290604052907bffffffffffffffffffffffffffffffffffffffffffffffffffffffff19166020820180517bffffffffffffffffffffffffffffffffffffffffffffffffffffffff83818316178352505050506103c0565b50505050565b600033905090565b6000610422826040518060400160405280602081526020017f5361666545524332303a206c6f772d6c6576656c2063616c6c206661696c65648152508573ffffffffffffffffffffffffffffffffffffffff166104879092919063ffffffff16565b90506000815111156104825780806020019051810190610442919061097d565b610481576040517f08c379a000000000000000000000000000000000000000000000000000000000815260040161047890610a1c565b60405180910390fd5b5b505050565b6060610496848460008561049f565b90509392505050565b6060824710156104e4576040517f08c379a00000000000000000000000000000000000000000000000000000000081526004016104db90610aae565b60405180910390fd5b6000808673ffffffffffffffffffffffffffffffffffffffff16858760405161050d9190610b3f565b60006040518083038185875af1925050503d806000811461054a576040519150601f19603f3d011682016040523d82523d6000602084013e61054f565b606091505b50915091506105608783838761056c565b92505050949350505050565b606083156105ce5760008351036105c657610586856105e1565b6105c5576040517f08c379a00000000000000000000000000000000000000000000000000000000081526004016105bc90610ba2565b60405180910390fd5b5b8290506105d9565b6105d88383610604565b5b949350505050565b6000808273ffffffffffffffffffffffffffffffffffffffff163b119050919050565b6000825111156106175781518083602001fd5b806040517f08c379a000000000000000000000000000000000000000000000000000000000815260040161064b9190610c17565b60405180910390fd5b600073ffffffffffffffffffffffffffffffffffffffff82169050919050565b600061067f82610654565b9050919050565b61068f81610674565b82525050565b60006020820190506106aa6000830184610686565b92915050565b600080fd5b6106be81610674565b81146106c957600080fd5b50565b6000813590506106db816106b5565b92915050565b6000602082840312156106f7576106f66106b0565b5b6000610705848285016106cc565b91505092915050565b6000819050919050565b6107218161070e565b811461072c57600080fd5b50565b60008135905061073e81610718565b92915050565b6000806040838503121561075b5761075a6106b0565b5b6000610769858286016106cc565b925050602061077a8582860161072f565b9150509250929050565b600082825260208201905092915050565b7f4f776e61626c653a206e6577206f776e657220697320746865207a65726f206160008201527f6464726573730000000000000000000000000000000000000000000000000000602082015250565b60006107f1602683610784565b91506107fc82610795565b604082019050919050565b60006020820190508181036000830152610820816107e4565b9050919050565b7f5f616d6f756e74206d757374206265203e203021000000000000000000000000600082015250565b600061085d601483610784565b915061086882610827565b602082019050919050565b6000602082019050818103600083015261088c81610850565b9050919050565b7f4f776e61626c653a2063616c6c6572206973206e6f7420746865206f776e6572600082015250565b60006108c9602083610784565b91506108d482610893565b602082019050919050565b600060208201905081810360008301526108f8816108bc565b9050919050565b6109088161070e565b82525050565b60006060820190506109236000830186610686565b6109306020830185610686565b61093d60408301846108ff565b949350505050565b60008115159050919050565b61095a81610945565b811461096557600080fd5b50565b60008151905061097781610951565b92915050565b600060208284031215610993576109926106b0565b5b60006109a184828501610968565b91505092915050565b7f5361666545524332303a204552433230206f7065726174696f6e20646964206e60008201527f6f74207375636365656400000000000000000000000000000000000000000000602082015250565b6000610a06602a83610784565b9150610a11826109aa565b604082019050919050565b60006020820190508181036000830152610a35816109f9565b9050919050565b7f416464726573733a20696e73756666696369656e742062616c616e636520666f60008201527f722063616c6c0000000000000000000000000000000000000000000000000000602082015250565b6000610a98602683610784565b9150610aa382610a3c565b604082019050919050565b60006020820190508181036000830152610ac781610a8b565b9050919050565b600081519050919050565b600081905092915050565b60005b83811015610b02578082015181840152602081019050610ae7565b60008484015250505050565b6000610b1982610ace565b610b238185610ad9565b9350610b33818560208601610ae4565b80840191505092915050565b6000610b4b8284610b0e565b915081905092915050565b7f416464726573733a2063616c6c20746f206e6f6e2d636f6e7472616374000000600082015250565b6000610b8c601d83610784565b9150610b9782610b56565b602082019050919050565b60006020820190508181036000830152610bbb81610b7f565b9050919050565b600081519050919050565b6000601f19601f8301169050919050565b6000610be982610bc2565b610bf38185610784565b9350610c03818560208601610ae4565b610c0c81610bcd565b840191505092915050565b60006020820190508181036000830152610c318184610bde565b90509291505056fea26469706673582212203012d2d026cc4daad00b6a8cf0f60c6eb1d5499f90bf389e427dc721aa80e59364736f6c63430008110033",
  "immutableReferences": {},
  "source": "// SPDX-License-Identifier: MIT\npragma solidity 0.8.17;\n\nimport \"@openzeppelin/contracts/access/Ownable.sol\";\nimport \"@openzeppelin/contracts/interfaces/IERC20.sol\";\nimport \"@openzeppelin/contracts/token/ERC20/utils/SafeERC20.sol\";\n\n/**\n * @dev FeesCollector is the smart contract to collect the fees from user's HelloDefiAAVE2 deposits and withdraws\n */\ncontract FeesCollector is Ownable {\n    using SafeERC20 for IERC20;\n\n    function withdraw(address _asset, uint256 _amount) external onlyOwner {\n        require(_amount > 0, \"_amount must be > 0!\");\n\n        // Allow this smart contract to spend fees amount in behalf of the _userClone\n        //IERC20(_asset).safeIncreaseAllowance(address(this), fees);\n\n        //Transfer funds from this smart contract to the user\n        IERC20(_asset).safeTransferFrom(address(this), msg.sender, _amount);\n    }\n}\n",
  "sourcePath": "/Users/Adam/Desktop/HelloDefi/ProjectAlyra/truffle/contracts/FeesCollector.sol",
  "compiler": {
    "name": "solc",
    "version": "0.8.17+commit.8df45f5f.Emscripten.clang"
  },
  "schemaVersion": "3.4.10",
  "updatedAt": "2022-12-09T19:58:41.410Z",
  "devdoc": {
    "details": "FeesCollector is the smart contract to collect the fees from user's HelloDefiAAVE2 deposits and withdraws",
    "kind": "dev",
    "methods": {
      "owner()": {
        "details": "Returns the address of the current owner."
      },
      "renounceOwnership()": {
        "details": "Leaves the contract without owner. It will not be possible to call `onlyOwner` functions anymore. Can only be called by the current owner. NOTE: Renouncing ownership will leave the contract without an owner, thereby removing any functionality that is only available to the owner."
      },
      "transferOwnership(address)": {
        "details": "Transfers ownership of the contract to a new account (`newOwner`). Can only be called by the current owner."
      }
    },
    "version": 1
  },
  "userdoc": {
    "kind": "user",
    "methods": {},
    "version": 1
  }
}