{
  "contractName": "FeesCollector",
  "abi": [
    {
      "anonymous": false,
      "inputs": [
        {
          "indexed": true,
          "internalType": "address",
          "name": "previousOwner",
          "type": "address"
        },
        {
          "indexed": true,
          "internalType": "address",
          "name": "newOwner",
          "type": "address"
        }
      ],
      "name": "OwnershipTransferred",
      "type": "event"
    },
    {
      "inputs": [],
      "name": "owner",
      "outputs": [
        {
          "internalType": "address",
          "name": "",
          "type": "address"
        }
      ],
      "stateMutability": "view",
      "type": "function",
      "constant": true
    },
    {
      "inputs": [],
      "name": "renounceOwnership",
      "outputs": [],
      "stateMutability": "nonpayable",
      "type": "function"
    },
    {
      "inputs": [
        {
          "internalType": "address",
          "name": "newOwner",
          "type": "address"
        }
      ],
      "name": "transferOwnership",
      "outputs": [],
      "stateMutability": "nonpayable",
      "type": "function"
    },
    {
      "inputs": [
        {
          "internalType": "address",
          "name": "_asset",
          "type": "address"
        },
        {
          "internalType": "uint256",
          "name": "_amount",
          "type": "uint256"
        }
      ],
      "name": "withdraw",
      "outputs": [],
      "stateMutability": "nonpayable",
      "type": "function"
    }
  ],
  "bytecode": "0x608060405234801561001057600080fd5b5061001a3361001f565b61006f565b600080546001600160a01b038381166001600160a01b0319831681178455604051919092169283917f8be0079c531659141344cd1fd0a4f28419497f9722a3daafe3b4186f6b6457e09190a35050565b61065a8061007e6000396000f3fe608060405234801561001057600080fd5b506004361061004c5760003560e01c8063715018a6146100515780638da5cb5b1461005b578063f2fde38b1461007a578063f3fef3a31461008d575b600080fd5b6100596100a0565b005b600054604080516001600160a01b039092168252519081900360200190f35b610059610088366004610543565b6100b4565b61005961009b366004610565565b610132565b6100a86101a2565b6100b260006101fc565b565b6100bc6101a2565b6001600160a01b0381166101265760405162461bcd60e51b815260206004820152602660248201527f4f776e61626c653a206e6577206f776e657220697320746865207a65726f206160448201526564647265737360d01b60648201526084015b60405180910390fd5b61012f816101fc565b50565b61013a6101a2565b6000811161018a5760405162461bcd60e51b815260206004820152601460248201527f5f616d6f756e74206d757374206265203e203021000000000000000000000000604482015260640161011d565b61019e6001600160a01b0383163383610259565b5050565b6000546001600160a01b031633146100b25760405162461bcd60e51b815260206004820181905260248201527f4f776e61626c653a2063616c6c6572206973206e6f7420746865206f776e6572604482015260640161011d565b600080546001600160a01b0383811673ffffffffffffffffffffffffffffffffffffffff19831681178455604051919092169283917f8be0079c531659141344cd1fd0a4f28419497f9722a3daafe3b4186f6b6457e09190a35050565b604080516001600160a01b038416602482015260448082018490528251808303909101815260649091019091526020810180517bffffffffffffffffffffffffffffffffffffffffffffffffffffffff1663a9059cbb60e01b1790526102c09084906102c5565b505050565b600061031a826040518060400160405280602081526020017f5361666545524332303a206c6f772d6c6576656c2063616c6c206661696c6564815250856001600160a01b03166103979092919063ffffffff16565b8051909150156102c05780806020019051810190610338919061058f565b6102c05760405162461bcd60e51b815260206004820152602a60248201527f5361666545524332303a204552433230206f7065726174696f6e20646964206e6044820152691bdd081cdd58d8d9595960b21b606482015260840161011d565b60606103a684846000856103ae565b949350505050565b60608247101561040f5760405162461bcd60e51b815260206004820152602660248201527f416464726573733a20696e73756666696369656e742062616c616e636520666f6044820152651c8818d85b1b60d21b606482015260840161011d565b600080866001600160a01b0316858760405161042b91906105d5565b60006040518083038185875af1925050503d8060008114610468576040519150601f19603f3d011682016040523d82523d6000602084013e61046d565b606091505b509150915061047e87838387610489565b979650505050505050565b606083156104f85782516000036104f1576001600160a01b0385163b6104f15760405162461bcd60e51b815260206004820152601d60248201527f416464726573733a2063616c6c20746f206e6f6e2d636f6e7472616374000000604482015260640161011d565b50816103a6565b6103a6838381511561050d5781518083602001fd5b8060405162461bcd60e51b815260040161011d91906105f1565b80356001600160a01b038116811461053e57600080fd5b919050565b60006020828403121561055557600080fd5b61055e82610527565b9392505050565b6000806040838503121561057857600080fd5b61058183610527565b946020939093013593505050565b6000602082840312156105a157600080fd5b8151801515811461055e57600080fd5b60005b838110156105cc5781810151838201526020016105b4565b50506000910152565b600082516105e78184602087016105b1565b9190910192915050565b60208152600082518060208401526106108160408501602087016105b1565b601f01601f1916919091016040019291505056fea2646970667358221220920a12f40e52da15960355066ed6e54814ea797777813a5e1d7951fea8dba28464736f6c63430008110033",
  "immutableReferences": {},
  "source": "// SPDX-License-Identifier: MIT\npragma solidity 0.8.17;\n\nimport \"@openzeppelin/contracts/access/Ownable.sol\";\nimport \"@openzeppelin/contracts/interfaces/IERC20.sol\";\nimport \"@openzeppelin/contracts/token/ERC20/utils/SafeERC20.sol\";\n\n/**\n * @dev FeesCollector is the smart contract to collect the fees from user's HelloDefiAAVE2 deposits and withdraws\n */\ncontract FeesCollector is Ownable {\n    using SafeERC20 for IERC20;\n\n    function withdraw(address _asset, uint256 _amount) external onlyOwner {\n        require(_amount > 0, \"_amount must be > 0!\");\n\n        //Transfer funds from this smart contract to the user\n        IERC20(_asset).safeTransfer(msg.sender, _amount);\n    }\n}\n",
  "sourcePath": "/Users/guillaumedebavelaere/alyra/projects/HelloDefi/truffle/contracts/FeesCollector.sol",
  "compiler": {
    "name": "solc",
    "version": "0.8.17+commit.8df45f5f.Emscripten.clang"
  },
  "schemaVersion": "3.4.10",
  "updatedAt": "2022-12-11T11:01:28.174Z",
  "networkType": "ethereum",
  "devdoc": {
    "details": "FeesCollector is the smart contract to collect the fees from user's HelloDefiAAVE2 deposits and withdraws",
    "kind": "dev",
    "methods": {
      "owner()": {
        "details": "Returns the address of the current owner."
      },
      "renounceOwnership()": {
        "details": "Leaves the contract without owner. It will not be possible to call `onlyOwner` functions anymore. Can only be called by the current owner. NOTE: Renouncing ownership will leave the contract without an owner, thereby removing any functionality that is only available to the owner."
      },
      "transferOwnership(address)": {
        "details": "Transfers ownership of the contract to a new account (`newOwner`). Can only be called by the current owner."
      }
    },
    "version": 1
  },
  "userdoc": {
    "kind": "user",
    "methods": {},
    "version": 1
  }
}