{
  "contractName": "HelloDefiAAVE2",
  "abi": [
    {
      "anonymous": false,
      "inputs": [
        {
          "indexed": true,
          "internalType": "address",
          "name": "_asset",
          "type": "address"
        },
        {
          "indexed": false,
          "internalType": "uint256",
          "name": "_amount",
          "type": "uint256"
        }
      ],
      "name": "Deposit",
      "type": "event"
    },
    {
      "anonymous": false,
      "inputs": [
        {
          "indexed": false,
          "internalType": "uint8",
          "name": "version",
          "type": "uint8"
        }
      ],
      "name": "Initialized",
      "type": "event"
    },
    {
      "anonymous": false,
      "inputs": [
        {
          "indexed": true,
          "internalType": "address",
          "name": "previousOwner",
          "type": "address"
        },
        {
          "indexed": true,
          "internalType": "address",
          "name": "newOwner",
          "type": "address"
        }
      ],
      "name": "OwnershipTransferred",
      "type": "event"
    },
    {
      "anonymous": false,
      "inputs": [
        {
          "indexed": true,
          "internalType": "address",
          "name": "_asset",
          "type": "address"
        },
        {
          "indexed": false,
          "internalType": "uint256",
          "name": "_amount",
          "type": "uint256"
        }
      ],
      "name": "Withdraw",
      "type": "event"
    },
    {
      "inputs": [
        {
          "internalType": "address",
          "name": "",
          "type": "address"
        }
      ],
      "name": "assetAvgCost",
      "outputs": [
        {
          "internalType": "uint256",
          "name": "",
          "type": "uint256"
        }
      ],
      "stateMutability": "view",
      "type": "function"
    },
    {
      "inputs": [
        {
          "internalType": "address",
          "name": "",
          "type": "address"
        }
      ],
      "name": "depositedBalance",
      "outputs": [
        {
          "internalType": "uint256",
          "name": "",
          "type": "uint256"
        }
      ],
      "stateMutability": "view",
      "type": "function"
    },
    {
      "inputs": [],
      "name": "owner",
      "outputs": [
        {
          "internalType": "address",
          "name": "",
          "type": "address"
        }
      ],
      "stateMutability": "view",
      "type": "function"
    },
    {
      "inputs": [],
      "name": "renounceOwnership",
      "outputs": [],
      "stateMutability": "nonpayable",
      "type": "function"
    },
    {
      "inputs": [
        {
          "internalType": "address",
          "name": "newOwner",
          "type": "address"
        }
      ],
      "name": "transferOwnership",
      "outputs": [],
      "stateMutability": "nonpayable",
      "type": "function"
    },
    {
      "inputs": [
        {
          "internalType": "address",
          "name": "_aaveLendingPoolAddress",
          "type": "address"
        },
        {
          "internalType": "address",
          "name": "_aaveProtocolDataProviderAddress",
          "type": "address"
        },
        {
          "internalType": "address",
          "name": "_priceFeedAddress",
          "type": "address"
        },
        {
          "internalType": "address",
          "name": "_feesCollectorAddress",
          "type": "address"
        },
        {
          "internalType": "address",
          "name": "_user",
          "type": "address"
        }
      ],
      "name": "initialize",
      "outputs": [],
      "stateMutability": "nonpayable",
      "type": "function"
    },
    {
      "inputs": [
        {
          "internalType": "address",
          "name": "_asset",
          "type": "address"
        },
        {
          "internalType": "uint256",
          "name": "_amount",
          "type": "uint256"
        }
      ],
      "name": "deposit",
      "outputs": [],
      "stateMutability": "nonpayable",
      "type": "function"
    },
    {
      "inputs": [
        {
          "internalType": "address",
          "name": "_asset",
          "type": "address"
        },
        {
          "internalType": "uint256",
          "name": "_amount",
          "type": "uint256"
        }
      ],
      "name": "withdraw",
      "outputs": [],
      "stateMutability": "nonpayable",
      "type": "function"
    }
  ],
  "bytecode": "0x60806040523480156200001157600080fd5b5062000032620000266200003860201b60201c565b6200004060201b60201c565b62000104565b600033905090565b60008060009054906101000a900473ffffffffffffffffffffffffffffffffffffffff169050816000806101000a81548173ffffffffffffffffffffffffffffffffffffffff021916908373ffffffffffffffffffffffffffffffffffffffff1602179055508173ffffffffffffffffffffffffffffffffffffffff168173ffffffffffffffffffffffffffffffffffffffff167f8be0079c531659141344cd1fd0a4f28419497f9722a3daafe3b4186f6b6457e060405160405180910390a35050565b61270b80620001146000396000f3fe608060405234801561001057600080fd5b50600436106100885760003560e01c80638da5cb5b1161005b5780638da5cb5b146100ff578063cfe69a051461011d578063f2fde38b1461014d578063f3fef3a31461016957610088565b80631459457a1461008d57806347e7ef24146100a9578063715018a6146100c55780638810a2f9146100cf575b600080fd5b6100a760048036038101906100a2919061176f565b610185565b005b6100c360048036038101906100be9190611820565b6103d2565b005b6100cd61062f565b005b6100e960048036038101906100e49190611860565b610643565b6040516100f6919061189c565b60405180910390f35b61010761065b565b60405161011491906118c6565b60405180910390f35b61013760048036038101906101329190611860565b610684565b604051610144919061189c565b60405180910390f35b61016760048036038101906101629190611860565b61069c565b005b610183600480360381019061017e9190611820565b61071f565b005b60008060159054906101000a900460ff161590508080156101b857506001600060149054906101000a900460ff1660ff16105b806101e757506101c730610b0e565b1580156101e657506001600060149054906101000a900460ff1660ff16145b5b610226576040517f08c379a000000000000000000000000000000000000000000000000000000000815260040161021d90611964565b60405180910390fd5b6001600060146101000a81548160ff021916908360ff1602179055508015610264576001600060156101000a81548160ff0219169083151502179055505b85600160006101000a81548173ffffffffffffffffffffffffffffffffffffffff021916908373ffffffffffffffffffffffffffffffffffffffff16021790555084600260006101000a81548173ffffffffffffffffffffffffffffffffffffffff021916908373ffffffffffffffffffffffffffffffffffffffff16021790555083600360006101000a81548173ffffffffffffffffffffffffffffffffffffffff021916908373ffffffffffffffffffffffffffffffffffffffff16021790555082600460006101000a81548173ffffffffffffffffffffffffffffffffffffffff021916908373ffffffffffffffffffffffffffffffffffffffff16021790555061037182610b31565b80156103ca5760008060156101000a81548160ff0219169083151502179055507f7f26b83ff96e1f2b6a682f133852f6798a09c465da95921460cefb384740249860016040516103c191906119d6565b60405180910390a15b505050505050565b6103da610bf5565b6000811161041d576040517f08c379a000000000000000000000000000000000000000000000000000000000815260040161041490611a3d565b60405180910390fd5b61044a3330838573ffffffffffffffffffffffffffffffffffffffff16610c73909392919063ffffffff16565b60006104568383610cfc565b90506104628382610d8a565b600660008573ffffffffffffffffffffffffffffffffffffffff1673ffffffffffffffffffffffffffffffffffffffff1681526020019081526020016000208190555080600560008573ffffffffffffffffffffffffffffffffffffffff1673ffffffffffffffffffffffffffffffffffffffff16815260200190815260200160002060008282546104f49190611a8c565b92505081905550610548600160009054906101000a900473ffffffffffffffffffffffffffffffffffffffff16828573ffffffffffffffffffffffffffffffffffffffff16610f7e9092919063ffffffff16565b600160009054906101000a900473ffffffffffffffffffffffffffffffffffffffff1673ffffffffffffffffffffffffffffffffffffffff1663e8eda9df84833060006040518563ffffffff1660e01b81526004016105aa9493929190611b09565b600060405180830381600087803b1580156105c457600080fd5b505af11580156105d8573d6000803e3d6000fd5b505050508273ffffffffffffffffffffffffffffffffffffffff167fe1fffcc4923d04b559f4d29a8bfc6cda04eb5b0d3c460751c2402c5c5cc9109c82604051610622919061189c565b60405180910390a2505050565b610637610bf5565b6106416000610b31565b565b60066020528060005260406000206000915090505481565b60008060009054906101000a900473ffffffffffffffffffffffffffffffffffffffff16905090565b60056020528060005260406000206000915090505481565b6106a4610bf5565b600073ffffffffffffffffffffffffffffffffffffffff168173ffffffffffffffffffffffffffffffffffffffff1603610713576040517f08c379a000000000000000000000000000000000000000000000000000000000815260040161070a90611bc0565b60405180910390fd5b61071c81610b31565b50565b610727610bf5565b6000811161076a576040517f08c379a000000000000000000000000000000000000000000000000000000000815260040161076190611c2c565b60405180910390fd5b6000600260009054906101000a900473ffffffffffffffffffffffffffffffffffffffff1673ffffffffffffffffffffffffffffffffffffffff166328dd2d0184306040518363ffffffff1660e01b81526004016107c9929190611c4c565b61012060405180830381865afa1580156107e7573d6000803e3d6000fd5b505050506040513d601f19601f8201168201806040525081019061080b9190611cff565b5050505050505050905080821115610858576040517f08c379a000000000000000000000000000000000000000000000000000000000815260040161084f90611e15565b60405180910390fd5b6000600360009054906101000a900473ffffffffffffffffffffffffffffffffffffffff1673ffffffffffffffffffffffffffffffffffffffff166316345f18856040518263ffffffff1660e01b81526004016108b591906118c6565b602060405180830381865afa1580156108d2573d6000803e3d6000fd5b505050506040513d601f19601f820116820180604052508101906108f69190611e35565b90506000610905858484611090565b90508084111561091757809350600091505b6000600160009054906101000a900473ffffffffffffffffffffffffffffffffffffffff1673ffffffffffffffffffffffffffffffffffffffff166369328dec8787306040518463ffffffff1660e01b815260040161097893929190611e62565b6020604051808303816000875af1158015610997573d6000803e3d6000fd5b505050506040513d601f19601f820116820180604052508101906109bb9190611e35565b116109fb576040517f08c379a00000000000000000000000000000000000000000000000000000000081526004016109f290611ee5565b60405180910390fd5b8381610a079190611f05565b600560008773ffffffffffffffffffffffffffffffffffffffff1673ffffffffffffffffffffffffffffffffffffffff1681526020019081526020016000208190555081600660008773ffffffffffffffffffffffffffffffffffffffff1673ffffffffffffffffffffffffffffffffffffffff16815260200190815260200160002081905550610ab933858773ffffffffffffffffffffffffffffffffffffffff1661122a9092919063ffffffff16565b8473ffffffffffffffffffffffffffffffffffffffff167f884edad9ce6fa2440d8a54cc123490eb96d2768479d49ff9c7366125a942436485604051610aff919061189c565b60405180910390a25050505050565b6000808273ffffffffffffffffffffffffffffffffffffffff163b119050919050565b60008060009054906101000a900473ffffffffffffffffffffffffffffffffffffffff169050816000806101000a81548173ffffffffffffffffffffffffffffffffffffffff021916908373ffffffffffffffffffffffffffffffffffffffff1602179055508173ffffffffffffffffffffffffffffffffffffffff168173ffffffffffffffffffffffffffffffffffffffff167f8be0079c531659141344cd1fd0a4f28419497f9722a3daafe3b4186f6b6457e060405160405180910390a35050565b610bfd6112b0565b73ffffffffffffffffffffffffffffffffffffffff16610c1b61065b565b73ffffffffffffffffffffffffffffffffffffffff1614610c71576040517f08c379a0000000000000000000000000000000000000000000000000000000008152600401610c6890611f85565b60405180910390fd5b565b610cf6846323b872dd60e01b858585604051602401610c9493929190611fa5565b604051602081830303815290604052907bffffffffffffffffffffffffffffffffffffffffffffffffffffffff19166020820180517bffffffffffffffffffffffffffffffffffffffffffffffffffffffff83818316178352505050506112b8565b50505050565b600060648211610d0b57600080fd5b60006064600284610d1c9190611fdc565b610d26919061204d565b9050610d75600460009054906101000a900473ffffffffffffffffffffffffffffffffffffffff16828673ffffffffffffffffffffffffffffffffffffffff1661122a9092919063ffffffff16565b8083610d819190611f05565b91505092915050565b60008082600560008673ffffffffffffffffffffffffffffffffffffffff1673ffffffffffffffffffffffffffffffffffffffff16815260200190815260200160002054610dd89190611a8c565b905060008111610e1d576040517f08c379a0000000000000000000000000000000000000000000000000000000008152600401610e14906120ca565b60405180910390fd5b6000600660008673ffffffffffffffffffffffffffffffffffffffff1673ffffffffffffffffffffffffffffffffffffffff16815260200190815260200160002054600560008773ffffffffffffffffffffffffffffffffffffffff1673ffffffffffffffffffffffffffffffffffffffff16815260200190815260200160002054610ea99190611fdc565b90506000600360009054906101000a900473ffffffffffffffffffffffffffffffffffffffff1673ffffffffffffffffffffffffffffffffffffffff166316345f18876040518263ffffffff1660e01b8152600401610f0891906118c6565b602060405180830381865afa158015610f25573d6000803e3d6000fd5b505050506040513d601f19601f82011682018060405250810190610f499190611e35565b905060008186610f599190611fdc565b9050838382610f689190611a8c565b610f72919061204d565b94505050505092915050565b6000818473ffffffffffffffffffffffffffffffffffffffff1663dd62ed3e30866040518363ffffffff1660e01b8152600401610fbc929190611c4c565b602060405180830381865afa158015610fd9573d6000803e3d6000fd5b505050506040513d601f19601f82011682018060405250810190610ffd9190611e35565b6110079190611a8c565b905061108a8463095ea7b360e01b85846040516024016110289291906120ea565b604051602081830303815290604052907bffffffffffffffffffffffffffffffffffffffffffffffffffffffff19166020820180517bffffffffffffffffffffffffffffffffffffffffffffffffffffffff83818316178352505050506112b8565b50505050565b60008061109d858561137f565b90506000670de0b6b3a76400008583866110b7919061211d565b6110c19190612160565b6110cb91906121d8565b9050606481131561121d5760006064600a836110e79190611fdc565b6110f1919061204d565b9050600085670de0b6b3a76400008361110a9190611fdc565b611114919061204d565b9050600160009054906101000a900473ffffffffffffffffffffffffffffffffffffffff1673ffffffffffffffffffffffffffffffffffffffff166369328dec8983306040518463ffffffff1660e01b815260040161117593929190611e62565b6020604051808303816000875af1158015611194573d6000803e3d6000fd5b505050506040513d601f19601f820116820180604052508101906111b89190611e35565b50611206600460009054906101000a900473ffffffffffffffffffffffffffffffffffffffff16828a73ffffffffffffffffffffffffffffffffffffffff1661122a9092919063ffffffff16565b80876112129190611f05565b945050505050611223565b84925050505b9392505050565b6112ab8363a9059cbb60e01b84846040516024016112499291906120ea565b604051602081830303815290604052907bffffffffffffffffffffffffffffffffffffffffffffffffffffffff19166020820180517bffffffffffffffffffffffffffffffffffffffffffffffffffffffff83818316178352505050506112b8565b505050565b600033905090565b600061131a826040518060400160405280602081526020017f5361666545524332303a206c6f772d6c6576656c2063616c6c206661696c65648152508573ffffffffffffffffffffffffffffffffffffffff1661153f9092919063ffffffff16565b905060008151111561137a578080602001905181019061133a9190612242565b611379576040517f08c379a0000000000000000000000000000000000000000000000000000000008152600401611370906122e1565b60405180910390fd5b5b505050565b600080600660008573ffffffffffffffffffffffffffffffffffffffff1673ffffffffffffffffffffffffffffffffffffffff16815260200190815260200160002054600560008673ffffffffffffffffffffffffffffffffffffffff1673ffffffffffffffffffffffffffffffffffffffff1681526020019081526020016000205461140c9190611fdc565b905060128473ffffffffffffffffffffffffffffffffffffffff1663313ce5676040518163ffffffff1660e01b8152600401602060405180830381865afa15801561145b573d6000803e3d6000fd5b505050506040513d601f19601f8201168201806040525081019061147f919061232d565b60ff16101561152a576000670de0b6b3a76400008573ffffffffffffffffffffffffffffffffffffffff1663313ce5676040518163ffffffff1660e01b8152600401602060405180830381865afa1580156114de573d6000803e3d6000fd5b505050506040513d601f19601f82011682018060405250810190611502919061232d565b600a61150e919061248d565b611518919061204d565b905080826115269190611fdc565b9150505b8281611536919061204d565b91505092915050565b606061154e8484600085611557565b90509392505050565b60608247101561159c576040517f08c379a00000000000000000000000000000000000000000000000000000000081526004016115939061254a565b60405180910390fd5b6000808673ffffffffffffffffffffffffffffffffffffffff1685876040516115c591906125db565b60006040518083038185875af1925050503d8060008114611602576040519150601f19603f3d011682016040523d82523d6000602084013e611607565b606091505b509150915061161887838387611624565b92505050949350505050565b6060831561168657600083510361167e5761163e85611699565b61167d576040517f08c379a00000000000000000000000000000000000000000000000000000000081526004016116749061263e565b60405180910390fd5b5b829050611691565b61169083836116bc565b5b949350505050565b6000808273ffffffffffffffffffffffffffffffffffffffff163b119050919050565b6000825111156116cf5781518083602001fd5b806040517f08c379a000000000000000000000000000000000000000000000000000000000815260040161170391906126b3565b60405180910390fd5b600080fd5b600073ffffffffffffffffffffffffffffffffffffffff82169050919050565b600061173c82611711565b9050919050565b61174c81611731565b811461175757600080fd5b50565b60008135905061176981611743565b92915050565b600080600080600060a0868803121561178b5761178a61170c565b5b60006117998882890161175a565b95505060206117aa8882890161175a565b94505060406117bb8882890161175a565b93505060606117cc8882890161175a565b92505060806117dd8882890161175a565b9150509295509295909350565b6000819050919050565b6117fd816117ea565b811461180857600080fd5b50565b60008135905061181a816117f4565b92915050565b600080604083850312156118375761183661170c565b5b60006118458582860161175a565b92505060206118568582860161180b565b9150509250929050565b6000602082840312156118765761187561170c565b5b60006118848482850161175a565b91505092915050565b611896816117ea565b82525050565b60006020820190506118b1600083018461188d565b92915050565b6118c081611731565b82525050565b60006020820190506118db60008301846118b7565b92915050565b600082825260208201905092915050565b7f496e697469616c697a61626c653a20636f6e747261637420697320616c72656160008201527f647920696e697469616c697a6564000000000000000000000000000000000000602082015250565b600061194e602e836118e1565b9150611959826118f2565b604082019050919050565b6000602082019050818103600083015261197d81611941565b9050919050565b6000819050919050565b600060ff82169050919050565b6000819050919050565b60006119c06119bb6119b684611984565b61199b565b61198e565b9050919050565b6119d0816119a5565b82525050565b60006020820190506119eb60008301846119c7565b92915050565b7f616d6f756e74206d757374206265203e20302100000000000000000000000000600082015250565b6000611a276013836118e1565b9150611a32826119f1565b602082019050919050565b60006020820190508181036000830152611a5681611a1a565b9050919050565b7f4e487b7100000000000000000000000000000000000000000000000000000000600052601160045260246000fd5b6000611a97826117ea565b9150611aa2836117ea565b9250828201905080821115611aba57611ab9611a5d565b5b92915050565b6000819050919050565b600061ffff82169050919050565b6000611af3611aee611ae984611ac0565b61199b565b611aca565b9050919050565b611b0381611ad8565b82525050565b6000608082019050611b1e60008301876118b7565b611b2b602083018661188d565b611b3860408301856118b7565b611b456060830184611afa565b95945050505050565b7f4f776e61626c653a206e6577206f776e657220697320746865207a65726f206160008201527f6464726573730000000000000000000000000000000000000000000000000000602082015250565b6000611baa6026836118e1565b9150611bb582611b4e565b604082019050919050565b60006020820190508181036000830152611bd981611b9d565b9050919050565b7f5f616d6f756e74206d757374206265203e203021000000000000000000000000600082015250565b6000611c166014836118e1565b9150611c2182611be0565b602082019050919050565b60006020820190508181036000830152611c4581611c09565b9050919050565b6000604082019050611c6160008301856118b7565b611c6e60208301846118b7565b9392505050565b600081519050611c84816117f4565b92915050565b600064ffffffffff82169050919050565b611ca481611c8a565b8114611caf57600080fd5b50565b600081519050611cc181611c9b565b92915050565b60008115159050919050565b611cdc81611cc7565b8114611ce757600080fd5b50565b600081519050611cf981611cd3565b92915050565b60008060008060008060008060006101208a8c031215611d2257611d2161170c565b5b6000611d308c828d01611c75565b9950506020611d418c828d01611c75565b9850506040611d528c828d01611c75565b9750506060611d638c828d01611c75565b9650506080611d748c828d01611c75565b95505060a0611d858c828d01611c75565b94505060c0611d968c828d01611c75565b93505060e0611da78c828d01611cb2565b925050610100611db98c828d01611cea565b9150509295985092959850929598565b7f496e73756666696369616e742062616c616e6365000000000000000000000000600082015250565b6000611dff6014836118e1565b9150611e0a82611dc9565b602082019050919050565b60006020820190508181036000830152611e2e81611df2565b9050919050565b600060208284031215611e4b57611e4a61170c565b5b6000611e5984828501611c75565b91505092915050565b6000606082019050611e7760008301866118b7565b611e84602083018561188d565b611e9160408301846118b7565b949350505050565b7f30207768697468647261776e2066726f6d204141564521000000000000000000600082015250565b6000611ecf6017836118e1565b9150611eda82611e99565b602082019050919050565b60006020820190508181036000830152611efe81611ec2565b9050919050565b6000611f10826117ea565b9150611f1b836117ea565b9250828203905081811115611f3357611f32611a5d565b5b92915050565b7f4f776e61626c653a2063616c6c6572206973206e6f7420746865206f776e6572600082015250565b6000611f6f6020836118e1565b9150611f7a82611f39565b602082019050919050565b60006020820190508181036000830152611f9e81611f62565b9050919050565b6000606082019050611fba60008301866118b7565b611fc760208301856118b7565b611fd4604083018461188d565b949350505050565b6000611fe7826117ea565b9150611ff2836117ea565b9250828202612000816117ea565b9150828204841483151761201757612016611a5d565b5b5092915050565b7f4e487b7100000000000000000000000000000000000000000000000000000000600052601260045260246000fd5b6000612058826117ea565b9150612063836117ea565b9250826120735761207261201e565b5b828204905092915050565b7f4e6f207175616e74697479210000000000000000000000000000000000000000600082015250565b60006120b4600c836118e1565b91506120bf8261207e565b602082019050919050565b600060208201905081810360008301526120e3816120a7565b9050919050565b60006040820190506120ff60008301856118b7565b61210c602083018461188d565b9392505050565b6000819050919050565b600061212882612113565b915061213383612113565b925082820390508181126000841216828213600085121516171561215a57612159611a5d565b5b92915050565b600061216b82612113565b915061217683612113565b925082820261218481612113565b91507f800000000000000000000000000000000000000000000000000000000000000084146000841216156121bc576121bb611a5d565b5b82820584148315176121d1576121d0611a5d565b5b5092915050565b60006121e382612113565b91506121ee83612113565b9250826121fe576121fd61201e565b5b600160000383147f80000000000000000000000000000000000000000000000000000000000000008314161561223757612236611a5d565b5b828205905092915050565b6000602082840312156122585761225761170c565b5b600061226684828501611cea565b91505092915050565b7f5361666545524332303a204552433230206f7065726174696f6e20646964206e60008201527f6f74207375636365656400000000000000000000000000000000000000000000602082015250565b60006122cb602a836118e1565b91506122d68261226f565b604082019050919050565b600060208201905081810360008301526122fa816122be565b9050919050565b61230a8161198e565b811461231557600080fd5b50565b60008151905061232781612301565b92915050565b6000602082840312156123435761234261170c565b5b600061235184828501612318565b91505092915050565b60008160011c9050919050565b6000808291508390505b60018511156123b15780860481111561238d5761238c611a5d565b5b600185161561239c5780820291505b80810290506123aa8561235a565b9450612371565b94509492505050565b6000826123ca5760019050612486565b816123d85760009050612486565b81600181146123ee57600281146123f857612427565b6001915050612486565b60ff84111561240a57612409611a5d565b5b8360020a91508482111561242157612420611a5d565b5b50612486565b5060208310610133831016604e8410600b841016171561245c5782820a90508381111561245757612456611a5d565b5b612486565b6124698484846001612367565b925090508184048111156124805761247f611a5d565b5b81810290505b9392505050565b6000612498826117ea565b91506124a38361198e565b92506124d07fffffffffffffffffffffffffffffffffffffffffffffffffffffffffffffffff84846123ba565b905092915050565b7f416464726573733a20696e73756666696369656e742062616c616e636520666f60008201527f722063616c6c0000000000000000000000000000000000000000000000000000602082015250565b60006125346026836118e1565b915061253f826124d8565b604082019050919050565b6000602082019050818103600083015261256381612527565b9050919050565b600081519050919050565b600081905092915050565b60005b8381101561259e578082015181840152602081019050612583565b60008484015250505050565b60006125b58261256a565b6125bf8185612575565b93506125cf818560208601612580565b80840191505092915050565b60006125e782846125aa565b915081905092915050565b7f416464726573733a2063616c6c20746f206e6f6e2d636f6e7472616374000000600082015250565b6000612628601d836118e1565b9150612633826125f2565b602082019050919050565b600060208201905081810360008301526126578161261b565b9050919050565b600081519050919050565b6000601f19601f8301169050919050565b60006126858261265e565b61268f81856118e1565b935061269f818560208601612580565b6126a881612669565b840191505092915050565b600060208201905081810360008301526126cd818461267a565b90509291505056fea2646970667358221220d63699ae9f2dd02772a530abd6294f068c4f94886d531a1c1cc406c4466b7b7f64736f6c63430008110033",
  "immutableReferences": {},
  "source": "// SPDX-License-Identifier: MIT\npragma solidity 0.8.17;\n\nimport \"./ILendingPoolAAVE2.sol\";\nimport \"./IProtocolDataProviderAAVE2.sol\";\nimport \"./PriceFeedConsumer.sol\";\nimport \"@chainlink/contracts/src/v0.8/interfaces/AggregatorV3Interface.sol\";\nimport \"./FeesCollector.sol\";\nimport \"@openzeppelin/contracts/interfaces/IERC20.sol\";\nimport \"@openzeppelin/contracts/interfaces/IERC20Metadata.sol\";\nimport \"@openzeppelin/contracts/token/ERC20/utils/SafeERC20.sol\";\nimport \"@openzeppelin/contracts/access/Ownable.sol\";\nimport \"@openzeppelin/contracts-upgradeable/proxy/utils/Initializable.sol\";\nimport \"@openzeppelin/contracts/utils/Strings.sol\";\n\n/**\n * @title HelloDefiAAVE2\n * @dev This smart contract interacts with AAVE protocol v2.\n * @dev It is created as a clone from the HelloDefiAAVE2Factory.\n */\ncontract HelloDefiAAVE2 is Ownable, Initializable {\n    using SafeERC20 for IERC20;\n\n    ILendingPoolAAVE2 private _aaveLendingPool;\n    IProtocolDataProviderAAVE2 private _aaveProtocoDataProvider;\n    PriceFeedConsumer private _priceFeed;\n    FeesCollector private _feesCollector;\n\n    uint256 private constant _referalCommission = 2; // 2%\n    uint256 private constant _performanceCommission = 10; // 10%\n\n    // mapping to keep track of the user's deposit balance: asset address => deposited asset qty\n    mapping(address => uint256) public depositedBalance;\n\n    // mapping to keep track of the user's asset avg deposit dollar cost : asset address => asset avg cost\n    mapping(address => uint256) public assetAvgCost;\n\n    event Deposit(address indexed _asset, uint256 _amount);\n    event Withdraw(address indexed _asset, uint256 _amount);\n\n    /**\n     * @dev As HelloDefiAAVE2 is used as a Clone, there is no constructor.\n     * @dev Call this function to initialize the clone instead.\n     * @param _aaveLendingPoolAddress aave lending pool smart contract address\n     * @param _aaveProtocolDataProviderAddress aave protocol data provider smart contract address\n     * @param _priceFeedAddress price feed address\n     * @param _feesCollectorAddress fees collector smart contract address\n     * @param _user is the adress of the owner of this initialized clone\n     */\n    function initialize(\n        address _aaveLendingPoolAddress,\n        address _aaveProtocolDataProviderAddress,\n        address _priceFeedAddress,\n        address _feesCollectorAddress,\n        address _user\n    ) external initializer {\n        _aaveLendingPool = ILendingPoolAAVE2(_aaveLendingPoolAddress);\n        _aaveProtocoDataProvider = IProtocolDataProviderAAVE2(\n            _aaveProtocolDataProviderAddress\n        );\n        _priceFeed = PriceFeedConsumer(_priceFeedAddress);\n        _feesCollector = FeesCollector(_feesCollectorAddress);\n        _transferOwnership(_user);\n    }\n\n    /**\n     * @dev Deposits an `amount` of underlying asset into this smart contract. Referal fees are applied. Then the smart contract deposits the (amount - fees) into\n     * AAVE in behalf of the user, receiving in return overlying aTokens in the smart contract.\n     * - E.g. User deposits 100 USDC to the SC and the SC will deposit into AAVE 98 USDC to get in return 98 aUSDC (received into the SC).\n     * Before calling this function, it requires the user to approve this smart contract to spend his asset.\n     * @param _asset The address of the underlying asset to deposit.\n     * @param _amount The amount to be deposited.\n     **/\n    function deposit(address _asset, uint256 _amount) external onlyOwner {\n        require(_amount > 0, \"amount must be > 0!\");\n\n        // Transfers the asset from user's wallet to this smart contract\n        IERC20(_asset).safeTransferFrom(msg.sender, address(this), _amount);\n\n        // collect referal fees\n        uint256 amountAfterFees = _collectReferalFees(_asset, _amount);\n\n        // keep track of avg cost\n        assetAvgCost[_asset] = _computeAssetAvgCost(_asset, amountAfterFees);\n\n        // keep track of the asset balance\n        depositedBalance[_asset] += amountAfterFees;\n\n        // Approval to allow aave to spend the user's asset\n        IERC20(_asset).safeIncreaseAllowance(\n            address(_aaveLendingPool),\n            amountAfterFees\n        );\n\n        // This smart contract deposits to AAVE in behalf of the user\n        _aaveLendingPool.deposit(_asset, amountAfterFees, address(this), 0);\n\n        emit Deposit(_asset, amountAfterFees);\n    }\n\n    /**\n     * @dev Withdraws an `amount` of underlying _asset from the AAVE reserve, burning the equivalent aTokens owned by the smart contract\n     * E.g. Smart contract has 100 aUSDC, calls withdraw() and receives 100 USDC, burning the 100 aUSDC. 100 USDC are then returned to the user (msg.sender)\n     * @param _asset The address of the underlying asset to withdraw\n     * @param _amount The underlying amount to be withdrawn\n     **/\n    function withdraw(address _asset, uint256 _amount) external onlyOwner {\n        require(_amount > 0, \"_amount must be > 0!\");\n\n        // Getting total balance (deposited + rewards)\n        (uint256 totalBalance, , , , , , , , ) = _aaveProtocoDataProvider\n            .getUserReserveData(_asset, address(this));\n        require(_amount <= totalBalance, \"Insufficiant balance\");\n\n        // collect performance fees\n        uint256 lastPrice = _priceFeed.getLatestPrice(_asset);\n        uint256 totalRemainingBalance = _collectPerformanceFees(_asset, totalBalance, lastPrice);\n\n        // If the user withdraw all of it\n        if (_amount > totalRemainingBalance) {\n            _amount = totalRemainingBalance;\n            lastPrice = 0;\n        }\n\n        // This smart contract withdraw from AAVE in behalf of the user\n        require(\n            _aaveLendingPool.withdraw(_asset, _amount, address(this)) > 0,\n            \"0 whithdrawn from AAVE!\"\n        );\n\n        // Update the user asset's balance and avg cost\n        depositedBalance[_asset] = (totalRemainingBalance - _amount);\n        assetAvgCost[_asset] = lastPrice;\n\n        //Transfers the asset from this smart contract to user's wallet\n        IERC20(_asset).safeTransfer(\n            msg.sender,\n            _amount\n        );\n\n        emit Withdraw(_asset, _amount);\n    }\n\n    /**\n     * _collectReferalFees verifies first if the user has a referal wealth manager.\n     * If it is the case, it computes the fees and substract from the deposited amount and transfer to the FeesCollector.\n     * @param _asset asset to deposit\n     * @param _amount asset quantity to deposit\n     * @return the remaining amount after the applied fees.\n     */\n    function _collectReferalFees(address _asset, uint256 _amount)\n        private\n        returns (uint256)\n    {\n        require(_amount > 100);\n        uint256 fees = (_amount * _referalCommission) / 100;\n\n        // Transfer referal fees to the fees collector\n        IERC20(_asset).safeTransfer(\n            address(_feesCollector),\n            fees\n        );\n\n        return _amount - fees;\n    }\n\n    /**\n     *  _collectPerformanceFees computes the performance fees send them to the FeesCollector;\n     * @param _asset asset to withdraw\n     * @param _totalBalance total asset quantity (deposited + rewards)\n     * @return the remaining amount to withdraw after the applied fees.\n     */\n    function _collectPerformanceFees(\n        address _asset,\n        uint256 _totalBalance,\n        uint256 _lastPrice\n    ) private returns (uint256) {\n        // Compute the real avg cost\n        uint256 _avgCost = _computeRealAvgCost(_asset, _totalBalance);\n\n        // Compute profit or loss\n        int256 profitOrLoss = (int256(_lastPrice) - int256(_avgCost)) *\n            int256(_totalBalance) / 10**18;\n        \n        if (profitOrLoss > 100) {\n            // 100 is the minimum to be able to compute the fees\n            uint256 dollarFees = (uint256(profitOrLoss) *\n                _performanceCommission) / 100;\n            \n            uint256 feesQty = dollarFees * 10**18/ _lastPrice;\n            \n            // Withdraw fees from AAVE\n            _aaveLendingPool.withdraw(_asset, feesQty, address(this));\n\n            // Transfer performance fees to the fees collector\n            IERC20(_asset).safeTransfer(\n                address(_feesCollector),\n                feesQty\n            );\n            \n            return _totalBalance - feesQty;\n        }\n        return _totalBalance;\n    }\n\n    /**\n     * _computeAssetAvgCost computes the asset avg cost\n     * @param _asset asset to compute the avg cost\n     * @param _depositAmount amount the user is depositing\n     */\n    function _computeAssetAvgCost(address _asset, uint256 _depositAmount)\n        private\n        view\n        returns (uint256)\n    {\n        uint256 totalQty = depositedBalance[_asset] + _depositAmount;\n        require(totalQty > 0, \"No quantity!\");\n        uint256 currentTotalValue = depositedBalance[_asset] *\n            assetAvgCost[_asset];\n\n        uint256 lastPrice = _priceFeed.getLatestPrice(_asset);\n\n        uint256 depositTotalValue = _depositAmount * lastPrice;\n\n        return (depositTotalValue + currentTotalValue) / totalQty;\n    }\n\n    /**\n     * _computeRealAvgCost computes the real avg cost for the user, ie: including aToken rewards.\n     * @param _asset address of the asset\n     * @param _totalBalance total balance = deposited + rewards\n     * @return the real avg cost\n     */\n    function _computeRealAvgCost(address _asset, uint256 _totalBalance)\n        private\n        view\n        returns (uint256)\n    {\n        uint256 totalDepositedValue = depositedBalance[_asset] *\n            assetAvgCost[_asset];\n        if (IERC20Metadata(_asset).decimals() < 18) {\n            // aToken have 18 decimals\n            uint256 decimalsToAdd = 10**IERC20Metadata(_asset).decimals() /\n                10**18;\n            totalDepositedValue = totalDepositedValue * decimalsToAdd;\n        }\n\n        return totalDepositedValue / _totalBalance;\n    }\n}\n",
  "sourcePath": "/Users/guillaumedebavelaere/alyra/projects/HelloDefi/truffle/contracts/HelloDefiAAVE2.sol",
  "compiler": {
    "name": "solc",
    "version": "0.8.17+commit.8df45f5f.Emscripten.clang"
  },
  "schemaVersion": "3.4.11",
  "updatedAt": "2022-12-10T11:16:14.187Z",
  "devdoc": {
    "details": "This smart contract interacts with AAVE protocol v2.It is created as a clone from the HelloDefiAAVE2Factory.",
    "kind": "dev",
    "methods": {
      "deposit(address,uint256)": {
        "details": "Deposits an `amount` of underlying asset into this smart contract. Referal fees are applied. Then the smart contract deposits the (amount - fees) into AAVE in behalf of the user, receiving in return overlying aTokens in the smart contract. - E.g. User deposits 100 USDC to the SC and the SC will deposit into AAVE 98 USDC to get in return 98 aUSDC (received into the SC). Before calling this function, it requires the user to approve this smart contract to spend his asset.",
        "params": {
          "_amount": "The amount to be deposited.*",
          "_asset": "The address of the underlying asset to deposit."
        }
      },
      "initialize(address,address,address,address,address)": {
        "details": "As HelloDefiAAVE2 is used as a Clone, there is no constructor.Call this function to initialize the clone instead.",
        "params": {
          "_aaveLendingPoolAddress": "aave lending pool smart contract address",
          "_aaveProtocolDataProviderAddress": "aave protocol data provider smart contract address",
          "_feesCollectorAddress": "fees collector smart contract address",
          "_priceFeedAddress": "price feed address",
          "_user": "is the adress of the owner of this initialized clone"
        }
      },
      "owner()": {
        "details": "Returns the address of the current owner."
      },
      "renounceOwnership()": {
        "details": "Leaves the contract without owner. It will not be possible to call `onlyOwner` functions anymore. Can only be called by the current owner. NOTE: Renouncing ownership will leave the contract without an owner, thereby removing any functionality that is only available to the owner."
      },
      "transferOwnership(address)": {
        "details": "Transfers ownership of the contract to a new account (`newOwner`). Can only be called by the current owner."
      },
      "withdraw(address,uint256)": {
        "details": "Withdraws an `amount` of underlying _asset from the AAVE reserve, burning the equivalent aTokens owned by the smart contract E.g. Smart contract has 100 aUSDC, calls withdraw() and receives 100 USDC, burning the 100 aUSDC. 100 USDC are then returned to the user (msg.sender)",
        "params": {
          "_amount": "The underlying amount to be withdrawn*",
          "_asset": "The address of the underlying asset to withdraw"
        }
      }
    },
    "title": "HelloDefiAAVE2",
    "version": 1
  },
  "userdoc": {
    "kind": "user",
    "methods": {},
    "version": 1
  }
}