{
  "contractName": "HelloDefiAAVE2",
  "abi": [
    {
      "inputs": [
        {
          "internalType": "address",
          "name": "aaveILendingPoolAddress",
          "type": "address"
        }
      ],
      "stateMutability": "nonpayable",
      "type": "constructor"
    },
    {
      "inputs": [
        {
          "internalType": "address",
          "name": "",
          "type": "address"
        },
        {
          "internalType": "address",
          "name": "",
          "type": "address"
        }
      ],
      "name": "balances",
      "outputs": [
        {
          "internalType": "uint256",
          "name": "",
          "type": "uint256"
        }
      ],
      "stateMutability": "view",
      "type": "function",
      "constant": true
    },
    {
      "inputs": [
        {
          "internalType": "address",
          "name": "_asset",
          "type": "address"
        },
        {
          "internalType": "uint256",
          "name": "_amount",
          "type": "uint256"
        }
      ],
      "name": "deposit",
      "outputs": [],
      "stateMutability": "nonpayable",
      "type": "function"
    },
    {
      "inputs": [
        {
          "internalType": "address",
          "name": "_asset",
          "type": "address"
        },
        {
          "internalType": "uint256",
          "name": "_amount",
          "type": "uint256"
        }
      ],
      "name": "withdraw",
      "outputs": [],
      "stateMutability": "nonpayable",
      "type": "function"
    }
  ],
  "bytecode": "0x608060405234801561001057600080fd5b50604051610cf9380380610cf9833981810160405281019061003291906100db565b806000806101000a81548173ffffffffffffffffffffffffffffffffffffffff021916908373ffffffffffffffffffffffffffffffffffffffff16021790555050610108565b600080fd5b600073ffffffffffffffffffffffffffffffffffffffff82169050919050565b60006100a88261007d565b9050919050565b6100b88161009d565b81146100c357600080fd5b50565b6000815190506100d5816100af565b92915050565b6000602082840312156100f1576100f0610078565b5b60006100ff848285016100c6565b91505092915050565b610be2806101176000396000f3fe608060405234801561001057600080fd5b50600436106100415760003560e01c806347e7ef2414610046578063c23f001f14610062578063f3fef3a314610092575b600080fd5b610060600480360381019061005b91906106e5565b6100ae565b005b61007c60048036038101906100779190610725565b610373565b6040516100899190610774565b60405180910390f35b6100ac60048036038101906100a791906106e5565b610398565b005b8173ffffffffffffffffffffffffffffffffffffffff166323b872dd3330846040518463ffffffff1660e01b81526004016100eb9392919061079e565b6020604051808303816000875af115801561010a573d6000803e3d6000fd5b505050506040513d601f19601f8201168201806040525081019061012e919061080d565b61016d576040517f08c379a0000000000000000000000000000000000000000000000000000000008152600401610164906108bd565b60405180910390fd5b8173ffffffffffffffffffffffffffffffffffffffff1663095ea7b360008054906101000a900473ffffffffffffffffffffffffffffffffffffffff16836040518363ffffffff1660e01b81526004016101c89291906108dd565b6020604051808303816000875af11580156101e7573d6000803e3d6000fd5b505050506040513d601f19601f8201168201806040525081019061020b919061080d565b61024a576040517f08c379a000000000000000000000000000000000000000000000000000000000815260040161024190610952565b60405180910390fd5b80600160003373ffffffffffffffffffffffffffffffffffffffff1673ffffffffffffffffffffffffffffffffffffffff16815260200190815260200160002060008473ffffffffffffffffffffffffffffffffffffffff1673ffffffffffffffffffffffffffffffffffffffff16815260200190815260200160002060008282546102d691906109a1565b9250508190555060008054906101000a900473ffffffffffffffffffffffffffffffffffffffff1673ffffffffffffffffffffffffffffffffffffffff1663e8eda9df83833060006040518563ffffffff1660e01b815260040161033d9493929190610a28565b600060405180830381600087803b15801561035757600080fd5b505af115801561036b573d6000803e3d6000fd5b505050505050565b6001602052816000526040600020602052806000526040600020600091509150505481565b60008054906101000a900473ffffffffffffffffffffffffffffffffffffffff1673ffffffffffffffffffffffffffffffffffffffff166369328dec8383306040518463ffffffff1660e01b81526004016103f593929190610a6d565b6020604051808303816000875af1158015610414573d6000803e3d6000fd5b505050506040513d601f19601f820116820180604052508101906104389190610ab9565b508173ffffffffffffffffffffffffffffffffffffffff1663095ea7b330836040518363ffffffff1660e01b81526004016104749291906108dd565b6020604051808303816000875af1158015610493573d6000803e3d6000fd5b505050506040513d601f19601f820116820180604052508101906104b7919061080d565b6104f6576040517f08c379a00000000000000000000000000000000000000000000000000000000081526004016104ed90610952565b60405180910390fd5b80600160003373ffffffffffffffffffffffffffffffffffffffff1673ffffffffffffffffffffffffffffffffffffffff16815260200190815260200160002060008473ffffffffffffffffffffffffffffffffffffffff1673ffffffffffffffffffffffffffffffffffffffff16815260200190815260200160002060008282546105829190610ae6565b925050819055508173ffffffffffffffffffffffffffffffffffffffff166323b872dd3033846040518463ffffffff1660e01b81526004016105c69392919061079e565b6020604051808303816000875af11580156105e5573d6000803e3d6000fd5b505050506040513d601f19601f82011682018060405250810190610609919061080d565b610648576040517f08c379a000000000000000000000000000000000000000000000000000000000815260040161063f90610b8c565b60405180910390fd5b5050565b600080fd5b600073ffffffffffffffffffffffffffffffffffffffff82169050919050565b600061067c82610651565b9050919050565b61068c81610671565b811461069757600080fd5b50565b6000813590506106a981610683565b92915050565b6000819050919050565b6106c2816106af565b81146106cd57600080fd5b50565b6000813590506106df816106b9565b92915050565b600080604083850312156106fc576106fb61064c565b5b600061070a8582860161069a565b925050602061071b858286016106d0565b9150509250929050565b6000806040838503121561073c5761073b61064c565b5b600061074a8582860161069a565b925050602061075b8582860161069a565b9150509250929050565b61076e816106af565b82525050565b60006020820190506107896000830184610765565b92915050565b61079881610671565b82525050565b60006060820190506107b3600083018661078f565b6107c0602083018561078f565b6107cd6040830184610765565b949350505050565b60008115159050919050565b6107ea816107d5565b81146107f557600080fd5b50565b600081519050610807816107e1565b92915050565b6000602082840312156108235761082261064c565b5b6000610831848285016107f8565b91505092915050565b600082825260208201905092915050565b7f4572726f72207472616e736665722066726f6d207573657220746f20736d617260008201527f7420636f6e747261637400000000000000000000000000000000000000000000602082015250565b60006108a7602a8361083a565b91506108b28261084b565b604082019050919050565b600060208201905081810360008301526108d68161089a565b9050919050565b60006040820190506108f2600083018561078f565b6108ff6020830184610765565b9392505050565b7f4572726f7220736d61727420636f6e747261637420617070726f76616c000000600082015250565b600061093c601d8361083a565b915061094782610906565b602082019050919050565b6000602082019050818103600083015261096b8161092f565b9050919050565b7f4e487b7100000000000000000000000000000000000000000000000000000000600052601160045260246000fd5b60006109ac826106af565b91506109b7836106af565b92508282019050808211156109cf576109ce610972565b5b92915050565b6000819050919050565b600061ffff82169050919050565b6000819050919050565b6000610a12610a0d610a08846109d5565b6109ed565b6109df565b9050919050565b610a22816109f7565b82525050565b6000608082019050610a3d600083018761078f565b610a4a6020830186610765565b610a57604083018561078f565b610a646060830184610a19565b95945050505050565b6000606082019050610a82600083018661078f565b610a8f6020830185610765565b610a9c604083018461078f565b949350505050565b600081519050610ab3816106b9565b92915050565b600060208284031215610acf57610ace61064c565b5b6000610add84828501610aa4565b91505092915050565b6000610af1826106af565b9150610afc836106af565b9250828203905081811115610b1457610b13610972565b5b92915050565b7f4572726f72207472616e736665722066726f6d20736d61727420636f6e74726160008201527f637420746f207573657200000000000000000000000000000000000000000000602082015250565b6000610b76602a8361083a565b9150610b8182610b1a565b604082019050919050565b60006020820190508181036000830152610ba581610b69565b905091905056fea264697066735822122083eed1bc7ac44e4c8db8c253749e9cde3468095d4b0bc280ae57a003b7a1b41964736f6c63430008110033",
  "immutableReferences": {},
  "source": "// SPDX-License-Identifier: MIT\npragma solidity 0.8.17;\n\nimport \"./ILendingPoolAAVE2.sol\";\nimport \"@openzeppelin/contracts/interfaces/IERC20.sol\";\n\n/**\n * @title HelloDefiAAVE2\n * @dev This smart contract interacts with AAVE protocol v2\n */\ncontract HelloDefiAAVE2 {\n    ILendingPoolAAVE2 private _aaveLendingPool;\n\n    // mapping to keep track of the user's balance: user's adress => (asset address => asset qty).\n    mapping(address => mapping(address => uint256)) public balances;\n\n    constructor(address aaveILendingPoolAddress) {\n        _aaveLendingPool = ILendingPoolAAVE2(aaveILendingPoolAddress);\n    }\n\n    /**\n     * @dev Deposits an `amount` of underlying asset into AAVE in behalf of the user, receiving in return overlying aTokens in the smart contract.\n     * - E.g. User deposits 100 USDC to the SC and the SC will deposit into AAVE 100 USDC to get in return 100 aUSDC (received into the SC).\n     * Before calling this function, it requires the user to approve this smart contract to spend his asset.\n     * @param _asset The address of the underlying asset to deposit.\n     * @param _amount The amount to be deposited.\n     **/\n    function deposit(address _asset, uint256 _amount) external {\n        // Transfers the asset from user's wallet to this smart contract\n        if (!IERC20(_asset).transferFrom(msg.sender, address(this), _amount)) {\n            revert(\"Error transfer from user to smart contract\");\n        }\n\n        // Approval to allow aave to spend the user's asset\n        if (!IERC20(_asset).approve(address(_aaveLendingPool), _amount)) {\n            revert(\"Error smart contract approval\");\n        }\n\n        // keep track of the user's balance\n        balances[msg.sender][_asset] += _amount;\n        // This smart contract deposits to AAVE in behalf of the user\n        _aaveLendingPool.deposit(_asset, _amount, address(this), 0);\n    }\n\n    function withdraw(\n        address _asset,\n        uint256 _amount\n    ) external {\n        // This smart contract withdraw from AAVE in behalf of the user\n        _aaveLendingPool.withdraw(_asset, _amount, address(this));\n\n        // Approval to allow aave to spend this smart contract asset\n        if (!IERC20(_asset).approve(address(this), _amount)) {\n            revert(\"Error smart contract approval\");\n        }\n        // keep track of the user's balance\n        balances[msg.sender][_asset] -= _amount;\n\n        //Transfers the asset from this smart contract to user's wallet\n        if (!IERC20(_asset).transferFrom(address(this), msg.sender, _amount)) {\n            revert(\"Error transfer from smart contract to user\");\n        }\n    }\n}\n",
  "sourcePath": "/Users/guillaumedebavelaere/alyra/projects/HelloDefi/truffle/contracts/HelloDefiAAVE2.sol",
  "compiler": {
    "name": "solc",
    "version": "0.8.17+commit.8df45f5f.Emscripten.clang"
  },
  "schemaVersion": "3.4.10",
  "updatedAt": "2022-12-02T17:26:57.700Z",
  "networkType": "ethereum",
  "devdoc": {
    "details": "This smart contract interacts with AAVE protocol v2",
    "kind": "dev",
    "methods": {
      "deposit(address,uint256)": {
        "details": "Deposits an `amount` of underlying asset into AAVE in behalf of the user, receiving in return overlying aTokens in the smart contract. - E.g. User deposits 100 USDC to the SC and the SC will deposit into AAVE 100 USDC to get in return 100 aUSDC (received into the SC). Before calling this function, it requires the user to approve this smart contract to spend his asset.",
        "params": {
          "_amount": "The amount to be deposited.*",
          "_asset": "The address of the underlying asset to deposit."
        }
      }
    },
    "title": "HelloDefiAAVE2",
    "version": 1
  },
  "userdoc": {
    "kind": "user",
    "methods": {},
    "version": 1
  }
}