{
  "contractName": "HelloDefiAAVE2Factory",
  "abi": [
    {
      "inputs": [
        {
          "internalType": "address",
          "name": "_aaveLendingPoolAddress",
          "type": "address"
        },
        {
          "internalType": "address",
          "name": "_aaveProtocolDataProviderAddress",
          "type": "address"
        },
        {
          "internalType": "address",
          "name": "_priceFeedAddress",
          "type": "address"
        },
        {
          "internalType": "address",
          "name": "_feesManagerAddress",
          "type": "address"
        }
      ],
      "stateMutability": "nonpayable",
      "type": "constructor"
    },
    {
      "anonymous": false,
      "inputs": [
        {
          "indexed": true,
          "internalType": "address",
          "name": "_owner",
          "type": "address"
        },
        {
          "indexed": false,
          "internalType": "address",
          "name": "_clone",
          "type": "address"
        }
      ],
      "name": "CloneCreated",
      "type": "event"
    },
    {
      "inputs": [
        {
          "internalType": "address",
          "name": "",
          "type": "address"
        }
      ],
      "name": "userContracts",
      "outputs": [
        {
          "internalType": "address",
          "name": "",
          "type": "address"
        }
      ],
      "stateMutability": "view",
      "type": "function"
    },
    {
      "inputs": [],
      "name": "createClone",
      "outputs": [],
      "stateMutability": "nonpayable",
      "type": "function"
    }
  ],
  "bytecode": "0x61012060405234801561001157600080fd5b50604051612f9f380380612f9f833981810160405281019061003391906101d9565b60405161003f90610169565b604051809103906000f08015801561005b573d6000803e3d6000fd5b5073ffffffffffffffffffffffffffffffffffffffff1660808173ffffffffffffffffffffffffffffffffffffffff16815250508373ffffffffffffffffffffffffffffffffffffffff1660a08173ffffffffffffffffffffffffffffffffffffffff16815250508273ffffffffffffffffffffffffffffffffffffffff1660c08173ffffffffffffffffffffffffffffffffffffffff16815250508173ffffffffffffffffffffffffffffffffffffffff1660e08173ffffffffffffffffffffffffffffffffffffffff16815250508073ffffffffffffffffffffffffffffffffffffffff166101008173ffffffffffffffffffffffffffffffffffffffff168152505050505050610240565b61280d8061079283390190565b600080fd5b600073ffffffffffffffffffffffffffffffffffffffff82169050919050565b60006101a68261017b565b9050919050565b6101b68161019b565b81146101c157600080fd5b50565b6000815190506101d3816101ad565b92915050565b600080600080608085870312156101f3576101f2610176565b5b6000610201878288016101c4565b9450506020610212878288016101c4565b9350506040610223878288016101c4565b9250506060610234878288016101c4565b91505092959194509250565b60805160a05160c05160e05161010051610510610282600039600061015601526000610135015260006101140152600060f30152600060af01526105106000f3fe608060405234801561001057600080fd5b50600436106100365760003560e01c80630687b7851461003b57806364f2d4b91461006b575b600080fd5b610055600480360381019061005091906103b3565b610075565b60405161006291906103ef565b60405180910390f35b6100736100a8565b005b60006020528060005260406000206000915054906101000a900473ffffffffffffffffffffffffffffffffffffffff1681565b60006100d37f0000000000000000000000000000000000000000000000000000000000000000610296565b90508073ffffffffffffffffffffffffffffffffffffffff16631459457a7f00000000000000000000000000000000000000000000000000000000000000007f00000000000000000000000000000000000000000000000000000000000000007f00000000000000000000000000000000000000000000000000000000000000007f0000000000000000000000000000000000000000000000000000000000000000336040518663ffffffff1660e01b815260040161019695949392919061040a565b600060405180830381600087803b1580156101b057600080fd5b505af11580156101c4573d6000803e3d6000fd5b50505050806000803373ffffffffffffffffffffffffffffffffffffffff1673ffffffffffffffffffffffffffffffffffffffff16815260200190815260200160002060006101000a81548173ffffffffffffffffffffffffffffffffffffffff021916908373ffffffffffffffffffffffffffffffffffffffff1602179055503373ffffffffffffffffffffffffffffffffffffffff167f3d2b821286d97aa9d35330d87a82f7b548b9737b10e2d1ba59994edfd50e9d2b8260405161028b91906103ef565b60405180910390a250565b6000763d602d80600a3d3981f3363d3d373d3d3d363d730000008260601b60e81c176000526e5af43d82803e903d91602b57fd5bf38260781b17602052603760096000f09050600073ffffffffffffffffffffffffffffffffffffffff168173ffffffffffffffffffffffffffffffffffffffff160361034b576040517f08c379a0000000000000000000000000000000000000000000000000000000008152600401610342906104ba565b60405180910390fd5b919050565b600080fd5b600073ffffffffffffffffffffffffffffffffffffffff82169050919050565b600061038082610355565b9050919050565b61039081610375565b811461039b57600080fd5b50565b6000813590506103ad81610387565b92915050565b6000602082840312156103c9576103c8610350565b5b60006103d78482850161039e565b91505092915050565b6103e981610375565b82525050565b600060208201905061040460008301846103e0565b92915050565b600060a08201905061041f60008301886103e0565b61042c60208301876103e0565b61043960408301866103e0565b61044660608301856103e0565b61045360808301846103e0565b9695505050505050565b600082825260208201905092915050565b7f455243313136373a20637265617465206661696c656400000000000000000000600082015250565b60006104a460168361045d565b91506104af8261046e565b602082019050919050565b600060208201905081810360008301526104d381610497565b905091905056fea264697066735822122051de5cdec094f8b96bc94aaac8f7a2fa1ae33d6d9d6b33c56f89d43012b73ccd64736f6c6343000811003360806040523480156200001157600080fd5b5062000032620000266200003860201b60201c565b6200004060201b60201c565b62000104565b600033905090565b60008060009054906101000a900473ffffffffffffffffffffffffffffffffffffffff169050816000806101000a81548173ffffffffffffffffffffffffffffffffffffffff021916908373ffffffffffffffffffffffffffffffffffffffff1602179055508173ffffffffffffffffffffffffffffffffffffffff168173ffffffffffffffffffffffffffffffffffffffff167f8be0079c531659141344cd1fd0a4f28419497f9722a3daafe3b4186f6b6457e060405160405180910390a35050565b6126f980620001146000396000f3fe608060405234801561001057600080fd5b50600436106100885760003560e01c80638da5cb5b1161005b5780638da5cb5b146100ff578063cfe69a051461011d578063f2fde38b1461014d578063f3fef3a31461016957610088565b80631459457a1461008d57806347e7ef24146100a9578063715018a6146100c55780638810a2f9146100cf575b600080fd5b6100a760048036038101906100a2919061175d565b610185565b005b6100c360048036038101906100be919061180e565b6103d2565b005b6100cd61062f565b005b6100e960048036038101906100e4919061184e565b610643565b6040516100f6919061188a565b60405180910390f35b61010761065b565b60405161011491906118b4565b60405180910390f35b6101376004803603810190610132919061184e565b610684565b604051610144919061188a565b60405180910390f35b6101676004803603810190610162919061184e565b61069c565b005b610183600480360381019061017e919061180e565b61071f565b005b60008060159054906101000a900460ff161590508080156101b857506001600060149054906101000a900460ff1660ff16105b806101e757506101c730610b3b565b1580156101e657506001600060149054906101000a900460ff1660ff16145b5b610226576040517f08c379a000000000000000000000000000000000000000000000000000000000815260040161021d90611952565b60405180910390fd5b6001600060146101000a81548160ff021916908360ff1602179055508015610264576001600060156101000a81548160ff0219169083151502179055505b85600160006101000a81548173ffffffffffffffffffffffffffffffffffffffff021916908373ffffffffffffffffffffffffffffffffffffffff16021790555084600260006101000a81548173ffffffffffffffffffffffffffffffffffffffff021916908373ffffffffffffffffffffffffffffffffffffffff16021790555083600360006101000a81548173ffffffffffffffffffffffffffffffffffffffff021916908373ffffffffffffffffffffffffffffffffffffffff16021790555082600460006101000a81548173ffffffffffffffffffffffffffffffffffffffff021916908373ffffffffffffffffffffffffffffffffffffffff16021790555061037182610b5e565b80156103ca5760008060156101000a81548160ff0219169083151502179055507f7f26b83ff96e1f2b6a682f133852f6798a09c465da95921460cefb384740249860016040516103c191906119c4565b60405180910390a15b505050505050565b6103da610c22565b6000811161041d576040517f08c379a000000000000000000000000000000000000000000000000000000000815260040161041490611a2b565b60405180910390fd5b61044a3330838573ffffffffffffffffffffffffffffffffffffffff16610ca0909392919063ffffffff16565b60006104568383610d29565b90506104628382610de4565b600660008573ffffffffffffffffffffffffffffffffffffffff1673ffffffffffffffffffffffffffffffffffffffff1681526020019081526020016000208190555080600560008573ffffffffffffffffffffffffffffffffffffffff1673ffffffffffffffffffffffffffffffffffffffff16815260200190815260200160002060008282546104f49190611a7a565b92505081905550610548600160009054906101000a900473ffffffffffffffffffffffffffffffffffffffff16828573ffffffffffffffffffffffffffffffffffffffff16610fd89092919063ffffffff16565b600160009054906101000a900473ffffffffffffffffffffffffffffffffffffffff1673ffffffffffffffffffffffffffffffffffffffff1663e8eda9df84833060006040518563ffffffff1660e01b81526004016105aa9493929190611af7565b600060405180830381600087803b1580156105c457600080fd5b505af11580156105d8573d6000803e3d6000fd5b505050508273ffffffffffffffffffffffffffffffffffffffff167fe1fffcc4923d04b559f4d29a8bfc6cda04eb5b0d3c460751c2402c5c5cc9109c82604051610622919061188a565b60405180910390a2505050565b610637610c22565b6106416000610b5e565b565b60066020528060005260406000206000915090505481565b60008060009054906101000a900473ffffffffffffffffffffffffffffffffffffffff16905090565b60056020528060005260406000206000915090505481565b6106a4610c22565b600073ffffffffffffffffffffffffffffffffffffffff168173ffffffffffffffffffffffffffffffffffffffff1603610713576040517f08c379a000000000000000000000000000000000000000000000000000000000815260040161070a90611bae565b60405180910390fd5b61071c81610b5e565b50565b610727610c22565b6000811161076a576040517f08c379a000000000000000000000000000000000000000000000000000000000815260040161076190611c1a565b60405180910390fd5b6000600260009054906101000a900473ffffffffffffffffffffffffffffffffffffffff1673ffffffffffffffffffffffffffffffffffffffff166328dd2d0184306040518363ffffffff1660e01b81526004016107c9929190611c3a565b61012060405180830381865afa1580156107e7573d6000803e3d6000fd5b505050506040513d601f19601f8201168201806040525081019061080b9190611ced565b5050505050505050905080821115610858576040517f08c379a000000000000000000000000000000000000000000000000000000000815260040161084f90611e03565b60405180910390fd5b6000600360009054906101000a900473ffffffffffffffffffffffffffffffffffffffff1673ffffffffffffffffffffffffffffffffffffffff166316345f18856040518263ffffffff1660e01b81526004016108b591906118b4565b602060405180830381865afa1580156108d2573d6000803e3d6000fd5b505050506040513d601f19601f820116820180604052508101906108f69190611e23565b905060006109058584846110ea565b90508084111561091757809350600091505b6000600160009054906101000a900473ffffffffffffffffffffffffffffffffffffffff1673ffffffffffffffffffffffffffffffffffffffff166369328dec8787306040518463ffffffff1660e01b815260040161097893929190611e50565b6020604051808303816000875af1158015610997573d6000803e3d6000fd5b505050506040513d601f19601f820116820180604052508101906109bb9190611e23565b116109fb576040517f08c379a00000000000000000000000000000000000000000000000000000000081526004016109f290611ed3565b60405180910390fd5b8381610a079190611ef3565b600560008773ffffffffffffffffffffffffffffffffffffffff1673ffffffffffffffffffffffffffffffffffffffff1681526020019081526020016000208190555081600660008773ffffffffffffffffffffffffffffffffffffffff1673ffffffffffffffffffffffffffffffffffffffff16815260200190815260200160002081905550610ab930858773ffffffffffffffffffffffffffffffffffffffff16610fd89092919063ffffffff16565b610ae63033868873ffffffffffffffffffffffffffffffffffffffff16610ca0909392919063ffffffff16565b8473ffffffffffffffffffffffffffffffffffffffff167f884edad9ce6fa2440d8a54cc123490eb96d2768479d49ff9c7366125a942436485604051610b2c919061188a565b60405180910390a25050505050565b6000808273ffffffffffffffffffffffffffffffffffffffff163b119050919050565b60008060009054906101000a900473ffffffffffffffffffffffffffffffffffffffff169050816000806101000a81548173ffffffffffffffffffffffffffffffffffffffff021916908373ffffffffffffffffffffffffffffffffffffffff1602179055508173ffffffffffffffffffffffffffffffffffffffff168173ffffffffffffffffffffffffffffffffffffffff167f8be0079c531659141344cd1fd0a4f28419497f9722a3daafe3b4186f6b6457e060405160405180910390a35050565b610c2a61129e565b73ffffffffffffffffffffffffffffffffffffffff16610c4861065b565b73ffffffffffffffffffffffffffffffffffffffff1614610c9e576040517f08c379a0000000000000000000000000000000000000000000000000000000008152600401610c9590611f73565b60405180910390fd5b565b610d23846323b872dd60e01b858585604051602401610cc193929190611f93565b604051602081830303815290604052907bffffffffffffffffffffffffffffffffffffffffffffffffffffffff19166020820180517bffffffffffffffffffffffffffffffffffffffffffffffffffffffff83818316178352505050506112a6565b50505050565b600060648211610d3857600080fd5b60006064600284610d499190611fca565b610d53919061203b565b9050610d8030828673ffffffffffffffffffffffffffffffffffffffff16610fd89092919063ffffffff16565b610dcf30600460009054906101000a900473ffffffffffffffffffffffffffffffffffffffff16838773ffffffffffffffffffffffffffffffffffffffff16610ca0909392919063ffffffff16565b8083610ddb9190611ef3565b91505092915050565b60008082600560008673ffffffffffffffffffffffffffffffffffffffff1673ffffffffffffffffffffffffffffffffffffffff16815260200190815260200160002054610e329190611a7a565b905060008111610e77576040517f08c379a0000000000000000000000000000000000000000000000000000000008152600401610e6e906120b8565b60405180910390fd5b6000600660008673ffffffffffffffffffffffffffffffffffffffff1673ffffffffffffffffffffffffffffffffffffffff16815260200190815260200160002054600560008773ffffffffffffffffffffffffffffffffffffffff1673ffffffffffffffffffffffffffffffffffffffff16815260200190815260200160002054610f039190611fca565b90506000600360009054906101000a900473ffffffffffffffffffffffffffffffffffffffff1673ffffffffffffffffffffffffffffffffffffffff166316345f18876040518263ffffffff1660e01b8152600401610f6291906118b4565b602060405180830381865afa158015610f7f573d6000803e3d6000fd5b505050506040513d601f19601f82011682018060405250810190610fa39190611e23565b905060008186610fb39190611fca565b9050838382610fc29190611a7a565b610fcc919061203b565b94505050505092915050565b6000818473ffffffffffffffffffffffffffffffffffffffff1663dd62ed3e30866040518363ffffffff1660e01b8152600401611016929190611c3a565b602060405180830381865afa158015611033573d6000803e3d6000fd5b505050506040513d601f19601f820116820180604052508101906110579190611e23565b6110619190611a7a565b90506110e48463095ea7b360e01b85846040516024016110829291906120d8565b604051602081830303815290604052907bffffffffffffffffffffffffffffffffffffffffffffffffffffffff19166020820180517bffffffffffffffffffffffffffffffffffffffffffffffffffffffff83818316178352505050506112a6565b50505050565b6000806110f7858561136d565b90506000670de0b6b3a7640000858386611111919061210b565b61111b919061214e565b61112591906121c6565b905060648113156112915760006064600a836111419190611fca565b61114b919061203b565b90506000868261115b919061203b565b9050600160009054906101000a900473ffffffffffffffffffffffffffffffffffffffff1673ffffffffffffffffffffffffffffffffffffffff166369328dec8983306040518463ffffffff1660e01b81526004016111bc93929190611e50565b6020604051808303816000875af11580156111db573d6000803e3d6000fd5b505050506040513d601f19601f820116820180604052508101906111ff9190611e23565b5061122b30828a73ffffffffffffffffffffffffffffffffffffffff16610fd89092919063ffffffff16565b61127a30600460009054906101000a900473ffffffffffffffffffffffffffffffffffffffff16838b73ffffffffffffffffffffffffffffffffffffffff16610ca0909392919063ffffffff16565b80876112869190611ef3565b945050505050611297565b84925050505b9392505050565b600033905090565b6000611308826040518060400160405280602081526020017f5361666545524332303a206c6f772d6c6576656c2063616c6c206661696c65648152508573ffffffffffffffffffffffffffffffffffffffff1661152d9092919063ffffffff16565b905060008151111561136857808060200190518101906113289190612230565b611367576040517f08c379a000000000000000000000000000000000000000000000000000000000815260040161135e906122cf565b60405180910390fd5b5b505050565b600080600660008573ffffffffffffffffffffffffffffffffffffffff1673ffffffffffffffffffffffffffffffffffffffff16815260200190815260200160002054600560008673ffffffffffffffffffffffffffffffffffffffff1673ffffffffffffffffffffffffffffffffffffffff168152602001908152602001600020546113fa9190611fca565b905060128473ffffffffffffffffffffffffffffffffffffffff1663313ce5676040518163ffffffff1660e01b8152600401602060405180830381865afa158015611449573d6000803e3d6000fd5b505050506040513d601f19601f8201168201806040525081019061146d919061231b565b60ff161015611518576000670de0b6b3a76400008573ffffffffffffffffffffffffffffffffffffffff1663313ce5676040518163ffffffff1660e01b8152600401602060405180830381865afa1580156114cc573d6000803e3d6000fd5b505050506040513d601f19601f820116820180604052508101906114f0919061231b565b600a6114fc919061247b565b611506919061203b565b905080826115149190611fca565b9150505b8281611524919061203b565b91505092915050565b606061153c8484600085611545565b90509392505050565b60608247101561158a576040517f08c379a000000000000000000000000000000000000000000000000000000000815260040161158190612538565b60405180910390fd5b6000808673ffffffffffffffffffffffffffffffffffffffff1685876040516115b391906125c9565b60006040518083038185875af1925050503d80600081146115f0576040519150601f19603f3d011682016040523d82523d6000602084013e6115f5565b606091505b509150915061160687838387611612565b92505050949350505050565b6060831561167457600083510361166c5761162c85611687565b61166b576040517f08c379a00000000000000000000000000000000000000000000000000000000081526004016116629061262c565b60405180910390fd5b5b82905061167f565b61167e83836116aa565b5b949350505050565b6000808273ffffffffffffffffffffffffffffffffffffffff163b119050919050565b6000825111156116bd5781518083602001fd5b806040517f08c379a00000000000000000000000000000000000000000000000000000000081526004016116f191906126a1565b60405180910390fd5b600080fd5b600073ffffffffffffffffffffffffffffffffffffffff82169050919050565b600061172a826116ff565b9050919050565b61173a8161171f565b811461174557600080fd5b50565b60008135905061175781611731565b92915050565b600080600080600060a08688031215611779576117786116fa565b5b600061178788828901611748565b955050602061179888828901611748565b94505060406117a988828901611748565b93505060606117ba88828901611748565b92505060806117cb88828901611748565b9150509295509295909350565b6000819050919050565b6117eb816117d8565b81146117f657600080fd5b50565b600081359050611808816117e2565b92915050565b60008060408385031215611825576118246116fa565b5b600061183385828601611748565b9250506020611844858286016117f9565b9150509250929050565b600060208284031215611864576118636116fa565b5b600061187284828501611748565b91505092915050565b611884816117d8565b82525050565b600060208201905061189f600083018461187b565b92915050565b6118ae8161171f565b82525050565b60006020820190506118c960008301846118a5565b92915050565b600082825260208201905092915050565b7f496e697469616c697a61626c653a20636f6e747261637420697320616c72656160008201527f647920696e697469616c697a6564000000000000000000000000000000000000602082015250565b600061193c602e836118cf565b9150611947826118e0565b604082019050919050565b6000602082019050818103600083015261196b8161192f565b9050919050565b6000819050919050565b600060ff82169050919050565b6000819050919050565b60006119ae6119a96119a484611972565b611989565b61197c565b9050919050565b6119be81611993565b82525050565b60006020820190506119d960008301846119b5565b92915050565b7f616d6f756e74206d757374206265203e20302100000000000000000000000000600082015250565b6000611a156013836118cf565b9150611a20826119df565b602082019050919050565b60006020820190508181036000830152611a4481611a08565b9050919050565b7f4e487b7100000000000000000000000000000000000000000000000000000000600052601160045260246000fd5b6000611a85826117d8565b9150611a90836117d8565b9250828201905080821115611aa857611aa7611a4b565b5b92915050565b6000819050919050565b600061ffff82169050919050565b6000611ae1611adc611ad784611aae565b611989565b611ab8565b9050919050565b611af181611ac6565b82525050565b6000608082019050611b0c60008301876118a5565b611b19602083018661187b565b611b2660408301856118a5565b611b336060830184611ae8565b95945050505050565b7f4f776e61626c653a206e6577206f776e657220697320746865207a65726f206160008201527f6464726573730000000000000000000000000000000000000000000000000000602082015250565b6000611b986026836118cf565b9150611ba382611b3c565b604082019050919050565b60006020820190508181036000830152611bc781611b8b565b9050919050565b7f5f616d6f756e74206d757374206265203e203021000000000000000000000000600082015250565b6000611c046014836118cf565b9150611c0f82611bce565b602082019050919050565b60006020820190508181036000830152611c3381611bf7565b9050919050565b6000604082019050611c4f60008301856118a5565b611c5c60208301846118a5565b9392505050565b600081519050611c72816117e2565b92915050565b600064ffffffffff82169050919050565b611c9281611c78565b8114611c9d57600080fd5b50565b600081519050611caf81611c89565b92915050565b60008115159050919050565b611cca81611cb5565b8114611cd557600080fd5b50565b600081519050611ce781611cc1565b92915050565b60008060008060008060008060006101208a8c031215611d1057611d0f6116fa565b5b6000611d1e8c828d01611c63565b9950506020611d2f8c828d01611c63565b9850506040611d408c828d01611c63565b9750506060611d518c828d01611c63565b9650506080611d628c828d01611c63565b95505060a0611d738c828d01611c63565b94505060c0611d848c828d01611c63565b93505060e0611d958c828d01611ca0565b925050610100611da78c828d01611cd8565b9150509295985092959850929598565b7f496e73756666696369616e742062616c616e6365000000000000000000000000600082015250565b6000611ded6014836118cf565b9150611df882611db7565b602082019050919050565b60006020820190508181036000830152611e1c81611de0565b9050919050565b600060208284031215611e3957611e386116fa565b5b6000611e4784828501611c63565b91505092915050565b6000606082019050611e6560008301866118a5565b611e72602083018561187b565b611e7f60408301846118a5565b949350505050565b7f30207768697468647261776e2066726f6d204141564521000000000000000000600082015250565b6000611ebd6017836118cf565b9150611ec882611e87565b602082019050919050565b60006020820190508181036000830152611eec81611eb0565b9050919050565b6000611efe826117d8565b9150611f09836117d8565b9250828203905081811115611f2157611f20611a4b565b5b92915050565b7f4f776e61626c653a2063616c6c6572206973206e6f7420746865206f776e6572600082015250565b6000611f5d6020836118cf565b9150611f6882611f27565b602082019050919050565b60006020820190508181036000830152611f8c81611f50565b9050919050565b6000606082019050611fa860008301866118a5565b611fb560208301856118a5565b611fc2604083018461187b565b949350505050565b6000611fd5826117d8565b9150611fe0836117d8565b9250828202611fee816117d8565b9150828204841483151761200557612004611a4b565b5b5092915050565b7f4e487b7100000000000000000000000000000000000000000000000000000000600052601260045260246000fd5b6000612046826117d8565b9150612051836117d8565b9250826120615761206061200c565b5b828204905092915050565b7f4e6f207175616e74697479210000000000000000000000000000000000000000600082015250565b60006120a2600c836118cf565b91506120ad8261206c565b602082019050919050565b600060208201905081810360008301526120d181612095565b9050919050565b60006040820190506120ed60008301856118a5565b6120fa602083018461187b565b9392505050565b6000819050919050565b600061211682612101565b915061212183612101565b925082820390508181126000841216828213600085121516171561214857612147611a4b565b5b92915050565b600061215982612101565b915061216483612101565b925082820261217281612101565b91507f800000000000000000000000000000000000000000000000000000000000000084146000841216156121aa576121a9611a4b565b5b82820584148315176121bf576121be611a4b565b5b5092915050565b60006121d182612101565b91506121dc83612101565b9250826121ec576121eb61200c565b5b600160000383147f80000000000000000000000000000000000000000000000000000000000000008314161561222557612224611a4b565b5b828205905092915050565b600060208284031215612246576122456116fa565b5b600061225484828501611cd8565b91505092915050565b7f5361666545524332303a204552433230206f7065726174696f6e20646964206e60008201527f6f74207375636365656400000000000000000000000000000000000000000000602082015250565b60006122b9602a836118cf565b91506122c48261225d565b604082019050919050565b600060208201905081810360008301526122e8816122ac565b9050919050565b6122f88161197c565b811461230357600080fd5b50565b600081519050612315816122ef565b92915050565b600060208284031215612331576123306116fa565b5b600061233f84828501612306565b91505092915050565b60008160011c9050919050565b6000808291508390505b600185111561239f5780860481111561237b5761237a611a4b565b5b600185161561238a5780820291505b808102905061239885612348565b945061235f565b94509492505050565b6000826123b85760019050612474565b816123c65760009050612474565b81600181146123dc57600281146123e657612415565b6001915050612474565b60ff8411156123f8576123f7611a4b565b5b8360020a91508482111561240f5761240e611a4b565b5b50612474565b5060208310610133831016604e8410600b841016171561244a5782820a90508381111561244557612444611a4b565b5b612474565b6124578484846001612355565b9250905081840481111561246e5761246d611a4b565b5b81810290505b9392505050565b6000612486826117d8565b91506124918361197c565b92506124be7fffffffffffffffffffffffffffffffffffffffffffffffffffffffffffffffff84846123a8565b905092915050565b7f416464726573733a20696e73756666696369656e742062616c616e636520666f60008201527f722063616c6c0000000000000000000000000000000000000000000000000000602082015250565b60006125226026836118cf565b915061252d826124c6565b604082019050919050565b6000602082019050818103600083015261255181612515565b9050919050565b600081519050919050565b600081905092915050565b60005b8381101561258c578082015181840152602081019050612571565b60008484015250505050565b60006125a382612558565b6125ad8185612563565b93506125bd81856020860161256e565b80840191505092915050565b60006125d58284612598565b915081905092915050565b7f416464726573733a2063616c6c20746f206e6f6e2d636f6e7472616374000000600082015250565b6000612616601d836118cf565b9150612621826125e0565b602082019050919050565b6000602082019050818103600083015261264581612609565b9050919050565b600081519050919050565b6000601f19601f8301169050919050565b60006126738261264c565b61267d81856118cf565b935061268d81856020860161256e565b61269681612657565b840191505092915050565b600060208201905081810360008301526126bb8184612668565b90509291505056fea2646970667358221220ef5c5a106b942371a08e96c8e002b166088835c2f7c1052190f82eeba00106e264736f6c63430008110033",
  "immutableReferences": {
    "3111": [
      {
        "length": 32,
        "start": 175
      }
    ],
    "3113": [
      {
        "length": 32,
        "start": 243
      }
    ],
    "3115": [
      {
        "length": 32,
        "start": 276
      }
    ],
    "3117": [
      {
        "length": 32,
        "start": 309
      }
    ],
    "3119": [
      {
        "length": 32,
        "start": 342
      }
    ]
  },
  "source": "// SPDX-License-Identifier: MIT\npragma solidity 0.8.17;\n\nimport \"./ILendingPoolAAVE2.sol\";\nimport \"./HelloDefiAAVE2.sol\";\nimport \"@openzeppelin/contracts/interfaces/IERC20.sol\";\nimport \"@openzeppelin/contracts/proxy/Clones.sol\";\n\n/**\n * @title HelloDefiAAVE2Factory\n * @dev This smart contract creates and keep track of the HelloDefiAAVE2 smart contract using the clone pattern in order to save gas.\n */\ncontract HelloDefiAAVE2Factory {\n    address immutable helloDefiAAVE2TemplateAddress;\n    address immutable aaveLendingPoolAddress;\n    address immutable aaveProtocolDataProviderAddress;\n    address immutable priceFeedAddress;\n    address immutable feesManagerAddress;\n\n    // mapping to keep track of the user smart contracts: user's adress => HelloDefiAAVE2 smart contract.\n    mapping(address => address) public userContracts;\n\n    event CloneCreated(address indexed  _owner, address _clone);\n\n    constructor(\n        address _aaveLendingPoolAddress,\n        address _aaveProtocolDataProviderAddress,\n        address  _priceFeedAddress,\n        address _feesManagerAddress\n    ) {\n        helloDefiAAVE2TemplateAddress = address(new HelloDefiAAVE2());\n        aaveLendingPoolAddress = _aaveLendingPoolAddress;\n        aaveProtocolDataProviderAddress = _aaveProtocolDataProviderAddress;\n        priceFeedAddress =  _priceFeedAddress;\n        feesManagerAddress = _feesManagerAddress;\n    }\n\n    // Create a clone of HelloDefiAAVE2 contract\n    function createClone() external {\n        address clone = Clones.clone(helloDefiAAVE2TemplateAddress);\n        HelloDefiAAVE2(clone).initialize(\n            aaveLendingPoolAddress,\n            aaveProtocolDataProviderAddress,\n            priceFeedAddress,\n            feesManagerAddress,\n            msg.sender\n        );\n        userContracts[msg.sender] = clone;\n        emit CloneCreated(msg.sender, clone);\n    }\n}\n",
  "sourcePath": "/Users/guillaumedebavelaere/alyra/projects/HelloDefi/truffle/contracts/HelloDefiAAVE2Factory.sol",
  "compiler": {
    "name": "solc",
    "version": "0.8.17+commit.8df45f5f.Emscripten.clang"
  },
  "schemaVersion": "3.4.11",
  "updatedAt": "2022-12-05T13:09:56.571Z",
  "devdoc": {
    "details": "This smart contract creates and keep track of the HelloDefiAAVE2 smart contract using the clone pattern in order to save gas.",
    "kind": "dev",
    "methods": {},
    "title": "HelloDefiAAVE2Factory",
    "version": 1
  },
  "userdoc": {
    "kind": "user",
    "methods": {},
    "version": 1
  }
}