{
  "contractName": "HelloDefiAAVE2",
  "abi": [
    {
      "anonymous": false,
      "inputs": [
        {
          "indexed": false,
          "internalType": "uint8",
          "name": "version",
          "type": "uint8"
        }
      ],
      "name": "Initialized",
      "type": "event"
    },
    {
      "anonymous": false,
      "inputs": [
        {
          "indexed": true,
          "internalType": "address",
          "name": "previousOwner",
          "type": "address"
        },
        {
          "indexed": true,
          "internalType": "address",
          "name": "newOwner",
          "type": "address"
        }
      ],
      "name": "OwnershipTransferred",
      "type": "event"
    },
    {
      "inputs": [
        {
          "internalType": "address",
          "name": "",
          "type": "address"
        }
      ],
      "name": "balances",
      "outputs": [
        {
          "internalType": "uint256",
          "name": "",
          "type": "uint256"
        }
      ],
      "stateMutability": "view",
      "type": "function"
    },
    {
      "inputs": [],
      "name": "owner",
      "outputs": [
        {
          "internalType": "address",
          "name": "",
          "type": "address"
        }
      ],
      "stateMutability": "view",
      "type": "function"
    },
    {
      "inputs": [],
      "name": "renounceOwnership",
      "outputs": [],
      "stateMutability": "nonpayable",
      "type": "function"
    },
    {
      "inputs": [
        {
          "internalType": "address",
          "name": "newOwner",
          "type": "address"
        }
      ],
      "name": "transferOwnership",
      "outputs": [],
      "stateMutability": "nonpayable",
      "type": "function"
    },
    {
      "inputs": [
        {
          "internalType": "address",
          "name": "aaveILendingPoolAddress",
          "type": "address"
        },
        {
          "internalType": "address",
          "name": "_user",
          "type": "address"
        }
      ],
      "name": "initialize",
      "outputs": [],
      "stateMutability": "nonpayable",
      "type": "function"
    },
    {
      "inputs": [
        {
          "internalType": "address",
          "name": "_asset",
          "type": "address"
        },
        {
          "internalType": "uint256",
          "name": "_amount",
          "type": "uint256"
        }
      ],
      "name": "deposit",
      "outputs": [],
      "stateMutability": "nonpayable",
      "type": "function"
    },
    {
      "inputs": [
        {
          "internalType": "address",
          "name": "_asset",
          "type": "address"
        },
        {
          "internalType": "uint256",
          "name": "_amount",
          "type": "uint256"
        }
      ],
      "name": "withdraw",
      "outputs": [],
      "stateMutability": "nonpayable",
      "type": "function"
    }
  ],
  "bytecode": "0x608060405234801561001057600080fd5b5061002d61002261003260201b60201c565b61003a60201b60201c565b6100fe565b600033905090565b60008060009054906101000a900473ffffffffffffffffffffffffffffffffffffffff169050816000806101000a81548173ffffffffffffffffffffffffffffffffffffffff021916908373ffffffffffffffffffffffffffffffffffffffff1602179055508173ffffffffffffffffffffffffffffffffffffffff168173ffffffffffffffffffffffffffffffffffffffff167f8be0079c531659141344cd1fd0a4f28419497f9722a3daafe3b4186f6b6457e060405160405180910390a35050565b61133a8061010d6000396000f3fe608060405234801561001057600080fd5b506004361061007d5760003560e01c8063715018a61161005b578063715018a6146100ea5780638da5cb5b146100f4578063f2fde38b14610112578063f3fef3a31461012e5761007d565b806327e235e31461008257806347e7ef24146100b2578063485cc955146100ce575b600080fd5b61009c60048036038101906100979190610b1a565b61014a565b6040516100a99190610b60565b60405180910390f35b6100cc60048036038101906100c79190610ba7565b610162565b005b6100e860048036038101906100e39190610be7565b6103bd565b005b6100f2610544565b005b6100fc610558565b6040516101099190610c36565b60405180910390f35b61012c60048036038101906101279190610b1a565b610581565b005b61014860048036038101906101439190610ba7565b610604565b005b60026020528060005260406000206000915090505481565b61016a61094a565b600081116101ad576040517f08c379a00000000000000000000000000000000000000000000000000000000081526004016101a490610cae565b60405180910390fd5b8173ffffffffffffffffffffffffffffffffffffffff166323b872dd3330846040518463ffffffff1660e01b81526004016101ea93929190610cce565b6020604051808303816000875af1158015610209573d6000803e3d6000fd5b505050506040513d601f19601f8201168201806040525081019061022d9190610d3d565b508173ffffffffffffffffffffffffffffffffffffffff1663095ea7b3600160009054906101000a900473ffffffffffffffffffffffffffffffffffffffff16836040518363ffffffff1660e01b815260040161028b929190610d6a565b6020604051808303816000875af11580156102aa573d6000803e3d6000fd5b505050506040513d601f19601f820116820180604052508101906102ce9190610d3d565b5080600260008473ffffffffffffffffffffffffffffffffffffffff1673ffffffffffffffffffffffffffffffffffffffff168152602001908152602001600020600082825461031e9190610dc2565b92505081905550600160009054906101000a900473ffffffffffffffffffffffffffffffffffffffff1673ffffffffffffffffffffffffffffffffffffffff1663e8eda9df83833060006040518563ffffffff1660e01b81526004016103879493929190610e49565b600060405180830381600087803b1580156103a157600080fd5b505af11580156103b5573d6000803e3d6000fd5b505050505050565b60008060159054906101000a900460ff161590508080156103f057506001600060149054906101000a900460ff1660ff16105b8061041f57506103ff306109c8565b15801561041e57506001600060149054906101000a900460ff1660ff16145b5b61045e576040517f08c379a000000000000000000000000000000000000000000000000000000000815260040161045590610f00565b60405180910390fd5b6001600060146101000a81548160ff021916908360ff160217905550801561049c576001600060156101000a81548160ff0219169083151502179055505b82600160006101000a81548173ffffffffffffffffffffffffffffffffffffffff021916908373ffffffffffffffffffffffffffffffffffffffff1602179055506104e6826109eb565b801561053f5760008060156101000a81548160ff0219169083151502179055507f7f26b83ff96e1f2b6a682f133852f6798a09c465da95921460cefb384740249860016040516105369190610f68565b60405180910390a15b505050565b61054c61094a565b61055660006109eb565b565b60008060009054906101000a900473ffffffffffffffffffffffffffffffffffffffff16905090565b61058961094a565b600073ffffffffffffffffffffffffffffffffffffffff168173ffffffffffffffffffffffffffffffffffffffff16036105f8576040517f08c379a00000000000000000000000000000000000000000000000000000000081526004016105ef90610ff5565b60405180910390fd5b610601816109eb565b50565b61060c61094a565b6000811161064f576040517f08c379a000000000000000000000000000000000000000000000000000000000815260040161064690611061565b60405180910390fd5b600260008373ffffffffffffffffffffffffffffffffffffffff1673ffffffffffffffffffffffffffffffffffffffff168152602001908152602001600020548111156106d1576040517f08c379a00000000000000000000000000000000000000000000000000000000081526004016106c8906110cd565b60405180910390fd5b600160009054906101000a900473ffffffffffffffffffffffffffffffffffffffff1673ffffffffffffffffffffffffffffffffffffffff166369328dec8383306040518463ffffffff1660e01b8152600401610730939291906110ed565b6020604051808303816000875af115801561074f573d6000803e3d6000fd5b505050506040513d601f19601f820116820180604052508101906107739190611139565b508173ffffffffffffffffffffffffffffffffffffffff1663095ea7b330836040518363ffffffff1660e01b81526004016107af929190610d6a565b6020604051808303816000875af11580156107ce573d6000803e3d6000fd5b505050506040513d601f19601f820116820180604052508101906107f29190610d3d565b610831576040517f08c379a0000000000000000000000000000000000000000000000000000000008152600401610828906111b2565b60405180910390fd5b80600260008473ffffffffffffffffffffffffffffffffffffffff1673ffffffffffffffffffffffffffffffffffffffff168152602001908152602001600020600082825461088091906111d2565b925050819055508173ffffffffffffffffffffffffffffffffffffffff166323b872dd3033846040518463ffffffff1660e01b81526004016108c493929190610cce565b6020604051808303816000875af11580156108e3573d6000803e3d6000fd5b505050506040513d601f19601f820116820180604052508101906109079190610d3d565b610946576040517f08c379a000000000000000000000000000000000000000000000000000000000815260040161093d90611278565b60405180910390fd5b5050565b610952610aaf565b73ffffffffffffffffffffffffffffffffffffffff16610970610558565b73ffffffffffffffffffffffffffffffffffffffff16146109c6576040517f08c379a00000000000000000000000000000000000000000000000000000000081526004016109bd906112e4565b60405180910390fd5b565b6000808273ffffffffffffffffffffffffffffffffffffffff163b119050919050565b60008060009054906101000a900473ffffffffffffffffffffffffffffffffffffffff169050816000806101000a81548173ffffffffffffffffffffffffffffffffffffffff021916908373ffffffffffffffffffffffffffffffffffffffff1602179055508173ffffffffffffffffffffffffffffffffffffffff168173ffffffffffffffffffffffffffffffffffffffff167f8be0079c531659141344cd1fd0a4f28419497f9722a3daafe3b4186f6b6457e060405160405180910390a35050565b600033905090565b600080fd5b600073ffffffffffffffffffffffffffffffffffffffff82169050919050565b6000610ae782610abc565b9050919050565b610af781610adc565b8114610b0257600080fd5b50565b600081359050610b1481610aee565b92915050565b600060208284031215610b3057610b2f610ab7565b5b6000610b3e84828501610b05565b91505092915050565b6000819050919050565b610b5a81610b47565b82525050565b6000602082019050610b756000830184610b51565b92915050565b610b8481610b47565b8114610b8f57600080fd5b50565b600081359050610ba181610b7b565b92915050565b60008060408385031215610bbe57610bbd610ab7565b5b6000610bcc85828601610b05565b9250506020610bdd85828601610b92565b9150509250929050565b60008060408385031215610bfe57610bfd610ab7565b5b6000610c0c85828601610b05565b9250506020610c1d85828601610b05565b9150509250929050565b610c3081610adc565b82525050565b6000602082019050610c4b6000830184610c27565b92915050565b600082825260208201905092915050565b7f5f616d6f756e74206d757374206265203e203021000000000000000000000000600082015250565b6000610c98601483610c51565b9150610ca382610c62565b602082019050919050565b60006020820190508181036000830152610cc781610c8b565b9050919050565b6000606082019050610ce36000830186610c27565b610cf06020830185610c27565b610cfd6040830184610b51565b949350505050565b60008115159050919050565b610d1a81610d05565b8114610d2557600080fd5b50565b600081519050610d3781610d11565b92915050565b600060208284031215610d5357610d52610ab7565b5b6000610d6184828501610d28565b91505092915050565b6000604082019050610d7f6000830185610c27565b610d8c6020830184610b51565b9392505050565b7f4e487b7100000000000000000000000000000000000000000000000000000000600052601160045260246000fd5b6000610dcd82610b47565b9150610dd883610b47565b9250828201905080821115610df057610def610d93565b5b92915050565b6000819050919050565b600061ffff82169050919050565b6000819050919050565b6000610e33610e2e610e2984610df6565b610e0e565b610e00565b9050919050565b610e4381610e18565b82525050565b6000608082019050610e5e6000830187610c27565b610e6b6020830186610b51565b610e786040830185610c27565b610e856060830184610e3a565b95945050505050565b7f496e697469616c697a61626c653a20636f6e747261637420697320616c72656160008201527f647920696e697469616c697a6564000000000000000000000000000000000000602082015250565b6000610eea602e83610c51565b9150610ef582610e8e565b604082019050919050565b60006020820190508181036000830152610f1981610edd565b9050919050565b6000819050919050565b600060ff82169050919050565b6000610f52610f4d610f4884610f20565b610e0e565b610f2a565b9050919050565b610f6281610f37565b82525050565b6000602082019050610f7d6000830184610f59565b92915050565b7f4f776e61626c653a206e6577206f776e657220697320746865207a65726f206160008201527f6464726573730000000000000000000000000000000000000000000000000000602082015250565b6000610fdf602683610c51565b9150610fea82610f83565b604082019050919050565b6000602082019050818103600083015261100e81610fd2565b9050919050565b7f5f616d6f756e74206e757374206265203e203021000000000000000000000000600082015250565b600061104b601483610c51565b915061105682611015565b602082019050919050565b6000602082019050818103600083015261107a8161103e565b9050919050565b7f496e73756666696369616e742062616c616e6365000000000000000000000000600082015250565b60006110b7601483610c51565b91506110c282611081565b602082019050919050565b600060208201905081810360008301526110e6816110aa565b9050919050565b60006060820190506111026000830186610c27565b61110f6020830185610b51565b61111c6040830184610c27565b949350505050565b60008151905061113381610b7b565b92915050565b60006020828403121561114f5761114e610ab7565b5b600061115d84828501611124565b91505092915050565b7f4572726f7220736d61727420636f6e747261637420617070726f76616c000000600082015250565b600061119c601d83610c51565b91506111a782611166565b602082019050919050565b600060208201905081810360008301526111cb8161118f565b9050919050565b60006111dd82610b47565b91506111e883610b47565b9250828203905081811115611200576111ff610d93565b5b92915050565b7f4572726f72207472616e736665722066726f6d20736d61727420636f6e74726160008201527f637420746f207573657200000000000000000000000000000000000000000000602082015250565b6000611262602a83610c51565b915061126d82611206565b604082019050919050565b6000602082019050818103600083015261129181611255565b9050919050565b7f4f776e61626c653a2063616c6c6572206973206e6f7420746865206f776e6572600082015250565b60006112ce602083610c51565b91506112d982611298565b602082019050919050565b600060208201905081810360008301526112fd816112c1565b905091905056fea2646970667358221220d8cc5178e2a22e15cbd6a6fb0265bc61794c01103af8591e4842e6f85262036864736f6c63430008110033",
  "immutableReferences": {},
  "source": "// SPDX-License-Identifier: MIT\npragma solidity 0.8.17;\n\nimport \"./ILendingPoolAAVE2.sol\";\nimport \"@openzeppelin/contracts/interfaces/IERC20.sol\";\nimport \"@openzeppelin/contracts/access/Ownable.sol\";\nimport \"@openzeppelin/contracts-upgradeable/proxy/utils/Initializable.sol\";\n\n/**\n * @title HelloDefiAAVE2\n * @dev This smart contract interacts with AAVE protocol v2.\n * @dev It is created as a clone from the HelloDefiAAVE2Factory.\n */\ncontract HelloDefiAAVE2 is Ownable, Initializable {\n    ILendingPoolAAVE2 private _aaveLendingPool;\n\n    // mapping to keep track of the user's balance: asset address => asset qty\n    mapping(address => uint256) public balances;\n\n    /**\n     * @dev As HelloDefiAAVE2 is used as a Clone, there is no constructor.\n     * @dev Call this function to initialize the clone instead.\n     */\n    function initialize(address aaveILendingPoolAddress, address _user)\n        external\n        initializer\n    {\n        _aaveLendingPool = ILendingPoolAAVE2(aaveILendingPoolAddress);\n        _transferOwnership(_user);\n    }\n\n    /**\n     * @dev Deposits an `amount` of underlying asset into AAVE in behalf of the user, receiving in return overlying aTokens in the smart contract.\n     * - E.g. User deposits 100 USDC to the SC and the SC will deposit into AAVE 100 USDC to get in return 100 aUSDC (received into the SC).\n     * Before calling this function, it requires the user to approve this smart contract to spend his asset.\n     * @param _asset The address of the underlying asset to deposit.\n     * @param _amount The amount to be deposited.\n     **/\n    function deposit(address _asset, uint256 _amount) external onlyOwner {\n        require(_amount > 0, \"_amount must be > 0!\");\n\n        // Transfers the asset from user's wallet to this smart contract\n        IERC20(_asset).transferFrom(msg.sender, address(this), _amount);\n\n        // Approval to allow aave to spend the user's asset\n        IERC20(_asset).approve(address(_aaveLendingPool), _amount);\n\n        // keep track of the asset balance\n        balances[_asset] += _amount;\n\n        // This smart contract deposits to AAVE in behalf of the user\n        _aaveLendingPool.deposit(_asset, _amount, address(this), 0);\n    }\n\n    /**\n     * @dev Withdraws an `amount` of underlying _asset from the AAVE reserve, burning the equivalent aTokens owned by the smart contract\n     * E.g. Smart contract has 100 aUSDC, calls withdraw() and receives 100 USDC, burning the 100 aUSDC. 100 USDC are then returned to the user (msg.sender)\n     * @param _asset The address of the underlying asset to withdraw\n     * @param _amount The underlying amount to be withdrawn\n     **/\n    function withdraw(address _asset, uint256 _amount) external onlyOwner {\n        require(_amount > 0, \"_amount nust be > 0!\");\n        require(_amount <= balances[_asset], \"Insufficiant balance\");\n\n        // This smart contract withdraw from AAVE in behalf of the user\n        _aaveLendingPool.withdraw(_asset, _amount, address(this));\n\n        // Approval to allow aave to spend this smart contract asset\n        if (!IERC20(_asset).approve(address(this), _amount)) {\n            revert(\"Error smart contract approval\");\n        }\n        // keep track of the asset's balance\n        balances[_asset] -= _amount;\n\n        //Transfers the asset from this smart contract to user's wallet\n        if (!IERC20(_asset).transferFrom(address(this), msg.sender, _amount)) {\n            revert(\"Error transfer from smart contract to user\");\n        }\n    }\n}\n",
  "sourcePath": "/Users/guillaumedebavelaere/alyra/projects/HelloDefi/truffle/contracts/HelloDefiAAVE2.sol",
  "compiler": {
    "name": "solc",
    "version": "0.8.17+commit.8df45f5f.Emscripten.clang"
  },
  "schemaVersion": "3.4.11",
  "updatedAt": "2022-12-03T17:18:50.366Z",
  "devdoc": {
    "details": "This smart contract interacts with AAVE protocol v2.It is created as a clone from the HelloDefiAAVE2Factory.",
    "kind": "dev",
    "methods": {
      "deposit(address,uint256)": {
        "details": "Deposits an `amount` of underlying asset into AAVE in behalf of the user, receiving in return overlying aTokens in the smart contract. - E.g. User deposits 100 USDC to the SC and the SC will deposit into AAVE 100 USDC to get in return 100 aUSDC (received into the SC). Before calling this function, it requires the user to approve this smart contract to spend his asset.",
        "params": {
          "_amount": "The amount to be deposited.*",
          "_asset": "The address of the underlying asset to deposit."
        }
      },
      "initialize(address,address)": {
        "details": "As HelloDefiAAVE2 is used as a Clone, there is no constructor.Call this function to initialize the clone instead."
      },
      "owner()": {
        "details": "Returns the address of the current owner."
      },
      "renounceOwnership()": {
        "details": "Leaves the contract without owner. It will not be possible to call `onlyOwner` functions anymore. Can only be called by the current owner. NOTE: Renouncing ownership will leave the contract without an owner, thereby removing any functionality that is only available to the owner."
      },
      "transferOwnership(address)": {
        "details": "Transfers ownership of the contract to a new account (`newOwner`). Can only be called by the current owner."
      },
      "withdraw(address,uint256)": {
        "details": "Withdraws an `amount` of underlying _asset from the AAVE reserve, burning the equivalent aTokens owned by the smart contract E.g. Smart contract has 100 aUSDC, calls withdraw() and receives 100 USDC, burning the 100 aUSDC. 100 USDC are then returned to the user (msg.sender)",
        "params": {
          "_amount": "The underlying amount to be withdrawn*",
          "_asset": "The address of the underlying asset to withdraw"
        }
      }
    },
    "title": "HelloDefiAAVE2",
    "version": 1
  },
  "userdoc": {
    "kind": "user",
    "methods": {},
    "version": 1
  }
}