{
  "contractName": "HelloDefiAAVE2",
  "abi": [
    {
      "anonymous": false,
      "inputs": [
        {
          "indexed": false,
          "internalType": "address",
          "name": "_asset",
          "type": "address"
        },
        {
          "indexed": false,
          "internalType": "uint256",
          "name": "_amount",
          "type": "uint256"
        }
      ],
      "name": "Deposit",
      "type": "event"
    },
    {
      "anonymous": false,
      "inputs": [
        {
          "indexed": false,
          "internalType": "uint8",
          "name": "version",
          "type": "uint8"
        }
      ],
      "name": "Initialized",
      "type": "event"
    },
    {
      "anonymous": false,
      "inputs": [
        {
          "indexed": true,
          "internalType": "address",
          "name": "previousOwner",
          "type": "address"
        },
        {
          "indexed": true,
          "internalType": "address",
          "name": "newOwner",
          "type": "address"
        }
      ],
      "name": "OwnershipTransferred",
      "type": "event"
    },
    {
      "anonymous": false,
      "inputs": [
        {
          "indexed": false,
          "internalType": "address",
          "name": "_asset",
          "type": "address"
        },
        {
          "indexed": false,
          "internalType": "uint256",
          "name": "_amount",
          "type": "uint256"
        }
      ],
      "name": "Withdraw",
      "type": "event"
    },
    {
      "inputs": [
        {
          "internalType": "address",
          "name": "",
          "type": "address"
        }
      ],
      "name": "balances",
      "outputs": [
        {
          "internalType": "uint256",
          "name": "",
          "type": "uint256"
        }
      ],
      "stateMutability": "view",
      "type": "function"
    },
    {
      "inputs": [],
      "name": "owner",
      "outputs": [
        {
          "internalType": "address",
          "name": "",
          "type": "address"
        }
      ],
      "stateMutability": "view",
      "type": "function"
    },
    {
      "inputs": [],
      "name": "renounceOwnership",
      "outputs": [],
      "stateMutability": "nonpayable",
      "type": "function"
    },
    {
      "inputs": [
        {
          "internalType": "address",
          "name": "newOwner",
          "type": "address"
        }
      ],
      "name": "transferOwnership",
      "outputs": [],
      "stateMutability": "nonpayable",
      "type": "function"
    },
    {
      "inputs": [
        {
          "internalType": "address",
          "name": "_aaveILendingPoolAddress",
          "type": "address"
        },
        {
          "internalType": "address",
          "name": "_user",
          "type": "address"
        }
      ],
      "name": "initialize",
      "outputs": [],
      "stateMutability": "nonpayable",
      "type": "function"
    },
    {
      "inputs": [
        {
          "internalType": "address",
          "name": "_asset",
          "type": "address"
        },
        {
          "internalType": "uint256",
          "name": "_amount",
          "type": "uint256"
        }
      ],
      "name": "deposit",
      "outputs": [],
      "stateMutability": "nonpayable",
      "type": "function"
    },
    {
      "inputs": [
        {
          "internalType": "address",
          "name": "_asset",
          "type": "address"
        },
        {
          "internalType": "uint256",
          "name": "_amount",
          "type": "uint256"
        }
      ],
      "name": "withdraw",
      "outputs": [],
      "stateMutability": "nonpayable",
      "type": "function"
    }
  ],
  "bytecode": "0x608060405234801561001057600080fd5b5061002d61002261003260201b60201c565b61003a60201b60201c565b6100fe565b600033905090565b60008060009054906101000a900473ffffffffffffffffffffffffffffffffffffffff169050816000806101000a81548173ffffffffffffffffffffffffffffffffffffffff021916908373ffffffffffffffffffffffffffffffffffffffff1602179055508173ffffffffffffffffffffffffffffffffffffffff168173ffffffffffffffffffffffffffffffffffffffff167f8be0079c531659141344cd1fd0a4f28419497f9722a3daafe3b4186f6b6457e060405160405180910390a35050565b61180a8061010d6000396000f3fe608060405234801561001057600080fd5b506004361061007d5760003560e01c8063715018a61161005b578063715018a6146100ea5780638da5cb5b146100f4578063f2fde38b14610112578063f3fef3a31461012e5761007d565b806327e235e31461008257806347e7ef24146100b2578063485cc955146100ce575b600080fd5b61009c60048036038101906100979190610e30565b61014a565b6040516100a99190610e76565b60405180910390f35b6100cc60048036038101906100c79190610ebd565b610162565b005b6100e860048036038101906100e39190610efd565b61034e565b005b6100f26104d5565b005b6100fc6104e9565b6040516101099190610f4c565b60405180910390f35b61012c60048036038101906101279190610e30565b610512565b005b61014860048036038101906101439190610ebd565b610595565b005b60026020528060005260406000206000915090505481565b61016a610831565b600081116101ad576040517f08c379a00000000000000000000000000000000000000000000000000000000081526004016101a490610fc4565b60405180910390fd5b80600260008473ffffffffffffffffffffffffffffffffffffffff1673ffffffffffffffffffffffffffffffffffffffff16815260200190815260200160002060008282546101fc9190611013565b925050819055506102303330838573ffffffffffffffffffffffffffffffffffffffff166108af909392919063ffffffff16565b61027d600160009054906101000a900473ffffffffffffffffffffffffffffffffffffffff16828473ffffffffffffffffffffffffffffffffffffffff166109389092919063ffffffff16565b600160009054906101000a900473ffffffffffffffffffffffffffffffffffffffff1673ffffffffffffffffffffffffffffffffffffffff1663e8eda9df83833060006040518563ffffffff1660e01b81526004016102df949392919061109a565b600060405180830381600087803b1580156102f957600080fd5b505af115801561030d573d6000803e3d6000fd5b505050507fe1fffcc4923d04b559f4d29a8bfc6cda04eb5b0d3c460751c2402c5c5cc9109c82826040516103429291906110df565b60405180910390a15050565b60008060159054906101000a900460ff1615905080801561038157506001600060149054906101000a900460ff1660ff16105b806103b0575061039030610a4a565b1580156103af57506001600060149054906101000a900460ff1660ff16145b5b6103ef576040517f08c379a00000000000000000000000000000000000000000000000000000000081526004016103e69061117a565b60405180910390fd5b6001600060146101000a81548160ff021916908360ff160217905550801561042d576001600060156101000a81548160ff0219169083151502179055505b82600160006101000a81548173ffffffffffffffffffffffffffffffffffffffff021916908373ffffffffffffffffffffffffffffffffffffffff16021790555061047782610a6d565b80156104d05760008060156101000a81548160ff0219169083151502179055507f7f26b83ff96e1f2b6a682f133852f6798a09c465da95921460cefb384740249860016040516104c791906111e2565b60405180910390a15b505050565b6104dd610831565b6104e76000610a6d565b565b60008060009054906101000a900473ffffffffffffffffffffffffffffffffffffffff16905090565b61051a610831565b600073ffffffffffffffffffffffffffffffffffffffff168173ffffffffffffffffffffffffffffffffffffffff1603610589576040517f08c379a00000000000000000000000000000000000000000000000000000000081526004016105809061126f565b60405180910390fd5b61059281610a6d565b50565b61059d610831565b600081116105e0576040517f08c379a00000000000000000000000000000000000000000000000000000000081526004016105d790610fc4565b60405180910390fd5b600260008373ffffffffffffffffffffffffffffffffffffffff1673ffffffffffffffffffffffffffffffffffffffff16815260200190815260200160002054811115610662576040517f08c379a0000000000000000000000000000000000000000000000000000000008152600401610659906112db565b60405180910390fd5b80600260008473ffffffffffffffffffffffffffffffffffffffff1673ffffffffffffffffffffffffffffffffffffffff16815260200190815260200160002060008282546106b191906112fb565b925050819055506000600160009054906101000a900473ffffffffffffffffffffffffffffffffffffffff1673ffffffffffffffffffffffffffffffffffffffff166369328dec8484306040518463ffffffff1660e01b81526004016107199392919061132f565b6020604051808303816000875af1158015610738573d6000803e3d6000fd5b505050506040513d601f19601f8201168201806040525081019061075c919061137b565b1161079c576040517f08c379a0000000000000000000000000000000000000000000000000000000008152600401610793906113f4565b60405180910390fd5b6107c730828473ffffffffffffffffffffffffffffffffffffffff166109389092919063ffffffff16565b6107f43033838573ffffffffffffffffffffffffffffffffffffffff166108af909392919063ffffffff16565b7f884edad9ce6fa2440d8a54cc123490eb96d2768479d49ff9c7366125a942436482826040516108259291906110df565b60405180910390a15050565b610839610b31565b73ffffffffffffffffffffffffffffffffffffffff166108576104e9565b73ffffffffffffffffffffffffffffffffffffffff16146108ad576040517f08c379a00000000000000000000000000000000000000000000000000000000081526004016108a490611460565b60405180910390fd5b565b610932846323b872dd60e01b8585856040516024016108d093929190611480565b604051602081830303815290604052907bffffffffffffffffffffffffffffffffffffffffffffffffffffffff19166020820180517bffffffffffffffffffffffffffffffffffffffffffffffffffffffff8381831617835250505050610b39565b50505050565b6000818473ffffffffffffffffffffffffffffffffffffffff1663dd62ed3e30866040518363ffffffff1660e01b81526004016109769291906114b7565b602060405180830381865afa158015610993573d6000803e3d6000fd5b505050506040513d601f19601f820116820180604052508101906109b7919061137b565b6109c19190611013565b9050610a448463095ea7b360e01b85846040516024016109e29291906110df565b604051602081830303815290604052907bffffffffffffffffffffffffffffffffffffffffffffffffffffffff19166020820180517bffffffffffffffffffffffffffffffffffffffffffffffffffffffff8381831617835250505050610b39565b50505050565b6000808273ffffffffffffffffffffffffffffffffffffffff163b119050919050565b60008060009054906101000a900473ffffffffffffffffffffffffffffffffffffffff169050816000806101000a81548173ffffffffffffffffffffffffffffffffffffffff021916908373ffffffffffffffffffffffffffffffffffffffff1602179055508173ffffffffffffffffffffffffffffffffffffffff168173ffffffffffffffffffffffffffffffffffffffff167f8be0079c531659141344cd1fd0a4f28419497f9722a3daafe3b4186f6b6457e060405160405180910390a35050565b600033905090565b6000610b9b826040518060400160405280602081526020017f5361666545524332303a206c6f772d6c6576656c2063616c6c206661696c65648152508573ffffffffffffffffffffffffffffffffffffffff16610c009092919063ffffffff16565b9050600081511115610bfb5780806020019051810190610bbb9190611518565b610bfa576040517f08c379a0000000000000000000000000000000000000000000000000000000008152600401610bf1906115b7565b60405180910390fd5b5b505050565b6060610c0f8484600085610c18565b90509392505050565b606082471015610c5d576040517f08c379a0000000000000000000000000000000000000000000000000000000008152600401610c5490611649565b60405180910390fd5b6000808673ffffffffffffffffffffffffffffffffffffffff168587604051610c8691906116da565b60006040518083038185875af1925050503d8060008114610cc3576040519150601f19603f3d011682016040523d82523d6000602084013e610cc8565b606091505b5091509150610cd987838387610ce5565b92505050949350505050565b60608315610d47576000835103610d3f57610cff85610d5a565b610d3e576040517f08c379a0000000000000000000000000000000000000000000000000000000008152600401610d359061173d565b60405180910390fd5b5b829050610d52565b610d518383610d7d565b5b949350505050565b6000808273ffffffffffffffffffffffffffffffffffffffff163b119050919050565b600082511115610d905781518083602001fd5b806040517f08c379a0000000000000000000000000000000000000000000000000000000008152600401610dc491906117b2565b60405180910390fd5b600080fd5b600073ffffffffffffffffffffffffffffffffffffffff82169050919050565b6000610dfd82610dd2565b9050919050565b610e0d81610df2565b8114610e1857600080fd5b50565b600081359050610e2a81610e04565b92915050565b600060208284031215610e4657610e45610dcd565b5b6000610e5484828501610e1b565b91505092915050565b6000819050919050565b610e7081610e5d565b82525050565b6000602082019050610e8b6000830184610e67565b92915050565b610e9a81610e5d565b8114610ea557600080fd5b50565b600081359050610eb781610e91565b92915050565b60008060408385031215610ed457610ed3610dcd565b5b6000610ee285828601610e1b565b9250506020610ef385828601610ea8565b9150509250929050565b60008060408385031215610f1457610f13610dcd565b5b6000610f2285828601610e1b565b9250506020610f3385828601610e1b565b9150509250929050565b610f4681610df2565b82525050565b6000602082019050610f616000830184610f3d565b92915050565b600082825260208201905092915050565b7f5f616d6f756e74206d757374206265203e203021000000000000000000000000600082015250565b6000610fae601483610f67565b9150610fb982610f78565b602082019050919050565b60006020820190508181036000830152610fdd81610fa1565b9050919050565b7f4e487b7100000000000000000000000000000000000000000000000000000000600052601160045260246000fd5b600061101e82610e5d565b915061102983610e5d565b925082820190508082111561104157611040610fe4565b5b92915050565b6000819050919050565b600061ffff82169050919050565b6000819050919050565b600061108461107f61107a84611047565b61105f565b611051565b9050919050565b61109481611069565b82525050565b60006080820190506110af6000830187610f3d565b6110bc6020830186610e67565b6110c96040830185610f3d565b6110d6606083018461108b565b95945050505050565b60006040820190506110f46000830185610f3d565b6111016020830184610e67565b9392505050565b7f496e697469616c697a61626c653a20636f6e747261637420697320616c72656160008201527f647920696e697469616c697a6564000000000000000000000000000000000000602082015250565b6000611164602e83610f67565b915061116f82611108565b604082019050919050565b6000602082019050818103600083015261119381611157565b9050919050565b6000819050919050565b600060ff82169050919050565b60006111cc6111c76111c28461119a565b61105f565b6111a4565b9050919050565b6111dc816111b1565b82525050565b60006020820190506111f760008301846111d3565b92915050565b7f4f776e61626c653a206e6577206f776e657220697320746865207a65726f206160008201527f6464726573730000000000000000000000000000000000000000000000000000602082015250565b6000611259602683610f67565b9150611264826111fd565b604082019050919050565b600060208201905081810360008301526112888161124c565b9050919050565b7f496e73756666696369616e742062616c616e6365000000000000000000000000600082015250565b60006112c5601483610f67565b91506112d08261128f565b602082019050919050565b600060208201905081810360008301526112f4816112b8565b9050919050565b600061130682610e5d565b915061131183610e5d565b925082820390508181111561132957611328610fe4565b5b92915050565b60006060820190506113446000830186610f3d565b6113516020830185610e67565b61135e6040830184610f3d565b949350505050565b60008151905061137581610e91565b92915050565b60006020828403121561139157611390610dcd565b5b600061139f84828501611366565b91505092915050565b7f30207768697468647261776e2066726f6d204141564521000000000000000000600082015250565b60006113de601783610f67565b91506113e9826113a8565b602082019050919050565b6000602082019050818103600083015261140d816113d1565b9050919050565b7f4f776e61626c653a2063616c6c6572206973206e6f7420746865206f776e6572600082015250565b600061144a602083610f67565b915061145582611414565b602082019050919050565b600060208201905081810360008301526114798161143d565b9050919050565b60006060820190506114956000830186610f3d565b6114a26020830185610f3d565b6114af6040830184610e67565b949350505050565b60006040820190506114cc6000830185610f3d565b6114d96020830184610f3d565b9392505050565b60008115159050919050565b6114f5816114e0565b811461150057600080fd5b50565b600081519050611512816114ec565b92915050565b60006020828403121561152e5761152d610dcd565b5b600061153c84828501611503565b91505092915050565b7f5361666545524332303a204552433230206f7065726174696f6e20646964206e60008201527f6f74207375636365656400000000000000000000000000000000000000000000602082015250565b60006115a1602a83610f67565b91506115ac82611545565b604082019050919050565b600060208201905081810360008301526115d081611594565b9050919050565b7f416464726573733a20696e73756666696369656e742062616c616e636520666f60008201527f722063616c6c0000000000000000000000000000000000000000000000000000602082015250565b6000611633602683610f67565b915061163e826115d7565b604082019050919050565b6000602082019050818103600083015261166281611626565b9050919050565b600081519050919050565b600081905092915050565b60005b8381101561169d578082015181840152602081019050611682565b60008484015250505050565b60006116b482611669565b6116be8185611674565b93506116ce81856020860161167f565b80840191505092915050565b60006116e682846116a9565b915081905092915050565b7f416464726573733a2063616c6c20746f206e6f6e2d636f6e7472616374000000600082015250565b6000611727601d83610f67565b9150611732826116f1565b602082019050919050565b600060208201905081810360008301526117568161171a565b9050919050565b600081519050919050565b6000601f19601f8301169050919050565b60006117848261175d565b61178e8185610f67565b935061179e81856020860161167f565b6117a781611768565b840191505092915050565b600060208201905081810360008301526117cc8184611779565b90509291505056fea26469706673582212206b773c4eab07a04804931055a43e9caf11ec851db2e84a28500823370cb16ba164736f6c63430008110033",
  "immutableReferences": {},
  "source": "// SPDX-License-Identifier: MIT\npragma solidity 0.8.17;\n\nimport \"./ILendingPoolAAVE2.sol\";\nimport \"@openzeppelin/contracts/interfaces/IERC20.sol\";\nimport \"@openzeppelin/contracts/token/ERC20/utils/SafeERC20.sol\";\nimport \"@openzeppelin/contracts/access/Ownable.sol\";\nimport \"@openzeppelin/contracts-upgradeable/proxy/utils/Initializable.sol\";\n\n/**\n * @title HelloDefiAAVE2\n * @dev This smart contract interacts with AAVE protocol v2.\n * @dev It is created as a clone from the HelloDefiAAVE2Factory.\n */\ncontract HelloDefiAAVE2 is Ownable, Initializable {\n    using SafeERC20 for IERC20;\n\n    ILendingPoolAAVE2 private _aaveLendingPool;\n\n    // mapping to keep track of the user's balance: asset address => asset qty\n    mapping(address => uint256) public balances;\n\n    event Deposit(address _asset, uint256 _amount);\n    event Withdraw(address _asset, uint256 _amount);\n\n    /**\n     * @dev As HelloDefiAAVE2 is used as a Clone, there is no constructor.\n     * @dev Call this function to initialize the clone instead.\n     * @param _aaveILendingPoolAddress aave lending pool smart contract address\n     * @param _user is the adress of the owner of this initialized clone\n     */\n    function initialize(address _aaveILendingPoolAddress, address _user)\n        external\n        initializer\n    {\n        _aaveLendingPool = ILendingPoolAAVE2(_aaveILendingPoolAddress);\n        _transferOwnership(_user);\n    }\n\n    /**\n     * @dev Deposits an `amount` of underlying asset into AAVE in behalf of the user, receiving in return overlying aTokens in the smart contract.\n     * - E.g. User deposits 100 USDC to the SC and the SC will deposit into AAVE 100 USDC to get in return 100 aUSDC (received into the SC).\n     * Before calling this function, it requires the user to approve this smart contract to spend his asset.\n     * @param _asset The address of the underlying asset to deposit.\n     * @param _amount The amount to be deposited.\n     **/\n    function deposit(address _asset, uint256 _amount) external onlyOwner {\n        require(_amount > 0, \"_amount must be > 0!\");\n\n        // keep track of the asset balance\n        balances[_asset] += _amount;\n\n        // Transfers the asset from user's wallet to this smart contract\n        IERC20(_asset).safeTransferFrom(msg.sender, address(this), _amount);\n\n        // Approval to allow aave to spend the user's asset\n        IERC20(_asset).safeIncreaseAllowance(address(_aaveLendingPool), _amount);\n\n        // This smart contract deposits to AAVE in behalf of the user\n        _aaveLendingPool.deposit(_asset, _amount, address(this), 0);\n\n        emit Deposit(_asset, _amount);\n    }\n\n    /**\n     * @dev Withdraws an `amount` of underlying _asset from the AAVE reserve, burning the equivalent aTokens owned by the smart contract\n     * E.g. Smart contract has 100 aUSDC, calls withdraw() and receives 100 USDC, burning the 100 aUSDC. 100 USDC are then returned to the user (msg.sender)\n     * @param _asset The address of the underlying asset to withdraw\n     * @param _amount The underlying amount to be withdrawn\n     **/\n    function withdraw(address _asset, uint256 _amount) external onlyOwner {\n        require(_amount > 0, \"_amount must be > 0!\");\n        require(_amount <= balances[_asset], \"Insufficiant balance\");\n\n        // keep track of the asset's balance\n        balances[_asset] -= _amount;\n\n        // This smart contract withdraw from AAVE in behalf of the user\n        require(_aaveLendingPool.withdraw(_asset, _amount, address(this)) > 0, \"0 whithdrawn from AAVE!\");\n\n        // Approval to allow aave to spend this smart contract asset\n        IERC20(_asset).safeIncreaseAllowance(address(this), _amount);\n\n        //Transfers the asset from this smart contract to user's wallet\n        IERC20(_asset).safeTransferFrom(address(this), msg.sender, _amount);\n\n        emit Withdraw(_asset, _amount);\n    }\n}\n",
  "sourcePath": "/Users/guillaumedebavelaere/alyra/projects/HelloDefi/truffle/contracts/HelloDefiAAVE2.sol",
  "compiler": {
    "name": "solc",
    "version": "0.8.17+commit.8df45f5f.Emscripten.clang"
  },
  "schemaVersion": "3.4.11",
  "updatedAt": "2022-12-04T12:54:00.274Z",
  "devdoc": {
    "details": "This smart contract interacts with AAVE protocol v2.It is created as a clone from the HelloDefiAAVE2Factory.",
    "kind": "dev",
    "methods": {
      "deposit(address,uint256)": {
        "details": "Deposits an `amount` of underlying asset into AAVE in behalf of the user, receiving in return overlying aTokens in the smart contract. - E.g. User deposits 100 USDC to the SC and the SC will deposit into AAVE 100 USDC to get in return 100 aUSDC (received into the SC). Before calling this function, it requires the user to approve this smart contract to spend his asset.",
        "params": {
          "_amount": "The amount to be deposited.*",
          "_asset": "The address of the underlying asset to deposit."
        }
      },
      "initialize(address,address)": {
        "details": "As HelloDefiAAVE2 is used as a Clone, there is no constructor.Call this function to initialize the clone instead.",
        "params": {
          "_aaveILendingPoolAddress": "aave lending pool smart contract address",
          "_user": "is the adress of the owner of this initialized clone"
        }
      },
      "owner()": {
        "details": "Returns the address of the current owner."
      },
      "renounceOwnership()": {
        "details": "Leaves the contract without owner. It will not be possible to call `onlyOwner` functions anymore. Can only be called by the current owner. NOTE: Renouncing ownership will leave the contract without an owner, thereby removing any functionality that is only available to the owner."
      },
      "transferOwnership(address)": {
        "details": "Transfers ownership of the contract to a new account (`newOwner`). Can only be called by the current owner."
      },
      "withdraw(address,uint256)": {
        "details": "Withdraws an `amount` of underlying _asset from the AAVE reserve, burning the equivalent aTokens owned by the smart contract E.g. Smart contract has 100 aUSDC, calls withdraw() and receives 100 USDC, burning the 100 aUSDC. 100 USDC are then returned to the user (msg.sender)",
        "params": {
          "_amount": "The underlying amount to be withdrawn*",
          "_asset": "The address of the underlying asset to withdraw"
        }
      }
    },
    "title": "HelloDefiAAVE2",
    "version": 1
  },
  "userdoc": {
    "kind": "user",
    "methods": {},
    "version": 1
  }
}