{
  "contractName": "HelloDefiAAVE2",
  "abi": [
    {
      "inputs": [
        {
          "internalType": "address",
          "name": "aaveILendingPoolAddress",
          "type": "address"
        }
      ],
      "stateMutability": "nonpayable",
      "type": "constructor"
    },
    {
      "inputs": [
        {
          "internalType": "address",
          "name": "_asset",
          "type": "address"
        },
        {
          "internalType": "uint256",
          "name": "_amount",
          "type": "uint256"
        }
      ],
      "name": "deposit",
      "outputs": [],
      "stateMutability": "nonpayable",
      "type": "function"
    }
  ],
  "bytecode": "0x608060405234801561001057600080fd5b5060405161094d38038061094d833981810160405281019061003291906100db565b806000806101000a81548173ffffffffffffffffffffffffffffffffffffffff021916908373ffffffffffffffffffffffffffffffffffffffff16021790555050610108565b600080fd5b600073ffffffffffffffffffffffffffffffffffffffff82169050919050565b60006100a88261007d565b9050919050565b6100b88161009d565b81146100c357600080fd5b50565b6000815190506100d5816100af565b92915050565b6000602082840312156100f1576100f0610078565b5b60006100ff848285016100c6565b91505092915050565b610836806101176000396000f3fe608060405234801561001057600080fd5b506004361061002b5760003560e01c806347e7ef2414610030575b600080fd5b61004a60048036038101906100459190610467565b61004c565b005b8173ffffffffffffffffffffffffffffffffffffffff1663095ea7b330836040518363ffffffff1660e01b81526004016100879291906104c5565b6020604051808303816000875af11580156100a6573d6000803e3d6000fd5b505050506040513d601f19601f820116820180604052508101906100ca9190610526565b610109576040517f08c379a0000000000000000000000000000000000000000000000000000000008152600401610100906105b0565b60405180910390fd5b8173ffffffffffffffffffffffffffffffffffffffff166323b872dd3330846040518463ffffffff1660e01b8152600401610146939291906105d0565b6020604051808303816000875af1158015610165573d6000803e3d6000fd5b505050506040513d601f19601f820116820180604052508101906101899190610526565b6101c8576040517f08c379a00000000000000000000000000000000000000000000000000000000081526004016101bf90610679565b60405180910390fd5b8173ffffffffffffffffffffffffffffffffffffffff1663095ea7b360008054906101000a900473ffffffffffffffffffffffffffffffffffffffff16836040518363ffffffff1660e01b81526004016102239291906104c5565b6020604051808303816000875af1158015610242573d6000803e3d6000fd5b505050506040513d601f19601f820116820180604052508101906102669190610526565b6102a5576040517f08c379a000000000000000000000000000000000000000000000000000000000815260040161029c906106e5565b60405180910390fd5b80600160003373ffffffffffffffffffffffffffffffffffffffff1673ffffffffffffffffffffffffffffffffffffffff16815260200190815260200160002060008473ffffffffffffffffffffffffffffffffffffffff1673ffffffffffffffffffffffffffffffffffffffff16815260200190815260200160002060008282546103319190610734565b9250508190555060008054906101000a900473ffffffffffffffffffffffffffffffffffffffff1673ffffffffffffffffffffffffffffffffffffffff1663e8eda9df83833060006040518563ffffffff1660e01b815260040161039894939291906107bb565b600060405180830381600087803b1580156103b257600080fd5b505af11580156103c6573d6000803e3d6000fd5b505050505050565b600080fd5b600073ffffffffffffffffffffffffffffffffffffffff82169050919050565b60006103fe826103d3565b9050919050565b61040e816103f3565b811461041957600080fd5b50565b60008135905061042b81610405565b92915050565b6000819050919050565b61044481610431565b811461044f57600080fd5b50565b6000813590506104618161043b565b92915050565b6000806040838503121561047e5761047d6103ce565b5b600061048c8582860161041c565b925050602061049d85828601610452565b9150509250929050565b6104b0816103f3565b82525050565b6104bf81610431565b82525050565b60006040820190506104da60008301856104a7565b6104e760208301846104b6565b9392505050565b60008115159050919050565b610503816104ee565b811461050e57600080fd5b50565b600081519050610520816104fa565b92915050565b60006020828403121561053c5761053b6103ce565b5b600061054a84828501610511565b91505092915050565b600082825260208201905092915050565b7f4572726f72207573657220617070726f76616c00000000000000000000000000600082015250565b600061059a601383610553565b91506105a582610564565b602082019050919050565b600060208201905081810360008301526105c98161058d565b9050919050565b60006060820190506105e560008301866104a7565b6105f260208301856104a7565b6105ff60408301846104b6565b949350505050565b7f4572726f72207472616e736665722066726f6d207573657220746f20736d617260008201527f7420636f6e747261637400000000000000000000000000000000000000000000602082015250565b6000610663602a83610553565b915061066e82610607565b604082019050919050565b6000602082019050818103600083015261069281610656565b9050919050565b7f4572726f7220736d61727420636f6e747261637420617070726f76616c000000600082015250565b60006106cf601d83610553565b91506106da82610699565b602082019050919050565b600060208201905081810360008301526106fe816106c2565b9050919050565b7f4e487b7100000000000000000000000000000000000000000000000000000000600052601160045260246000fd5b600061073f82610431565b915061074a83610431565b925082820190508082111561076257610761610705565b5b92915050565b6000819050919050565b600061ffff82169050919050565b6000819050919050565b60006107a56107a061079b84610768565b610780565b610772565b9050919050565b6107b58161078a565b82525050565b60006080820190506107d060008301876104a7565b6107dd60208301866104b6565b6107ea60408301856104a7565b6107f760608301846107ac565b9594505050505056fea26469706673582212205663644f0ef16b17ae13d3cb3bb9cdb6f220e5c995ab6abf6520b1fa10970bc864736f6c63430008110033",
  "immutableReferences": {},
  "source": "// SPDX-License-Identifier: MIT\npragma solidity 0.8.17;\n\nimport \"./ILendingPoolAAVE2.sol\";\nimport \"@openzeppelin/contracts/interfaces/IERC20.sol\";\n\n/**\n * @title HelloDefiAAVE2\n * @dev This smart contract interacts with AAVE protocol v2\n */\ncontract HelloDefiAAVE2 {\n    \n    ILendingPoolAAVE2 private _aaveLendingPool; \n    \n    // mapping to keep track of the user's balance: user's adress => (asset address => asset qty).\n    mapping(address => mapping(address => uint256)) balances;\n\n    constructor(address aaveILendingPoolAddress) {\n        _aaveLendingPool = ILendingPoolAAVE2(aaveILendingPoolAddress);\n    }\n\n    /**\n     * @dev Deposits an `amount` of underlying asset into AAVE in behalf of the user, receiving in return overlying aTokens in the smart contract.\n     * - E.g. User deposits 100 USDC to the SC and the SC will deposit into AAVE 100 USDC to get in return 100 aUSDC (received into the SC).\n     * @param _asset The address of the underlying asset to deposit.\n     * @param _amount The amount to be deposited.\n     **/\n    function deposit(address _asset, uint256 _amount) external {\n        // Approval to allow this smart contract to spend the user's asset\n        if (!IERC20(_asset).approve(address(this), _amount)) {\n            revert(\"Error user approval\");\n        }\n\n        // Transfers the asset from user's wallet to this smart contract\n        if (!IERC20(_asset).transferFrom(msg.sender, address(this), _amount)) {\n            revert(\"Error transfer from user to smart contract\");\n        }\n \n        // Approval to allow this smart contract to spend the user's asset\n        if (!IERC20(_asset).approve(address(_aaveLendingPool), _amount)) {\n            revert(\"Error smart contract approval\");\n        }\n\n        // keep track of the user's balance\n        balances[msg.sender][_asset] += _amount;\n        // This smart contract deposits to AAVE in behalf of the user\n        _aaveLendingPool.deposit(_asset, _amount, address(this), 0);\n    }\n}\n",
  "sourcePath": "/Users/guillaumedebavelaere/alyra/projects/HelloDefi/truffle/contracts/HelloDefiAAVE2.sol",
  "compiler": {
    "name": "solc",
    "version": "0.8.17+commit.8df45f5f.Emscripten.clang"
  },
  "schemaVersion": "3.4.10",
  "updatedAt": "2022-11-28T17:40:44.604Z",
  "networkType": "ethereum",
  "devdoc": {
    "details": "This smart contract interacts with AAVE protocol v2",
    "kind": "dev",
    "methods": {
      "deposit(address,uint256)": {
        "details": "Deposits an `amount` of underlying asset into AAVE in behalf of the user, receiving in return overlying aTokens in the smart contract. - E.g. User deposits 100 USDC to the SC and the SC will deposit into AAVE 100 USDC to get in return 100 aUSDC (received into the SC).",
        "params": {
          "_amount": "The amount to be deposited.*",
          "_asset": "The address of the underlying asset to deposit."
        }
      }
    },
    "title": "HelloDefiAAVE2",
    "version": 1
  },
  "userdoc": {
    "kind": "user",
    "methods": {},
    "version": 1
  }
}