{
  "contractName": "HelloDefiAAVE2",
  "abi": [
    {
      "anonymous": false,
      "inputs": [
        {
          "indexed": false,
          "internalType": "address",
          "name": "_asset",
          "type": "address"
        },
        {
          "indexed": false,
          "internalType": "uint256",
          "name": "_amount",
          "type": "uint256"
        }
      ],
      "name": "Deposit",
      "type": "event"
    },
    {
      "anonymous": false,
      "inputs": [
        {
          "indexed": false,
          "internalType": "uint8",
          "name": "version",
          "type": "uint8"
        }
      ],
      "name": "Initialized",
      "type": "event"
    },
    {
      "anonymous": false,
      "inputs": [
        {
          "indexed": true,
          "internalType": "address",
          "name": "previousOwner",
          "type": "address"
        },
        {
          "indexed": true,
          "internalType": "address",
          "name": "newOwner",
          "type": "address"
        }
      ],
      "name": "OwnershipTransferred",
      "type": "event"
    },
    {
      "anonymous": false,
      "inputs": [
        {
          "indexed": false,
          "internalType": "address",
          "name": "_asset",
          "type": "address"
        },
        {
          "indexed": false,
          "internalType": "uint256",
          "name": "_amount",
          "type": "uint256"
        }
      ],
      "name": "Withdraw",
      "type": "event"
    },
    {
      "inputs": [
        {
          "internalType": "address",
          "name": "",
          "type": "address"
        }
      ],
      "name": "assetAvgCost",
      "outputs": [
        {
          "internalType": "uint256",
          "name": "",
          "type": "uint256"
        }
      ],
      "stateMutability": "view",
      "type": "function"
    },
    {
      "inputs": [
        {
          "internalType": "address",
          "name": "",
          "type": "address"
        }
      ],
      "name": "balances",
      "outputs": [
        {
          "internalType": "uint256",
          "name": "",
          "type": "uint256"
        }
      ],
      "stateMutability": "view",
      "type": "function"
    },
    {
      "inputs": [],
      "name": "owner",
      "outputs": [
        {
          "internalType": "address",
          "name": "",
          "type": "address"
        }
      ],
      "stateMutability": "view",
      "type": "function"
    },
    {
      "inputs": [],
      "name": "renounceOwnership",
      "outputs": [],
      "stateMutability": "nonpayable",
      "type": "function"
    },
    {
      "inputs": [
        {
          "internalType": "address",
          "name": "newOwner",
          "type": "address"
        }
      ],
      "name": "transferOwnership",
      "outputs": [],
      "stateMutability": "nonpayable",
      "type": "function"
    },
    {
      "inputs": [
        {
          "internalType": "address",
          "name": "_aaveILendingPoolAddress",
          "type": "address"
        },
        {
          "internalType": "address",
          "name": "_priceFeedAddress",
          "type": "address"
        },
        {
          "internalType": "address",
          "name": "_feesCollectorAddress",
          "type": "address"
        },
        {
          "internalType": "address",
          "name": "_user",
          "type": "address"
        }
      ],
      "name": "initialize",
      "outputs": [],
      "stateMutability": "nonpayable",
      "type": "function"
    },
    {
      "inputs": [
        {
          "internalType": "address",
          "name": "_asset",
          "type": "address"
        },
        {
          "internalType": "uint256",
          "name": "_amount",
          "type": "uint256"
        }
      ],
      "name": "deposit",
      "outputs": [],
      "stateMutability": "nonpayable",
      "type": "function"
    },
    {
      "inputs": [
        {
          "internalType": "address",
          "name": "_asset",
          "type": "address"
        },
        {
          "internalType": "uint256",
          "name": "_amount",
          "type": "uint256"
        }
      ],
      "name": "withdraw",
      "outputs": [],
      "stateMutability": "nonpayable",
      "type": "function"
    }
  ],
  "bytecode": "0x608060405234801561001057600080fd5b5061002d61002261003260201b60201c565b61003a60201b60201c565b6100fe565b600033905090565b60008060009054906101000a900473ffffffffffffffffffffffffffffffffffffffff169050816000806101000a81548173ffffffffffffffffffffffffffffffffffffffff021916908373ffffffffffffffffffffffffffffffffffffffff1602179055508173ffffffffffffffffffffffffffffffffffffffff168173ffffffffffffffffffffffffffffffffffffffff167f8be0079c531659141344cd1fd0a4f28419497f9722a3daafe3b4186f6b6457e060405160405180910390a35050565b6120de806200010e6000396000f3fe608060405234801561001057600080fd5b50600436106100885760003560e01c80638da5cb5b1161005b5780638da5cb5b14610113578063f2fde38b14610131578063f3fef3a31461014d578063f8c8765e1461016957610088565b806327e235e31461008d57806347e7ef24146100bd578063715018a6146100d95780638810a2f9146100e3575b600080fd5b6100a760048036038101906100a29190611432565b610185565b6040516100b49190611478565b60405180910390f35b6100d760048036038101906100d291906114bf565b61019d565b005b6100e16103e5565b005b6100fd60048036038101906100f89190611432565b6103f9565b60405161010a9190611478565b60405180910390f35b61011b610411565b604051610128919061150e565b60405180910390f35b61014b60048036038101906101469190611432565b61043a565b005b610167600480360381019061016291906114bf565b6104bd565b005b610183600480360381019061017e9190611529565b610768565b005b60046020528060005260406000206000915090505481565b6101a5610973565b600081116101e8576040517f08c379a00000000000000000000000000000000000000000000000000000000081526004016101df906115ed565b60405180910390fd5b6102153330838573ffffffffffffffffffffffffffffffffffffffff166109f1909392919063ffffffff16565b60006102218383610a7a565b905061022d8382610b35565b600560008573ffffffffffffffffffffffffffffffffffffffff1673ffffffffffffffffffffffffffffffffffffffff1681526020019081526020016000208190555080600460008573ffffffffffffffffffffffffffffffffffffffff1673ffffffffffffffffffffffffffffffffffffffff16815260200190815260200160002060008282546102bf919061163c565b92505081905550610313600160009054906101000a900473ffffffffffffffffffffffffffffffffffffffff16828573ffffffffffffffffffffffffffffffffffffffff16610d299092919063ffffffff16565b600160009054906101000a900473ffffffffffffffffffffffffffffffffffffffff1673ffffffffffffffffffffffffffffffffffffffff1663e8eda9df84833060006040518563ffffffff1660e01b815260040161037594939291906116c3565b600060405180830381600087803b15801561038f57600080fd5b505af11580156103a3573d6000803e3d6000fd5b505050507fe1fffcc4923d04b559f4d29a8bfc6cda04eb5b0d3c460751c2402c5c5cc9109c83826040516103d8929190611708565b60405180910390a1505050565b6103ed610973565b6103f76000610e3b565b565b60056020528060005260406000206000915090505481565b60008060009054906101000a900473ffffffffffffffffffffffffffffffffffffffff16905090565b610442610973565b600073ffffffffffffffffffffffffffffffffffffffff168173ffffffffffffffffffffffffffffffffffffffff16036104b1576040517f08c379a00000000000000000000000000000000000000000000000000000000081526004016104a8906117a3565b60405180910390fd5b6104ba81610e3b565b50565b6104c5610973565b60008111610508576040517f08c379a00000000000000000000000000000000000000000000000000000000081526004016104ff9061180f565b60405180910390fd5b600460008373ffffffffffffffffffffffffffffffffffffffff1673ffffffffffffffffffffffffffffffffffffffff1681526020019081526020016000205481111561058a576040517f08c379a00000000000000000000000000000000000000000000000000000000081526004016105819061187b565b60405180910390fd5b6000600160009054906101000a900473ffffffffffffffffffffffffffffffffffffffff1673ffffffffffffffffffffffffffffffffffffffff166369328dec8484306040518463ffffffff1660e01b81526004016105eb9392919061189b565b6020604051808303816000875af115801561060a573d6000803e3d6000fd5b505050506040513d601f19601f8201168201806040525081019061062e91906118e7565b1161066e576040517f08c379a000000000000000000000000000000000000000000000000000000000815260040161066590611960565b60405180910390fd5b600061067a8383610eff565b905081600460008573ffffffffffffffffffffffffffffffffffffffff1673ffffffffffffffffffffffffffffffffffffffff16815260200190815260200160002060008282546106cb9190611980565b925050819055506106fd30828573ffffffffffffffffffffffffffffffffffffffff16610d299092919063ffffffff16565b61072a3033838673ffffffffffffffffffffffffffffffffffffffff166109f1909392919063ffffffff16565b7f884edad9ce6fa2440d8a54cc123490eb96d2768479d49ff9c7366125a9424364838260405161075b929190611708565b60405180910390a1505050565b60008060159054906101000a900460ff1615905080801561079b57506001600060149054906101000a900460ff1660ff16105b806107ca57506107aa30611110565b1580156107c957506001600060149054906101000a900460ff1660ff16145b5b610809576040517f08c379a000000000000000000000000000000000000000000000000000000000815260040161080090611a26565b60405180910390fd5b6001600060146101000a81548160ff021916908360ff1602179055508015610847576001600060156101000a81548160ff0219169083151502179055505b84600160006101000a81548173ffffffffffffffffffffffffffffffffffffffff021916908373ffffffffffffffffffffffffffffffffffffffff16021790555083600260006101000a81548173ffffffffffffffffffffffffffffffffffffffff021916908373ffffffffffffffffffffffffffffffffffffffff16021790555082600360006101000a81548173ffffffffffffffffffffffffffffffffffffffff021916908373ffffffffffffffffffffffffffffffffffffffff16021790555061091382610e3b565b801561096c5760008060156101000a81548160ff0219169083151502179055507f7f26b83ff96e1f2b6a682f133852f6798a09c465da95921460cefb384740249860016040516109639190611a8e565b60405180910390a15b5050505050565b61097b611133565b73ffffffffffffffffffffffffffffffffffffffff16610999610411565b73ffffffffffffffffffffffffffffffffffffffff16146109ef576040517f08c379a00000000000000000000000000000000000000000000000000000000081526004016109e690611af5565b60405180910390fd5b565b610a74846323b872dd60e01b858585604051602401610a1293929190611b15565b604051602081830303815290604052907bffffffffffffffffffffffffffffffffffffffffffffffffffffffff19166020820180517bffffffffffffffffffffffffffffffffffffffffffffffffffffffff838183161783525050505061113b565b50505050565b600060648211610a8957600080fd5b60006064600284610a9a9190611b4c565b610aa49190611bbd565b9050610ad130828673ffffffffffffffffffffffffffffffffffffffff16610d299092919063ffffffff16565b610b2030600360009054906101000a900473ffffffffffffffffffffffffffffffffffffffff16838773ffffffffffffffffffffffffffffffffffffffff166109f1909392919063ffffffff16565b8083610b2c9190611980565b91505092915050565b60008082600460008673ffffffffffffffffffffffffffffffffffffffff1673ffffffffffffffffffffffffffffffffffffffff16815260200190815260200160002054610b83919061163c565b905060008111610bc8576040517f08c379a0000000000000000000000000000000000000000000000000000000008152600401610bbf90611c3a565b60405180910390fd5b6000600560008673ffffffffffffffffffffffffffffffffffffffff1673ffffffffffffffffffffffffffffffffffffffff16815260200190815260200160002054600460008773ffffffffffffffffffffffffffffffffffffffff1673ffffffffffffffffffffffffffffffffffffffff16815260200190815260200160002054610c549190611b4c565b90506000600260009054906101000a900473ffffffffffffffffffffffffffffffffffffffff1673ffffffffffffffffffffffffffffffffffffffff166316345f18876040518263ffffffff1660e01b8152600401610cb3919061150e565b602060405180830381865afa158015610cd0573d6000803e3d6000fd5b505050506040513d601f19601f82011682018060405250810190610cf491906118e7565b905060008186610d049190611b4c565b9050838382610d13919061163c565b610d1d9190611bbd565b94505050505092915050565b6000818473ffffffffffffffffffffffffffffffffffffffff1663dd62ed3e30866040518363ffffffff1660e01b8152600401610d67929190611c5a565b602060405180830381865afa158015610d84573d6000803e3d6000fd5b505050506040513d601f19601f82011682018060405250810190610da891906118e7565b610db2919061163c565b9050610e358463095ea7b360e01b8584604051602401610dd3929190611708565b604051602081830303815290604052907bffffffffffffffffffffffffffffffffffffffffffffffffffffffff19166020820180517bffffffffffffffffffffffffffffffffffffffffffffffffffffffff838183161783525050505061113b565b50505050565b60008060009054906101000a900473ffffffffffffffffffffffffffffffffffffffff169050816000806101000a81548173ffffffffffffffffffffffffffffffffffffffff021916908373ffffffffffffffffffffffffffffffffffffffff1602179055508173ffffffffffffffffffffffffffffffffffffffff168173ffffffffffffffffffffffffffffffffffffffff167f8be0079c531659141344cd1fd0a4f28419497f9722a3daafe3b4186f6b6457e060405160405180910390a35050565b6000808211610f43576040517f08c379a0000000000000000000000000000000000000000000000000000000008152600401610f3a90611ccf565b60405180910390fd5b6000600260009054906101000a900473ffffffffffffffffffffffffffffffffffffffff1673ffffffffffffffffffffffffffffffffffffffff166316345f18856040518263ffffffff1660e01b8152600401610fa0919061150e565b602060405180830381865afa158015610fbd573d6000803e3d6000fd5b505050506040513d601f19601f82011682018060405250810190610fe191906118e7565b9050600083600560008773ffffffffffffffffffffffffffffffffffffffff1673ffffffffffffffffffffffffffffffffffffffff16815260200190815260200160002054836110319190611cf9565b61103b9190611d3c565b905060648113156111045760006064600a836110579190611b4c565b6110619190611bbd565b9050600085826110719190611bbd565b905061109e30828973ffffffffffffffffffffffffffffffffffffffff16610d299092919063ffffffff16565b6110ed30600360009054906101000a900473ffffffffffffffffffffffffffffffffffffffff16838a73ffffffffffffffffffffffffffffffffffffffff166109f1909392919063ffffffff16565b80866110f99190611980565b94505050505061110a565b83925050505b92915050565b6000808273ffffffffffffffffffffffffffffffffffffffff163b119050919050565b600033905090565b600061119d826040518060400160405280602081526020017f5361666545524332303a206c6f772d6c6576656c2063616c6c206661696c65648152508573ffffffffffffffffffffffffffffffffffffffff166112029092919063ffffffff16565b90506000815111156111fd57808060200190518101906111bd9190611dec565b6111fc576040517f08c379a00000000000000000000000000000000000000000000000000000000081526004016111f390611e8b565b60405180910390fd5b5b505050565b6060611211848460008561121a565b90509392505050565b60608247101561125f576040517f08c379a000000000000000000000000000000000000000000000000000000000815260040161125690611f1d565b60405180910390fd5b6000808673ffffffffffffffffffffffffffffffffffffffff1685876040516112889190611fae565b60006040518083038185875af1925050503d80600081146112c5576040519150601f19603f3d011682016040523d82523d6000602084013e6112ca565b606091505b50915091506112db878383876112e7565b92505050949350505050565b60608315611349576000835103611341576113018561135c565b611340576040517f08c379a000000000000000000000000000000000000000000000000000000000815260040161133790612011565b60405180910390fd5b5b829050611354565b611353838361137f565b5b949350505050565b6000808273ffffffffffffffffffffffffffffffffffffffff163b119050919050565b6000825111156113925781518083602001fd5b806040517f08c379a00000000000000000000000000000000000000000000000000000000081526004016113c69190612086565b60405180910390fd5b600080fd5b600073ffffffffffffffffffffffffffffffffffffffff82169050919050565b60006113ff826113d4565b9050919050565b61140f816113f4565b811461141a57600080fd5b50565b60008135905061142c81611406565b92915050565b600060208284031215611448576114476113cf565b5b60006114568482850161141d565b91505092915050565b6000819050919050565b6114728161145f565b82525050565b600060208201905061148d6000830184611469565b92915050565b61149c8161145f565b81146114a757600080fd5b50565b6000813590506114b981611493565b92915050565b600080604083850312156114d6576114d56113cf565b5b60006114e48582860161141d565b92505060206114f5858286016114aa565b9150509250929050565b611508816113f4565b82525050565b600060208201905061152360008301846114ff565b92915050565b60008060008060808587031215611543576115426113cf565b5b60006115518782880161141d565b94505060206115628782880161141d565b93505060406115738782880161141d565b92505060606115848782880161141d565b91505092959194509250565b600082825260208201905092915050565b7f616d6f756e74206d757374206265203e20302100000000000000000000000000600082015250565b60006115d7601383611590565b91506115e2826115a1565b602082019050919050565b60006020820190508181036000830152611606816115ca565b9050919050565b7f4e487b7100000000000000000000000000000000000000000000000000000000600052601160045260246000fd5b60006116478261145f565b91506116528361145f565b925082820190508082111561166a5761166961160d565b5b92915050565b6000819050919050565b600061ffff82169050919050565b6000819050919050565b60006116ad6116a86116a384611670565b611688565b61167a565b9050919050565b6116bd81611692565b82525050565b60006080820190506116d860008301876114ff565b6116e56020830186611469565b6116f260408301856114ff565b6116ff60608301846116b4565b95945050505050565b600060408201905061171d60008301856114ff565b61172a6020830184611469565b9392505050565b7f4f776e61626c653a206e6577206f776e657220697320746865207a65726f206160008201527f6464726573730000000000000000000000000000000000000000000000000000602082015250565b600061178d602683611590565b915061179882611731565b604082019050919050565b600060208201905081810360008301526117bc81611780565b9050919050565b7f5f616d6f756e74206d757374206265203e203021000000000000000000000000600082015250565b60006117f9601483611590565b9150611804826117c3565b602082019050919050565b60006020820190508181036000830152611828816117ec565b9050919050565b7f496e73756666696369616e742062616c616e6365000000000000000000000000600082015250565b6000611865601483611590565b91506118708261182f565b602082019050919050565b6000602082019050818103600083015261189481611858565b9050919050565b60006060820190506118b060008301866114ff565b6118bd6020830185611469565b6118ca60408301846114ff565b949350505050565b6000815190506118e181611493565b92915050565b6000602082840312156118fd576118fc6113cf565b5b600061190b848285016118d2565b91505092915050565b7f30207768697468647261776e2066726f6d204141564521000000000000000000600082015250565b600061194a601783611590565b915061195582611914565b602082019050919050565b600060208201905081810360008301526119798161193d565b9050919050565b600061198b8261145f565b91506119968361145f565b92508282039050818111156119ae576119ad61160d565b5b92915050565b7f496e697469616c697a61626c653a20636f6e747261637420697320616c72656160008201527f647920696e697469616c697a6564000000000000000000000000000000000000602082015250565b6000611a10602e83611590565b9150611a1b826119b4565b604082019050919050565b60006020820190508181036000830152611a3f81611a03565b9050919050565b6000819050919050565b600060ff82169050919050565b6000611a78611a73611a6e84611a46565b611688565b611a50565b9050919050565b611a8881611a5d565b82525050565b6000602082019050611aa36000830184611a7f565b92915050565b7f4f776e61626c653a2063616c6c6572206973206e6f7420746865206f776e6572600082015250565b6000611adf602083611590565b9150611aea82611aa9565b602082019050919050565b60006020820190508181036000830152611b0e81611ad2565b9050919050565b6000606082019050611b2a60008301866114ff565b611b3760208301856114ff565b611b446040830184611469565b949350505050565b6000611b578261145f565b9150611b628361145f565b9250828202611b708161145f565b91508282048414831517611b8757611b8661160d565b5b5092915050565b7f4e487b7100000000000000000000000000000000000000000000000000000000600052601260045260246000fd5b6000611bc88261145f565b9150611bd38361145f565b925082611be357611be2611b8e565b5b828204905092915050565b7f4e6f207175616e74697479210000000000000000000000000000000000000000600082015250565b6000611c24600c83611590565b9150611c2f82611bee565b602082019050919050565b60006020820190508181036000830152611c5381611c17565b9050919050565b6000604082019050611c6f60008301856114ff565b611c7c60208301846114ff565b9392505050565b7f616d6f756e74206d757374206265203e20300000000000000000000000000000600082015250565b6000611cb9601283611590565b9150611cc482611c83565b602082019050919050565b60006020820190508181036000830152611ce881611cac565b9050919050565b6000819050919050565b6000611d0482611cef565b9150611d0f83611cef565b9250828203905081811260008412168282136000851215161715611d3657611d3561160d565b5b92915050565b6000611d4782611cef565b9150611d5283611cef565b9250828202611d6081611cef565b91507f80000000000000000000000000000000000000000000000000000000000000008414600084121615611d9857611d9761160d565b5b8282058414831517611dad57611dac61160d565b5b5092915050565b60008115159050919050565b611dc981611db4565b8114611dd457600080fd5b50565b600081519050611de681611dc0565b92915050565b600060208284031215611e0257611e016113cf565b5b6000611e1084828501611dd7565b91505092915050565b7f5361666545524332303a204552433230206f7065726174696f6e20646964206e60008201527f6f74207375636365656400000000000000000000000000000000000000000000602082015250565b6000611e75602a83611590565b9150611e8082611e19565b604082019050919050565b60006020820190508181036000830152611ea481611e68565b9050919050565b7f416464726573733a20696e73756666696369656e742062616c616e636520666f60008201527f722063616c6c0000000000000000000000000000000000000000000000000000602082015250565b6000611f07602683611590565b9150611f1282611eab565b604082019050919050565b60006020820190508181036000830152611f3681611efa565b9050919050565b600081519050919050565b600081905092915050565b60005b83811015611f71578082015181840152602081019050611f56565b60008484015250505050565b6000611f8882611f3d565b611f928185611f48565b9350611fa2818560208601611f53565b80840191505092915050565b6000611fba8284611f7d565b915081905092915050565b7f416464726573733a2063616c6c20746f206e6f6e2d636f6e7472616374000000600082015250565b6000611ffb601d83611590565b915061200682611fc5565b602082019050919050565b6000602082019050818103600083015261202a81611fee565b9050919050565b600081519050919050565b6000601f19601f8301169050919050565b600061205882612031565b6120628185611590565b9350612072818560208601611f53565b61207b8161203c565b840191505092915050565b600060208201905081810360008301526120a0818461204d565b90509291505056fea2646970667358221220853d0bac33195f9211e736a61f8df19a9e758f74d82e1acc18e80d788832087064736f6c63430008110033",
  "immutableReferences": {},
  "source": "// SPDX-License-Identifier: MIT\npragma solidity 0.8.17;\n\nimport \"./ILendingPoolAAVE2.sol\";\nimport \"./PriceFeedConsumer.sol\";\nimport \"@chainlink/contracts/src/v0.8/interfaces/AggregatorV3Interface.sol\";\nimport \"./FeesCollector.sol\";\nimport \"@openzeppelin/contracts/interfaces/IERC20.sol\";\nimport \"@openzeppelin/contracts/token/ERC20/utils/SafeERC20.sol\";\nimport \"@openzeppelin/contracts/access/Ownable.sol\";\nimport \"@openzeppelin/contracts-upgradeable/proxy/utils/Initializable.sol\";\nimport \"@openzeppelin/contracts/utils/Strings.sol\";\n\n/**\n * @title HelloDefiAAVE2\n * @dev This smart contract interacts with AAVE protocol v2.\n * @dev It is created as a clone from the HelloDefiAAVE2Factory.\n */\ncontract HelloDefiAAVE2 is Ownable, Initializable {\n    using SafeERC20 for IERC20;\n\n    ILendingPoolAAVE2 private _aaveLendingPool;\n    PriceFeedConsumer private _priceFeed;\n    FeesCollector private _feesCollector;\n\n    uint256 private constant _referalCommission = 2; // 2%\n    uint256 private constant _performanceCommission = 10; // 10%\n\n    // mapping to keep track of the user's balance: asset address => asset qty\n    mapping(address => uint256) public balances;\n\n    // mapping to keep track of the user's asset avg dollar cost : asset address => asset avg cost\n    mapping(address => uint256) public assetAvgCost;\n\n    event Deposit(address _asset, uint256 _amount);\n    event Withdraw(address _asset, uint256 _amount);\n\n    /**\n     * @dev As HelloDefiAAVE2 is used as a Clone, there is no constructor.\n     * @dev Call this function to initialize the clone instead.\n     * @param _aaveILendingPoolAddress aave lending pool smart contract address\n     * @param _priceFeedAddress price feed address\n     * @param _feesCollectorAddress fees collector smart contract address\n     * @param _user is the adress of the owner of this initialized clone\n     */\n    function initialize(\n        address _aaveILendingPoolAddress,\n        address _priceFeedAddress,\n        address _feesCollectorAddress,\n        address _user\n    ) external initializer {\n        _aaveLendingPool = ILendingPoolAAVE2(_aaveILendingPoolAddress);\n        _priceFeed = PriceFeedConsumer(_priceFeedAddress);\n        _feesCollector = FeesCollector(_feesCollectorAddress);\n        _transferOwnership(_user);\n    }\n\n    /**\n     * @dev Deposits an `amount` of underlying asset into this smart contract. Referal fees are applied. Then the smart contract deposits the (amount - fees) into\n     * AAVE in behalf of the user, receiving in return overlying aTokens in the smart contract.\n     * - E.g. User deposits 100 USDC to the SC and the SC will deposit into AAVE 98 USDC to get in return 98 aUSDC (received into the SC).\n     * Before calling this function, it requires the user to approve this smart contract to spend his asset.\n     * @param _asset The address of the underlying asset to deposit.\n     * @param _amount The amount to be deposited.\n     **/\n    function deposit(address _asset, uint256 _amount) external onlyOwner {\n        require(_amount > 0, \"amount must be > 0!\");\n\n        // Transfers the asset from user's wallet to this smart contract\n        IERC20(_asset).safeTransferFrom(msg.sender, address(this), _amount);\n\n        // collect referal fees\n        uint256 amountAfterFees = _collectReferalFees(_asset, _amount);\n\n        // keep track of avg cost\n        assetAvgCost[_asset] = _computeAssetAvgCost(_asset, amountAfterFees);\n\n        // keep track of the asset balance\n        balances[_asset] += amountAfterFees;\n\n        // Approval to allow aave to spend the user's asset\n        IERC20(_asset).safeIncreaseAllowance(\n            address(_aaveLendingPool),\n            amountAfterFees\n        );\n\n        // This smart contract deposits to AAVE in behalf of the user\n        _aaveLendingPool.deposit(_asset, amountAfterFees, address(this), 0);\n\n        emit Deposit(_asset, amountAfterFees);\n    }\n\n    /**\n     * @dev Withdraws an `amount` of underlying _asset from the AAVE reserve, burning the equivalent aTokens owned by the smart contract\n     * E.g. Smart contract has 100 aUSDC, calls withdraw() and receives 100 USDC, burning the 100 aUSDC. 100 USDC are then returned to the user (msg.sender)\n     * @param _asset The address of the underlying asset to withdraw\n     * @param _amount The underlying amount to be withdrawn\n     **/\n    function withdraw(address _asset, uint256 _amount) external onlyOwner {\n        require(_amount > 0, \"_amount must be > 0!\");\n        require(_amount <= balances[_asset], \"Insufficiant balance\");\n\n        // This smart contract withdraw from AAVE in behalf of the user\n        require(\n            _aaveLendingPool.withdraw(_asset, _amount, address(this)) > 0,\n            \"0 whithdrawn from AAVE!\"\n        );\n\n        // collect performance fees\n        uint256 amountAfterFees = _collectPerformanceFees(_asset, _amount);\n\n        // keep track of the asset's balance\n        balances[_asset] -= _amount;\n\n        // Approval to allow aave to spend this smart contract asset\n        IERC20(_asset).safeIncreaseAllowance(address(this), amountAfterFees);\n\n        //Transfers the asset from this smart contract to user's wallet\n        IERC20(_asset).safeTransferFrom(\n            address(this),\n            msg.sender,\n            amountAfterFees\n        );\n\n        emit Withdraw(_asset, amountAfterFees);\n    }\n\n    /**\n     * _collectReferalFees verifies first if the user has a referal wealth manager.\n     * If it is the case, it computes the fees and substract from the deposited amount and transfer to the FeesCollector.\n     * @param _asset asset to deposit\n     * @param _amount asset quantity to deposit\n     * @return the remaining amount after the applied fees.\n     */\n    function _collectReferalFees(address _asset, uint256 _amount)\n        private\n        returns (uint256)\n    {\n        require(_amount > 100);\n        uint256 fees = (_amount * _referalCommission) / 100;\n\n        // Allow this smart contract to spend fees amount in behalf of the _userClone\n        IERC20(_asset).safeIncreaseAllowance(address(this), fees);\n\n        // Transfer referal fees to the fees collector\n        IERC20(_asset).safeTransferFrom(\n            address(this),\n            address(_feesCollector),\n            fees\n        );\n\n        return _amount - fees;\n    }\n\n    /**\n     *  _collectPerformanceFees computes the performance fees and substract the fees from the withdraw amount asked.\n     * The fees are collected by the FeesCollector.\n     * @param _asset asset to withdraw\n     * @param _amount asset quantity to withdraw\n     * @return the remaining amount to withdraw after the applied fees.\n     */\n    function _collectPerformanceFees(address _asset, uint256 _amount)\n        private\n        returns (uint256)\n    {\n        require(_amount > 0, \"amount must be > 0\");\n        uint256 lastPrice = _priceFeed.getLatestPrice(_asset);\n        int256 profitOrLoss = (int256(lastPrice) -\n            int256(assetAvgCost[_asset])) * int256(_amount);\n\n        if (profitOrLoss > 100) {\n            // 100 is the minimum to be able to compute the fees\n            uint256 dollarFees = (uint256(profitOrLoss) *\n                _performanceCommission) / 100;\n            uint256 feesQty = dollarFees / _amount;\n\n            // Allow this smart contract to spend fees amount\n            IERC20(_asset).safeIncreaseAllowance(address(this), feesQty);\n\n            // Transfer performance fees to the fees collector\n            IERC20(_asset).safeTransferFrom(\n                address(this),\n                address(_feesCollector),\n                feesQty\n            );\n\n            return _amount - feesQty;\n        } else {\n            return _amount;\n        }\n    }\n\n    /**\n     * _computeAssetAvgCost computes the asset avg cost\n     * @param _asset asset to compute the avg cost\n     * @param _depositAmount amount the user is depositing\n     */\n    function _computeAssetAvgCost(address _asset, uint256 _depositAmount)\n        private\n        view\n        returns (uint256)\n    {\n        uint256 totalQty = balances[_asset] + _depositAmount;\n        require(totalQty > 0, \"No quantity!\");\n        uint256 currentTotalValue = balances[_asset] * assetAvgCost[_asset];\n\n        uint256 lastPrice = _priceFeed.getLatestPrice(_asset);\n\n        uint256 depositTotalValue = _depositAmount * lastPrice;\n\n        return (depositTotalValue + currentTotalValue) / totalQty;\n    }\n}\n",
  "sourcePath": "/Users/guillaumedebavelaere/alyra/projects/HelloDefi/truffle/contracts/HelloDefiAAVE2.sol",
  "compiler": {
    "name": "solc",
    "version": "0.8.17+commit.8df45f5f.Emscripten.clang"
  },
  "schemaVersion": "3.4.11",
  "updatedAt": "2022-12-04T21:50:41.066Z",
  "devdoc": {
    "details": "This smart contract interacts with AAVE protocol v2.It is created as a clone from the HelloDefiAAVE2Factory.",
    "kind": "dev",
    "methods": {
      "deposit(address,uint256)": {
        "details": "Deposits an `amount` of underlying asset into this smart contract. Referal fees are applied. Then the smart contract deposits the (amount - fees) into AAVE in behalf of the user, receiving in return overlying aTokens in the smart contract. - E.g. User deposits 100 USDC to the SC and the SC will deposit into AAVE 98 USDC to get in return 98 aUSDC (received into the SC). Before calling this function, it requires the user to approve this smart contract to spend his asset.",
        "params": {
          "_amount": "The amount to be deposited.*",
          "_asset": "The address of the underlying asset to deposit."
        }
      },
      "initialize(address,address,address,address)": {
        "details": "As HelloDefiAAVE2 is used as a Clone, there is no constructor.Call this function to initialize the clone instead.",
        "params": {
          "_aaveILendingPoolAddress": "aave lending pool smart contract address",
          "_feesCollectorAddress": "fees collector smart contract address",
          "_priceFeedAddress": "price feed address",
          "_user": "is the adress of the owner of this initialized clone"
        }
      },
      "owner()": {
        "details": "Returns the address of the current owner."
      },
      "renounceOwnership()": {
        "details": "Leaves the contract without owner. It will not be possible to call `onlyOwner` functions anymore. Can only be called by the current owner. NOTE: Renouncing ownership will leave the contract without an owner, thereby removing any functionality that is only available to the owner."
      },
      "transferOwnership(address)": {
        "details": "Transfers ownership of the contract to a new account (`newOwner`). Can only be called by the current owner."
      },
      "withdraw(address,uint256)": {
        "details": "Withdraws an `amount` of underlying _asset from the AAVE reserve, burning the equivalent aTokens owned by the smart contract E.g. Smart contract has 100 aUSDC, calls withdraw() and receives 100 USDC, burning the 100 aUSDC. 100 USDC are then returned to the user (msg.sender)",
        "params": {
          "_amount": "The underlying amount to be withdrawn*",
          "_asset": "The address of the underlying asset to withdraw"
        }
      }
    },
    "title": "HelloDefiAAVE2",
    "version": 1
  },
  "userdoc": {
    "kind": "user",
    "methods": {},
    "version": 1
  }
}