{
  "contractName": "HelloDefiAAVE2Factory",
  "abi": [
    {
      "inputs": [
        {
          "internalType": "address",
          "name": "_aaveLendingPoolAddress",
          "type": "address"
        },
        {
          "internalType": "address",
          "name": "_aaveProtocolDataProviderAddress",
          "type": "address"
        },
        {
          "internalType": "address",
          "name": "_priceFeedAddress",
          "type": "address"
        },
        {
          "internalType": "address",
          "name": "_feesManagerAddress",
          "type": "address"
        }
      ],
      "stateMutability": "nonpayable",
      "type": "constructor"
    },
    {
      "anonymous": false,
      "inputs": [
        {
          "indexed": true,
          "internalType": "address",
          "name": "_owner",
          "type": "address"
        },
        {
          "indexed": false,
          "internalType": "address",
          "name": "_clone",
          "type": "address"
        }
      ],
      "name": "CloneCreated",
      "type": "event"
    },
    {
      "inputs": [
        {
          "internalType": "address",
          "name": "",
          "type": "address"
        }
      ],
      "name": "userContracts",
      "outputs": [
        {
          "internalType": "address",
          "name": "",
          "type": "address"
        }
      ],
      "stateMutability": "view",
      "type": "function",
      "constant": true
    },
    {
      "inputs": [],
      "name": "createClone",
      "outputs": [],
      "stateMutability": "nonpayable",
      "type": "function"
    }
  ],
  "bytecode": "0x61012060405234801561001157600080fd5b50604051612fb2380380612fb2833981810160405281019061003391906101d9565b60405161003f90610169565b604051809103906000f08015801561005b573d6000803e3d6000fd5b5073ffffffffffffffffffffffffffffffffffffffff1660808173ffffffffffffffffffffffffffffffffffffffff16815250508373ffffffffffffffffffffffffffffffffffffffff1660a08173ffffffffffffffffffffffffffffffffffffffff16815250508273ffffffffffffffffffffffffffffffffffffffff1660c08173ffffffffffffffffffffffffffffffffffffffff16815250508173ffffffffffffffffffffffffffffffffffffffff1660e08173ffffffffffffffffffffffffffffffffffffffff16815250508073ffffffffffffffffffffffffffffffffffffffff166101008173ffffffffffffffffffffffffffffffffffffffff168152505050505050610240565b6128208061079283390190565b600080fd5b600073ffffffffffffffffffffffffffffffffffffffff82169050919050565b60006101a68261017b565b9050919050565b6101b68161019b565b81146101c157600080fd5b50565b6000815190506101d3816101ad565b92915050565b600080600080608085870312156101f3576101f2610176565b5b6000610201878288016101c4565b9450506020610212878288016101c4565b9350506040610223878288016101c4565b9250506060610234878288016101c4565b91505092959194509250565b60805160a05160c05160e05161010051610510610282600039600061015601526000610135015260006101140152600060f30152600060af01526105106000f3fe608060405234801561001057600080fd5b50600436106100365760003560e01c80630687b7851461003b57806364f2d4b91461006b575b600080fd5b610055600480360381019061005091906103b3565b610075565b60405161006291906103ef565b60405180910390f35b6100736100a8565b005b60006020528060005260406000206000915054906101000a900473ffffffffffffffffffffffffffffffffffffffff1681565b60006100d37f0000000000000000000000000000000000000000000000000000000000000000610296565b90508073ffffffffffffffffffffffffffffffffffffffff16631459457a7f00000000000000000000000000000000000000000000000000000000000000007f00000000000000000000000000000000000000000000000000000000000000007f00000000000000000000000000000000000000000000000000000000000000007f0000000000000000000000000000000000000000000000000000000000000000336040518663ffffffff1660e01b815260040161019695949392919061040a565b600060405180830381600087803b1580156101b057600080fd5b505af11580156101c4573d6000803e3d6000fd5b50505050806000803373ffffffffffffffffffffffffffffffffffffffff1673ffffffffffffffffffffffffffffffffffffffff16815260200190815260200160002060006101000a81548173ffffffffffffffffffffffffffffffffffffffff021916908373ffffffffffffffffffffffffffffffffffffffff1602179055503373ffffffffffffffffffffffffffffffffffffffff167f3d2b821286d97aa9d35330d87a82f7b548b9737b10e2d1ba59994edfd50e9d2b8260405161028b91906103ef565b60405180910390a250565b6000763d602d80600a3d3981f3363d3d373d3d3d363d730000008260601b60e81c176000526e5af43d82803e903d91602b57fd5bf38260781b17602052603760096000f09050600073ffffffffffffffffffffffffffffffffffffffff168173ffffffffffffffffffffffffffffffffffffffff160361034b576040517f08c379a0000000000000000000000000000000000000000000000000000000008152600401610342906104ba565b60405180910390fd5b919050565b600080fd5b600073ffffffffffffffffffffffffffffffffffffffff82169050919050565b600061038082610355565b9050919050565b61039081610375565b811461039b57600080fd5b50565b6000813590506103ad81610387565b92915050565b6000602082840312156103c9576103c8610350565b5b60006103d78482850161039e565b91505092915050565b6103e981610375565b82525050565b600060208201905061040460008301846103e0565b92915050565b600060a08201905061041f60008301886103e0565b61042c60208301876103e0565b61043960408301866103e0565b61044660608301856103e0565b61045360808301846103e0565b9695505050505050565b600082825260208201905092915050565b7f455243313136373a20637265617465206661696c656400000000000000000000600082015250565b60006104a460168361045d565b91506104af8261046e565b602082019050919050565b600060208201905081810360008301526104d381610497565b905091905056fea2646970667358221220d463841fd2390c7ba143c2fc0efbf99c4984b7fe669ac4202c99c28c6bde551964736f6c6343000811003360806040523480156200001157600080fd5b5062000032620000266200003860201b60201c565b6200004060201b60201c565b62000104565b600033905090565b60008060009054906101000a900473ffffffffffffffffffffffffffffffffffffffff169050816000806101000a81548173ffffffffffffffffffffffffffffffffffffffff021916908373ffffffffffffffffffffffffffffffffffffffff1602179055508173ffffffffffffffffffffffffffffffffffffffff168173ffffffffffffffffffffffffffffffffffffffff167f8be0079c531659141344cd1fd0a4f28419497f9722a3daafe3b4186f6b6457e060405160405180910390a35050565b61270c80620001146000396000f3fe608060405234801561001057600080fd5b50600436106100885760003560e01c80638da5cb5b1161005b5780638da5cb5b146100ff578063cfe69a051461011d578063f2fde38b1461014d578063f3fef3a31461016957610088565b80631459457a1461008d57806347e7ef24146100a9578063715018a6146100c55780638810a2f9146100cf575b600080fd5b6100a760048036038101906100a29190611770565b610185565b005b6100c360048036038101906100be9190611821565b6103d2565b005b6100cd61062f565b005b6100e960048036038101906100e49190611861565b610643565b6040516100f6919061189d565b60405180910390f35b61010761065b565b60405161011491906118c7565b60405180910390f35b61013760048036038101906101329190611861565b610684565b604051610144919061189d565b60405180910390f35b61016760048036038101906101629190611861565b61069c565b005b610183600480360381019061017e9190611821565b61071f565b005b60008060159054906101000a900460ff161590508080156101b857506001600060149054906101000a900460ff1660ff16105b806101e757506101c730610b3b565b1580156101e657506001600060149054906101000a900460ff1660ff16145b5b610226576040517f08c379a000000000000000000000000000000000000000000000000000000000815260040161021d90611965565b60405180910390fd5b6001600060146101000a81548160ff021916908360ff1602179055508015610264576001600060156101000a81548160ff0219169083151502179055505b85600160006101000a81548173ffffffffffffffffffffffffffffffffffffffff021916908373ffffffffffffffffffffffffffffffffffffffff16021790555084600260006101000a81548173ffffffffffffffffffffffffffffffffffffffff021916908373ffffffffffffffffffffffffffffffffffffffff16021790555083600360006101000a81548173ffffffffffffffffffffffffffffffffffffffff021916908373ffffffffffffffffffffffffffffffffffffffff16021790555082600460006101000a81548173ffffffffffffffffffffffffffffffffffffffff021916908373ffffffffffffffffffffffffffffffffffffffff16021790555061037182610b5e565b80156103ca5760008060156101000a81548160ff0219169083151502179055507f7f26b83ff96e1f2b6a682f133852f6798a09c465da95921460cefb384740249860016040516103c191906119d7565b60405180910390a15b505050505050565b6103da610c22565b6000811161041d576040517f08c379a000000000000000000000000000000000000000000000000000000000815260040161041490611a3e565b60405180910390fd5b61044a3330838573ffffffffffffffffffffffffffffffffffffffff16610ca0909392919063ffffffff16565b60006104568383610d29565b90506104628382610de4565b600660008573ffffffffffffffffffffffffffffffffffffffff1673ffffffffffffffffffffffffffffffffffffffff1681526020019081526020016000208190555080600560008573ffffffffffffffffffffffffffffffffffffffff1673ffffffffffffffffffffffffffffffffffffffff16815260200190815260200160002060008282546104f49190611a8d565b92505081905550610548600160009054906101000a900473ffffffffffffffffffffffffffffffffffffffff16828573ffffffffffffffffffffffffffffffffffffffff16610fd89092919063ffffffff16565b600160009054906101000a900473ffffffffffffffffffffffffffffffffffffffff1673ffffffffffffffffffffffffffffffffffffffff1663e8eda9df84833060006040518563ffffffff1660e01b81526004016105aa9493929190611b0a565b600060405180830381600087803b1580156105c457600080fd5b505af11580156105d8573d6000803e3d6000fd5b505050508273ffffffffffffffffffffffffffffffffffffffff167fe1fffcc4923d04b559f4d29a8bfc6cda04eb5b0d3c460751c2402c5c5cc9109c82604051610622919061189d565b60405180910390a2505050565b610637610c22565b6106416000610b5e565b565b60066020528060005260406000206000915090505481565b60008060009054906101000a900473ffffffffffffffffffffffffffffffffffffffff16905090565b60056020528060005260406000206000915090505481565b6106a4610c22565b600073ffffffffffffffffffffffffffffffffffffffff168173ffffffffffffffffffffffffffffffffffffffff1603610713576040517f08c379a000000000000000000000000000000000000000000000000000000000815260040161070a90611bc1565b60405180910390fd5b61071c81610b5e565b50565b610727610c22565b6000811161076a576040517f08c379a000000000000000000000000000000000000000000000000000000000815260040161076190611c2d565b60405180910390fd5b6000600260009054906101000a900473ffffffffffffffffffffffffffffffffffffffff1673ffffffffffffffffffffffffffffffffffffffff166328dd2d0184306040518363ffffffff1660e01b81526004016107c9929190611c4d565b61012060405180830381865afa1580156107e7573d6000803e3d6000fd5b505050506040513d601f19601f8201168201806040525081019061080b9190611d00565b5050505050505050905080821115610858576040517f08c379a000000000000000000000000000000000000000000000000000000000815260040161084f90611e16565b60405180910390fd5b6000600360009054906101000a900473ffffffffffffffffffffffffffffffffffffffff1673ffffffffffffffffffffffffffffffffffffffff166316345f18856040518263ffffffff1660e01b81526004016108b591906118c7565b602060405180830381865afa1580156108d2573d6000803e3d6000fd5b505050506040513d601f19601f820116820180604052508101906108f69190611e36565b905060006109058584846110ea565b90508084111561091757809350600091505b6000600160009054906101000a900473ffffffffffffffffffffffffffffffffffffffff1673ffffffffffffffffffffffffffffffffffffffff166369328dec8787306040518463ffffffff1660e01b815260040161097893929190611e63565b6020604051808303816000875af1158015610997573d6000803e3d6000fd5b505050506040513d601f19601f820116820180604052508101906109bb9190611e36565b116109fb576040517f08c379a00000000000000000000000000000000000000000000000000000000081526004016109f290611ee6565b60405180910390fd5b8381610a079190611f06565b600560008773ffffffffffffffffffffffffffffffffffffffff1673ffffffffffffffffffffffffffffffffffffffff1681526020019081526020016000208190555081600660008773ffffffffffffffffffffffffffffffffffffffff1673ffffffffffffffffffffffffffffffffffffffff16815260200190815260200160002081905550610ab930858773ffffffffffffffffffffffffffffffffffffffff16610fd89092919063ffffffff16565b610ae63033868873ffffffffffffffffffffffffffffffffffffffff16610ca0909392919063ffffffff16565b8473ffffffffffffffffffffffffffffffffffffffff167f884edad9ce6fa2440d8a54cc123490eb96d2768479d49ff9c7366125a942436485604051610b2c919061189d565b60405180910390a25050505050565b6000808273ffffffffffffffffffffffffffffffffffffffff163b119050919050565b60008060009054906101000a900473ffffffffffffffffffffffffffffffffffffffff169050816000806101000a81548173ffffffffffffffffffffffffffffffffffffffff021916908373ffffffffffffffffffffffffffffffffffffffff1602179055508173ffffffffffffffffffffffffffffffffffffffff168173ffffffffffffffffffffffffffffffffffffffff167f8be0079c531659141344cd1fd0a4f28419497f9722a3daafe3b4186f6b6457e060405160405180910390a35050565b610c2a6112b1565b73ffffffffffffffffffffffffffffffffffffffff16610c4861065b565b73ffffffffffffffffffffffffffffffffffffffff1614610c9e576040517f08c379a0000000000000000000000000000000000000000000000000000000008152600401610c9590611f86565b60405180910390fd5b565b610d23846323b872dd60e01b858585604051602401610cc193929190611fa6565b604051602081830303815290604052907bffffffffffffffffffffffffffffffffffffffffffffffffffffffff19166020820180517bffffffffffffffffffffffffffffffffffffffffffffffffffffffff83818316178352505050506112b9565b50505050565b600060648211610d3857600080fd5b60006064600284610d499190611fdd565b610d53919061204e565b9050610d8030828673ffffffffffffffffffffffffffffffffffffffff16610fd89092919063ffffffff16565b610dcf30600460009054906101000a900473ffffffffffffffffffffffffffffffffffffffff16838773ffffffffffffffffffffffffffffffffffffffff16610ca0909392919063ffffffff16565b8083610ddb9190611f06565b91505092915050565b60008082600560008673ffffffffffffffffffffffffffffffffffffffff1673ffffffffffffffffffffffffffffffffffffffff16815260200190815260200160002054610e329190611a8d565b905060008111610e77576040517f08c379a0000000000000000000000000000000000000000000000000000000008152600401610e6e906120cb565b60405180910390fd5b6000600660008673ffffffffffffffffffffffffffffffffffffffff1673ffffffffffffffffffffffffffffffffffffffff16815260200190815260200160002054600560008773ffffffffffffffffffffffffffffffffffffffff1673ffffffffffffffffffffffffffffffffffffffff16815260200190815260200160002054610f039190611fdd565b90506000600360009054906101000a900473ffffffffffffffffffffffffffffffffffffffff1673ffffffffffffffffffffffffffffffffffffffff166316345f18876040518263ffffffff1660e01b8152600401610f6291906118c7565b602060405180830381865afa158015610f7f573d6000803e3d6000fd5b505050506040513d601f19601f82011682018060405250810190610fa39190611e36565b905060008186610fb39190611fdd565b9050838382610fc29190611a8d565b610fcc919061204e565b94505050505092915050565b6000818473ffffffffffffffffffffffffffffffffffffffff1663dd62ed3e30866040518363ffffffff1660e01b8152600401611016929190611c4d565b602060405180830381865afa158015611033573d6000803e3d6000fd5b505050506040513d601f19601f820116820180604052508101906110579190611e36565b6110619190611a8d565b90506110e48463095ea7b360e01b85846040516024016110829291906120eb565b604051602081830303815290604052907bffffffffffffffffffffffffffffffffffffffffffffffffffffffff19166020820180517bffffffffffffffffffffffffffffffffffffffffffffffffffffffff83818316178352505050506112b9565b50505050565b6000806110f78585611380565b90506000670de0b6b3a7640000858386611111919061211e565b61111b9190612161565b61112591906121d9565b905060648113156112a45760006064600a836111419190611fdd565b61114b919061204e565b9050600085670de0b6b3a7640000836111649190611fdd565b61116e919061204e565b9050600160009054906101000a900473ffffffffffffffffffffffffffffffffffffffff1673ffffffffffffffffffffffffffffffffffffffff166369328dec8983306040518463ffffffff1660e01b81526004016111cf93929190611e63565b6020604051808303816000875af11580156111ee573d6000803e3d6000fd5b505050506040513d601f19601f820116820180604052508101906112129190611e36565b5061123e30828a73ffffffffffffffffffffffffffffffffffffffff16610fd89092919063ffffffff16565b61128d30600460009054906101000a900473ffffffffffffffffffffffffffffffffffffffff16838b73ffffffffffffffffffffffffffffffffffffffff16610ca0909392919063ffffffff16565b80876112999190611f06565b9450505050506112aa565b84925050505b9392505050565b600033905090565b600061131b826040518060400160405280602081526020017f5361666545524332303a206c6f772d6c6576656c2063616c6c206661696c65648152508573ffffffffffffffffffffffffffffffffffffffff166115409092919063ffffffff16565b905060008151111561137b578080602001905181019061133b9190612243565b61137a576040517f08c379a0000000000000000000000000000000000000000000000000000000008152600401611371906122e2565b60405180910390fd5b5b505050565b600080600660008573ffffffffffffffffffffffffffffffffffffffff1673ffffffffffffffffffffffffffffffffffffffff16815260200190815260200160002054600560008673ffffffffffffffffffffffffffffffffffffffff1673ffffffffffffffffffffffffffffffffffffffff1681526020019081526020016000205461140d9190611fdd565b905060128473ffffffffffffffffffffffffffffffffffffffff1663313ce5676040518163ffffffff1660e01b8152600401602060405180830381865afa15801561145c573d6000803e3d6000fd5b505050506040513d601f19601f82011682018060405250810190611480919061232e565b60ff16101561152b576000670de0b6b3a76400008573ffffffffffffffffffffffffffffffffffffffff1663313ce5676040518163ffffffff1660e01b8152600401602060405180830381865afa1580156114df573d6000803e3d6000fd5b505050506040513d601f19601f82011682018060405250810190611503919061232e565b600a61150f919061248e565b611519919061204e565b905080826115279190611fdd565b9150505b8281611537919061204e565b91505092915050565b606061154f8484600085611558565b90509392505050565b60608247101561159d576040517f08c379a00000000000000000000000000000000000000000000000000000000081526004016115949061254b565b60405180910390fd5b6000808673ffffffffffffffffffffffffffffffffffffffff1685876040516115c691906125dc565b60006040518083038185875af1925050503d8060008114611603576040519150601f19603f3d011682016040523d82523d6000602084013e611608565b606091505b509150915061161987838387611625565b92505050949350505050565b6060831561168757600083510361167f5761163f8561169a565b61167e576040517f08c379a00000000000000000000000000000000000000000000000000000000081526004016116759061263f565b60405180910390fd5b5b829050611692565b61169183836116bd565b5b949350505050565b6000808273ffffffffffffffffffffffffffffffffffffffff163b119050919050565b6000825111156116d05781518083602001fd5b806040517f08c379a000000000000000000000000000000000000000000000000000000000815260040161170491906126b4565b60405180910390fd5b600080fd5b600073ffffffffffffffffffffffffffffffffffffffff82169050919050565b600061173d82611712565b9050919050565b61174d81611732565b811461175857600080fd5b50565b60008135905061176a81611744565b92915050565b600080600080600060a0868803121561178c5761178b61170d565b5b600061179a8882890161175b565b95505060206117ab8882890161175b565b94505060406117bc8882890161175b565b93505060606117cd8882890161175b565b92505060806117de8882890161175b565b9150509295509295909350565b6000819050919050565b6117fe816117eb565b811461180957600080fd5b50565b60008135905061181b816117f5565b92915050565b600080604083850312156118385761183761170d565b5b60006118468582860161175b565b92505060206118578582860161180c565b9150509250929050565b6000602082840312156118775761187661170d565b5b60006118858482850161175b565b91505092915050565b611897816117eb565b82525050565b60006020820190506118b2600083018461188e565b92915050565b6118c181611732565b82525050565b60006020820190506118dc60008301846118b8565b92915050565b600082825260208201905092915050565b7f496e697469616c697a61626c653a20636f6e747261637420697320616c72656160008201527f647920696e697469616c697a6564000000000000000000000000000000000000602082015250565b600061194f602e836118e2565b915061195a826118f3565b604082019050919050565b6000602082019050818103600083015261197e81611942565b9050919050565b6000819050919050565b600060ff82169050919050565b6000819050919050565b60006119c16119bc6119b784611985565b61199c565b61198f565b9050919050565b6119d1816119a6565b82525050565b60006020820190506119ec60008301846119c8565b92915050565b7f616d6f756e74206d757374206265203e20302100000000000000000000000000600082015250565b6000611a286013836118e2565b9150611a33826119f2565b602082019050919050565b60006020820190508181036000830152611a5781611a1b565b9050919050565b7f4e487b7100000000000000000000000000000000000000000000000000000000600052601160045260246000fd5b6000611a98826117eb565b9150611aa3836117eb565b9250828201905080821115611abb57611aba611a5e565b5b92915050565b6000819050919050565b600061ffff82169050919050565b6000611af4611aef611aea84611ac1565b61199c565b611acb565b9050919050565b611b0481611ad9565b82525050565b6000608082019050611b1f60008301876118b8565b611b2c602083018661188e565b611b3960408301856118b8565b611b466060830184611afb565b95945050505050565b7f4f776e61626c653a206e6577206f776e657220697320746865207a65726f206160008201527f6464726573730000000000000000000000000000000000000000000000000000602082015250565b6000611bab6026836118e2565b9150611bb682611b4f565b604082019050919050565b60006020820190508181036000830152611bda81611b9e565b9050919050565b7f5f616d6f756e74206d757374206265203e203021000000000000000000000000600082015250565b6000611c176014836118e2565b9150611c2282611be1565b602082019050919050565b60006020820190508181036000830152611c4681611c0a565b9050919050565b6000604082019050611c6260008301856118b8565b611c6f60208301846118b8565b9392505050565b600081519050611c85816117f5565b92915050565b600064ffffffffff82169050919050565b611ca581611c8b565b8114611cb057600080fd5b50565b600081519050611cc281611c9c565b92915050565b60008115159050919050565b611cdd81611cc8565b8114611ce857600080fd5b50565b600081519050611cfa81611cd4565b92915050565b60008060008060008060008060006101208a8c031215611d2357611d2261170d565b5b6000611d318c828d01611c76565b9950506020611d428c828d01611c76565b9850506040611d538c828d01611c76565b9750506060611d648c828d01611c76565b9650506080611d758c828d01611c76565b95505060a0611d868c828d01611c76565b94505060c0611d978c828d01611c76565b93505060e0611da88c828d01611cb3565b925050610100611dba8c828d01611ceb565b9150509295985092959850929598565b7f496e73756666696369616e742062616c616e6365000000000000000000000000600082015250565b6000611e006014836118e2565b9150611e0b82611dca565b602082019050919050565b60006020820190508181036000830152611e2f81611df3565b9050919050565b600060208284031215611e4c57611e4b61170d565b5b6000611e5a84828501611c76565b91505092915050565b6000606082019050611e7860008301866118b8565b611e85602083018561188e565b611e9260408301846118b8565b949350505050565b7f30207768697468647261776e2066726f6d204141564521000000000000000000600082015250565b6000611ed06017836118e2565b9150611edb82611e9a565b602082019050919050565b60006020820190508181036000830152611eff81611ec3565b9050919050565b6000611f11826117eb565b9150611f1c836117eb565b9250828203905081811115611f3457611f33611a5e565b5b92915050565b7f4f776e61626c653a2063616c6c6572206973206e6f7420746865206f776e6572600082015250565b6000611f706020836118e2565b9150611f7b82611f3a565b602082019050919050565b60006020820190508181036000830152611f9f81611f63565b9050919050565b6000606082019050611fbb60008301866118b8565b611fc860208301856118b8565b611fd5604083018461188e565b949350505050565b6000611fe8826117eb565b9150611ff3836117eb565b9250828202612001816117eb565b9150828204841483151761201857612017611a5e565b5b5092915050565b7f4e487b7100000000000000000000000000000000000000000000000000000000600052601260045260246000fd5b6000612059826117eb565b9150612064836117eb565b9250826120745761207361201f565b5b828204905092915050565b7f4e6f207175616e74697479210000000000000000000000000000000000000000600082015250565b60006120b5600c836118e2565b91506120c08261207f565b602082019050919050565b600060208201905081810360008301526120e4816120a8565b9050919050565b600060408201905061210060008301856118b8565b61210d602083018461188e565b9392505050565b6000819050919050565b600061212982612114565b915061213483612114565b925082820390508181126000841216828213600085121516171561215b5761215a611a5e565b5b92915050565b600061216c82612114565b915061217783612114565b925082820261218581612114565b91507f800000000000000000000000000000000000000000000000000000000000000084146000841216156121bd576121bc611a5e565b5b82820584148315176121d2576121d1611a5e565b5b5092915050565b60006121e482612114565b91506121ef83612114565b9250826121ff576121fe61201f565b5b600160000383147f80000000000000000000000000000000000000000000000000000000000000008314161561223857612237611a5e565b5b828205905092915050565b6000602082840312156122595761225861170d565b5b600061226784828501611ceb565b91505092915050565b7f5361666545524332303a204552433230206f7065726174696f6e20646964206e60008201527f6f74207375636365656400000000000000000000000000000000000000000000602082015250565b60006122cc602a836118e2565b91506122d782612270565b604082019050919050565b600060208201905081810360008301526122fb816122bf565b9050919050565b61230b8161198f565b811461231657600080fd5b50565b60008151905061232881612302565b92915050565b6000602082840312156123445761234361170d565b5b600061235284828501612319565b91505092915050565b60008160011c9050919050565b6000808291508390505b60018511156123b25780860481111561238e5761238d611a5e565b5b600185161561239d5780820291505b80810290506123ab8561235b565b9450612372565b94509492505050565b6000826123cb5760019050612487565b816123d95760009050612487565b81600181146123ef57600281146123f957612428565b6001915050612487565b60ff84111561240b5761240a611a5e565b5b8360020a91508482111561242257612421611a5e565b5b50612487565b5060208310610133831016604e8410600b841016171561245d5782820a90508381111561245857612457611a5e565b5b612487565b61246a8484846001612368565b9250905081840481111561248157612480611a5e565b5b81810290505b9392505050565b6000612499826117eb565b91506124a48361198f565b92506124d17fffffffffffffffffffffffffffffffffffffffffffffffffffffffffffffffff84846123bb565b905092915050565b7f416464726573733a20696e73756666696369656e742062616c616e636520666f60008201527f722063616c6c0000000000000000000000000000000000000000000000000000602082015250565b60006125356026836118e2565b9150612540826124d9565b604082019050919050565b6000602082019050818103600083015261256481612528565b9050919050565b600081519050919050565b600081905092915050565b60005b8381101561259f578082015181840152602081019050612584565b60008484015250505050565b60006125b68261256b565b6125c08185612576565b93506125d0818560208601612581565b80840191505092915050565b60006125e882846125ab565b915081905092915050565b7f416464726573733a2063616c6c20746f206e6f6e2d636f6e7472616374000000600082015250565b6000612629601d836118e2565b9150612634826125f3565b602082019050919050565b600060208201905081810360008301526126588161261c565b9050919050565b600081519050919050565b6000601f19601f8301169050919050565b60006126868261265f565b61269081856118e2565b93506126a0818560208601612581565b6126a98161266a565b840191505092915050565b600060208201905081810360008301526126ce818461267b565b90509291505056fea26469706673582212206da2861c8d35566117980e2827ac8f56469273183e088570e2429b82353265b564736f6c63430008110033",
  "immutableReferences": {
    "3115": [
      {
        "length": 32,
        "start": 175
      }
    ],
    "3117": [
      {
        "length": 32,
        "start": 243
      }
    ],
    "3119": [
      {
        "length": 32,
        "start": 276
      }
    ],
    "3121": [
      {
        "length": 32,
        "start": 309
      }
    ],
    "3123": [
      {
        "length": 32,
        "start": 342
      }
    ]
  },
  "source": "// SPDX-License-Identifier: MIT\npragma solidity 0.8.17;\n\nimport \"./ILendingPoolAAVE2.sol\";\nimport \"./HelloDefiAAVE2.sol\";\nimport \"@openzeppelin/contracts/interfaces/IERC20.sol\";\nimport \"@openzeppelin/contracts/proxy/Clones.sol\";\n\n/**\n * @title HelloDefiAAVE2Factory\n * @dev This smart contract creates and keep track of the HelloDefiAAVE2 smart contract using the clone pattern in order to save gas.\n */\ncontract HelloDefiAAVE2Factory {\n    address immutable helloDefiAAVE2TemplateAddress;\n    address immutable aaveLendingPoolAddress;\n    address immutable aaveProtocolDataProviderAddress;\n    address immutable priceFeedAddress;\n    address immutable feesManagerAddress;\n\n    // mapping to keep track of the user smart contracts: user's adress => HelloDefiAAVE2 smart contract.\n    mapping(address => address) public userContracts;\n\n    event CloneCreated(address indexed  _owner, address _clone);\n\n    constructor(\n        address _aaveLendingPoolAddress,\n        address _aaveProtocolDataProviderAddress,\n        address  _priceFeedAddress,\n        address _feesManagerAddress\n    ) {\n        helloDefiAAVE2TemplateAddress = address(new HelloDefiAAVE2());\n        aaveLendingPoolAddress = _aaveLendingPoolAddress;\n        aaveProtocolDataProviderAddress = _aaveProtocolDataProviderAddress;\n        priceFeedAddress =  _priceFeedAddress;\n        feesManagerAddress = _feesManagerAddress;\n    }\n\n    // Create a clone of HelloDefiAAVE2 contract\n    function createClone() external {\n        address clone = Clones.clone(helloDefiAAVE2TemplateAddress);\n        HelloDefiAAVE2(clone).initialize(\n            aaveLendingPoolAddress,\n            aaveProtocolDataProviderAddress,\n            priceFeedAddress,\n            feesManagerAddress,\n            msg.sender\n        );\n        userContracts[msg.sender] = clone;\n        emit CloneCreated(msg.sender, clone);\n    }\n}\n",
  "sourcePath": "/Users/guillaumedebavelaere/alyra/projects/HelloDefi/truffle/contracts/HelloDefiAAVE2Factory.sol",
  "compiler": {
    "name": "solc",
    "version": "0.8.17+commit.8df45f5f.Emscripten.clang"
  },
  "schemaVersion": "3.4.10",
  "updatedAt": "2022-12-08T19:52:05.637Z",
  "networkType": "ethereum",
  "devdoc": {
    "details": "This smart contract creates and keep track of the HelloDefiAAVE2 smart contract using the clone pattern in order to save gas.",
    "kind": "dev",
    "methods": {},
    "title": "HelloDefiAAVE2Factory",
    "version": 1
  },
  "userdoc": {
    "kind": "user",
    "methods": {},
    "version": 1
  }
}