{
  "contractName": "MockPriceFeedConsumer",
  "abi": [
    {
      "inputs": [
        {
          "internalType": "uint256",
          "name": "answer",
          "type": "uint256"
        }
      ],
      "stateMutability": "nonpayable",
      "type": "constructor"
    },
    {
      "inputs": [
        {
          "internalType": "address",
          "name": "_asset",
          "type": "address"
        }
      ],
      "name": "getLatestPrice",
      "outputs": [
        {
          "internalType": "uint256",
          "name": "",
          "type": "uint256"
        }
      ],
      "stateMutability": "view",
      "type": "function"
    },
    {
      "inputs": [
        {
          "internalType": "uint256",
          "name": "answer",
          "type": "uint256"
        }
      ],
      "name": "setAnswer",
      "outputs": [],
      "stateMutability": "nonpayable",
      "type": "function"
    }
  ],
  "bytecode": "0x608060405234801561001057600080fd5b5060405161015438038061015483398101604081905261002f91610037565b600055610050565b60006020828403121561004957600080fd5b5051919050565b60f68061005e6000396000f3fe6080604052348015600f57600080fd5b506004361060325760003560e01c806316345f1814603757806385a013e014605b575b600080fd5b60496042366004606d565b5060005490565b60405190815260200160405180910390f35b606b606636600460a8565b600055565b005b600060208284031215607e57600080fd5b813573ffffffffffffffffffffffffffffffffffffffff8116811460a157600080fd5b9392505050565b60006020828403121560b957600080fd5b503591905056fea26469706673582212207d2572369a5ad7640c323e59b1c2fab46ff9b98e8ff27157bd4c18fbc14692e164736f6c63430008110033",
  "immutableReferences": {},
  "source": "// SPDX-License-Identifier: MIT\npragma solidity 0.8.17;\n\nimport \"../../contracts/PriceFeedConsumer.sol\";\n\ncontract MockPriceFeedConsumer is IPriceFeedConsumer {\n    uint256 private _answer;\n\n    constructor(uint256 answer) {\n        _answer = answer;\n    }\n\n    function getLatestPrice(address _asset) virtual public override view returns (uint256) {\n        return _answer;\n    }\n\n    function setAnswer(uint256 answer) external {\n        _answer = answer;\n    }\n}\n",
  "sourcePath": "/Users/guillaumedebavelaere/alyra/projects/HelloDefi/truffle/test/helpers/MockPriceFeedConsumer.sol",
  "compiler": {
    "name": "solc",
    "version": "0.8.17+commit.8df45f5f.Emscripten.clang"
  },
  "schemaVersion": "3.4.11",
  "updatedAt": "2022-12-11T10:56:47.560Z",
  "devdoc": {
    "kind": "dev",
    "methods": {},
    "version": 1
  },
  "userdoc": {
    "kind": "user",
    "methods": {},
    "version": 1
  }
}