{
  "contractName": "MockLendingPoolAAVE2",
  "abi": [
    {
      "inputs": [
        {
          "internalType": "address",
          "name": "asset",
          "type": "address"
        },
        {
          "internalType": "uint256",
          "name": "amount",
          "type": "uint256"
        },
        {
          "internalType": "address",
          "name": "onBehalfOf",
          "type": "address"
        },
        {
          "internalType": "uint16",
          "name": "referralCode",
          "type": "uint16"
        }
      ],
      "name": "deposit",
      "outputs": [],
      "stateMutability": "nonpayable",
      "type": "function"
    },
    {
      "inputs": [
        {
          "internalType": "address",
          "name": "asset",
          "type": "address"
        },
        {
          "internalType": "uint256",
          "name": "amount",
          "type": "uint256"
        },
        {
          "internalType": "address",
          "name": "to",
          "type": "address"
        }
      ],
      "name": "withdraw",
      "outputs": [
        {
          "internalType": "uint256",
          "name": "",
          "type": "uint256"
        }
      ],
      "stateMutability": "nonpayable",
      "type": "function"
    }
  ],
  "bytecode": "0x608060405234801561001057600080fd5b5061016b806100206000396000f3fe608060405234801561001057600080fd5b50600436106100365760003560e01c806369328dec1461003b578063e8eda9df14610064575b600080fd5b6100526100493660046100a3565b60019392505050565b60405190815260200160405180910390f35b6100786100723660046100df565b50505050565b005b803573ffffffffffffffffffffffffffffffffffffffff8116811461009e57600080fd5b919050565b6000806000606084860312156100b857600080fd5b6100c18461007a565b9250602084013591506100d66040850161007a565b90509250925092565b600080600080608085870312156100f557600080fd5b6100fe8561007a565b9350602085013592506101136040860161007a565b9150606085013561ffff8116811461012a57600080fd5b93969295509093505056fea26469706673582212208b62d245b685fd914ccd127c494349a48e4095f78415590b119794c2854eb2bd64736f6c63430008110033",
  "immutableReferences": {},
  "source": "// SPDX-License-Identifier: MIT\npragma solidity 0.8.17;\n\nimport \"../../contracts/ILendingPoolAAVE2.sol\";\n\ncontract MockLendingPoolAAVE2 is ILendingPoolAAVE2 {\n    function deposit(\n        address asset,\n        uint256 amount,\n        address onBehalfOf,\n        uint16 referralCode\n    ) external override {\n        // nothing to do, it is just a mock\n    }\n\n    function withdraw(\n        address asset,\n        uint256 amount,\n        address to\n    ) external override returns (uint256) {\n        // nothing to do, it is just a mock\n        return 1;\n    }\n}\n",
  "sourcePath": "/Users/guillaumedebavelaere/alyra/projects/HelloDefi/truffle/test/helpers/MockLendingPoolAAVE2.sol",
  "compiler": {
    "name": "solc",
    "version": "0.8.17+commit.8df45f5f.Emscripten.clang"
  },
  "schemaVersion": "3.4.11",
  "updatedAt": "2022-12-11T10:56:47.559Z",
  "devdoc": {
    "kind": "dev",
    "methods": {
      "deposit(address,uint256,address,uint16)": {
        "details": "Deposits an `amount` of underlying asset into the reserve, receiving in return overlying aTokens. - E.g. User deposits 100 USDC and gets in return 100 aUSDC",
        "params": {
          "amount": "The amount to be deposited",
          "asset": "The address of the underlying asset to deposit",
          "onBehalfOf": "The address that will receive the aTokens, same as msg.sender if the user   wants to receive them on his own wallet, or a different address if the beneficiary of aTokens   is a different wallet",
          "referralCode": "Code used to register the integrator originating the operation, for potential rewards.   0 if the action is executed directly by the user, without any middle-man*"
        }
      },
      "withdraw(address,uint256,address)": {
        "details": "Withdraws an `amount` of underlying asset from the reserve, burning the equivalent aTokens owned E.g. User has 100 aUSDC, calls withdraw() and receives 100 USDC, burning the 100 aUSDC",
        "params": {
          "amount": "The underlying amount to be withdrawn   - Send the value type(uint256).max in order to withdraw the whole aToken balance",
          "asset": "The address of the underlying asset to withdraw",
          "to": "Address that will receive the underlying, same as msg.sender if the user   wants to receive it on his own wallet, or a different address if the beneficiary is a   different wallet"
        },
        "returns": {
          "_0": "The final amount withdrawn*"
        }
      }
    },
    "version": 1
  },
  "userdoc": {
    "kind": "user",
    "methods": {},
    "version": 1
  }
}