{
  "contractName": "MockProtocolDataProviderAAVE2",
  "abi": [
    {
      "inputs": [
        {
          "internalType": "uint256",
          "name": "_balance",
          "type": "uint256"
        }
      ],
      "stateMutability": "nonpayable",
      "type": "constructor"
    },
    {
      "inputs": [
        {
          "internalType": "address",
          "name": "asset",
          "type": "address"
        },
        {
          "internalType": "address",
          "name": "user",
          "type": "address"
        }
      ],
      "name": "getUserReserveData",
      "outputs": [
        {
          "internalType": "uint256",
          "name": "currentATokenBalance",
          "type": "uint256"
        },
        {
          "internalType": "uint256",
          "name": "currentStableDebt",
          "type": "uint256"
        },
        {
          "internalType": "uint256",
          "name": "currentVariableDebt",
          "type": "uint256"
        },
        {
          "internalType": "uint256",
          "name": "principalStableDebt",
          "type": "uint256"
        },
        {
          "internalType": "uint256",
          "name": "scaledVariableDebt",
          "type": "uint256"
        },
        {
          "internalType": "uint256",
          "name": "stableBorrowRate",
          "type": "uint256"
        },
        {
          "internalType": "uint256",
          "name": "liquidityRate",
          "type": "uint256"
        },
        {
          "internalType": "uint40",
          "name": "stableRateLastUpdated",
          "type": "uint40"
        },
        {
          "internalType": "bool",
          "name": "usageAsCollateralEnabled",
          "type": "bool"
        }
      ],
      "stateMutability": "view",
      "type": "function"
    },
    {
      "inputs": [
        {
          "internalType": "uint256",
          "name": "_balance",
          "type": "uint256"
        }
      ],
      "name": "setMockedBalance",
      "outputs": [],
      "stateMutability": "nonpayable",
      "type": "function"
    }
  ],
  "bytecode": "0x608060405234801561001057600080fd5b5060405161039d38038061039d8339818101604052810190610032919061007a565b80600081905550506100a7565b600080fd5b6000819050919050565b61005781610044565b811461006257600080fd5b50565b6000815190506100748161004e565b92915050565b6000602082840312156100905761008f61003f565b5b600061009e84828501610065565b91505092915050565b6102e7806100b66000396000f3fe608060405234801561001057600080fd5b50600436106100365760003560e01c80631c5018fd1461003b57806328dd2d0114610057575b600080fd5b6100556004803603810190610050919061010f565b61008f565b005b610071600480360381019061006c919061019a565b610099565b60405161008699989796959493929190610224565b60405180910390f35b8060008190555050565b600080600080600080600080600080546000806000806000806000809850985098509850985098509850985098509295985092959850929598565b600080fd5b6000819050919050565b6100ec816100d9565b81146100f757600080fd5b50565b600081359050610109816100e3565b92915050565b600060208284031215610125576101246100d4565b5b6000610133848285016100fa565b91505092915050565b600073ffffffffffffffffffffffffffffffffffffffff82169050919050565b60006101678261013c565b9050919050565b6101778161015c565b811461018257600080fd5b50565b6000813590506101948161016e565b92915050565b600080604083850312156101b1576101b06100d4565b5b60006101bf85828601610185565b92505060206101d085828601610185565b9150509250929050565b6101e3816100d9565b82525050565b600064ffffffffff82169050919050565b610203816101e9565b82525050565b60008115159050919050565b61021e81610209565b82525050565b60006101208201905061023a600083018c6101da565b610247602083018b6101da565b610254604083018a6101da565b61026160608301896101da565b61026e60808301886101da565b61027b60a08301876101da565b61028860c08301866101da565b61029560e08301856101fa565b6102a3610100830184610215565b9a995050505050505050505056fea2646970667358221220f4ffc0b3f0f96f42b50d51b3e9059ba0c995e4e6d77f00d715e11f5462eacc3564736f6c63430008110033",
  "immutableReferences": {},
  "source": "// SPDX-License-Identifier: MIT\npragma solidity 0.8.17;\n\nimport \"../../contracts/IProtocolDataProviderAAVE2.sol\";\n\ncontract MockProtocolDataProviderAAVE2 is IProtocolDataProviderAAVE2 {\n    uint256 private _mockedBalance;\n\n    constructor(uint256 _balance) {\n        _mockedBalance = _balance;\n    }\n\n    function getUserReserveData(address asset, address user)\n        external\n        view\n        override\n        returns (\n            uint256 currentATokenBalance,\n            uint256 currentStableDebt,\n            uint256 currentVariableDebt,\n            uint256 principalStableDebt,\n            uint256 scaledVariableDebt,\n            uint256 stableBorrowRate,\n            uint256 liquidityRate,\n            uint40 stableRateLastUpdated,\n            bool usageAsCollateralEnabled\n        )\n    {\n        return (_mockedBalance, 0, 0, 0, 0, 0, 0, 0, false);\n    }\n\n    function setMockedBalance(uint256 _balance) external {\n        _mockedBalance = _balance;\n    }\n}\n",
  "sourcePath": "/Users/Adam/Desktop/HelloDefi/ProjectAlyra/truffle/test/helpers/MockProtocolDataProviderAAVE2.sol",
  "compiler": {
    "name": "solc",
    "version": "0.8.17+commit.8df45f5f.Emscripten.clang"
  },
  "schemaVersion": "3.4.10",
  "updatedAt": "2022-12-09T19:58:41.453Z",
  "devdoc": {
    "kind": "dev",
    "methods": {
      "getUserReserveData(address,address)": {
        "details": "Returns the user's reserve data for asset.    "
      }
    },
    "version": 1
  },
  "userdoc": {
    "kind": "user",
    "methods": {},
    "version": 1
  }
}