{
  "contractName": "MockProtocolDataProviderAAVE2",
  "abi": [
    {
      "inputs": [
        {
          "internalType": "uint256",
          "name": "_balance",
          "type": "uint256"
        }
      ],
      "stateMutability": "nonpayable",
      "type": "constructor"
    },
    {
      "inputs": [
        {
          "internalType": "address",
          "name": "asset",
          "type": "address"
        },
        {
          "internalType": "address",
          "name": "user",
          "type": "address"
        }
      ],
      "name": "getUserReserveData",
      "outputs": [
        {
          "internalType": "uint256",
          "name": "currentATokenBalance",
          "type": "uint256"
        },
        {
          "internalType": "uint256",
          "name": "currentStableDebt",
          "type": "uint256"
        },
        {
          "internalType": "uint256",
          "name": "currentVariableDebt",
          "type": "uint256"
        },
        {
          "internalType": "uint256",
          "name": "principalStableDebt",
          "type": "uint256"
        },
        {
          "internalType": "uint256",
          "name": "scaledVariableDebt",
          "type": "uint256"
        },
        {
          "internalType": "uint256",
          "name": "stableBorrowRate",
          "type": "uint256"
        },
        {
          "internalType": "uint256",
          "name": "liquidityRate",
          "type": "uint256"
        },
        {
          "internalType": "uint40",
          "name": "stableRateLastUpdated",
          "type": "uint40"
        },
        {
          "internalType": "bool",
          "name": "usageAsCollateralEnabled",
          "type": "bool"
        }
      ],
      "stateMutability": "view",
      "type": "function"
    },
    {
      "inputs": [
        {
          "internalType": "address",
          "name": "asset",
          "type": "address"
        }
      ],
      "name": "getReserveData",
      "outputs": [
        {
          "internalType": "uint256",
          "name": "availableLiquidity",
          "type": "uint256"
        },
        {
          "internalType": "uint256",
          "name": "totalStableDebt",
          "type": "uint256"
        },
        {
          "internalType": "uint256",
          "name": "totalVariableDebt",
          "type": "uint256"
        },
        {
          "internalType": "uint256",
          "name": "liquidityRate",
          "type": "uint256"
        },
        {
          "internalType": "uint256",
          "name": "variableBorrowRate",
          "type": "uint256"
        },
        {
          "internalType": "uint256",
          "name": "stableBorrowRate",
          "type": "uint256"
        },
        {
          "internalType": "uint256",
          "name": "averageStableBorrowRate",
          "type": "uint256"
        },
        {
          "internalType": "uint256",
          "name": "liquidityIndex",
          "type": "uint256"
        },
        {
          "internalType": "uint256",
          "name": "variableBorrowIndex",
          "type": "uint256"
        },
        {
          "internalType": "uint40",
          "name": "lastUpdateTimestamp",
          "type": "uint40"
        }
      ],
      "stateMutability": "view",
      "type": "function"
    },
    {
      "inputs": [
        {
          "internalType": "uint256",
          "name": "_balance",
          "type": "uint256"
        }
      ],
      "name": "setMockedBalance",
      "outputs": [],
      "stateMutability": "nonpayable",
      "type": "function"
    }
  ],
  "bytecode": "0x608060405234801561001057600080fd5b5060405161027538038061027583398101604081905261002f91610037565b600055610050565b60006020828403121561004957600080fd5b5051919050565b6102168061005f6000396000f3fe608060405234801561001057600080fd5b50600436106100415760003560e01c80631c5018fd1461004657806328dd2d011461005b57806335ea6a75146100d2575b600080fd5b610059610054366004610149565b600055565b005b61008061006936600461018b565b505060008054918190819081908190819081908190565b60408051998a5260208a0198909852968801959095526060870193909352608086019190915260a085015260c084015264ffffffffff1660e08301521515610100820152610120015b60405180910390f35b6100f86100e03660046101be565b60008080808080808080809193959799509193959799565b604080519a8b5260208b0199909952978901969096526060880194909452608087019290925260a086015260c085015260e084015261010083015264ffffffffff16610120820152610140016100c9565b60006020828403121561015b57600080fd5b5035919050565b803573ffffffffffffffffffffffffffffffffffffffff8116811461018657600080fd5b919050565b6000806040838503121561019e57600080fd5b6101a783610162565b91506101b560208401610162565b90509250929050565b6000602082840312156101d057600080fd5b6101d982610162565b939250505056fea264697066735822122078c892671c6c4bc4a01fb84cece7098f574124f3bb09d9a5362a5af5c0d715af64736f6c63430008110033",
  "immutableReferences": {},
  "source": "// SPDX-License-Identifier: MIT\npragma solidity 0.8.17;\n\nimport \"../../contracts/IProtocolDataProviderAAVE2.sol\";\n\ncontract MockProtocolDataProviderAAVE2 is IProtocolDataProviderAAVE2 {\n    uint256 private _mockedBalance;\n\n    constructor(uint256 _balance) {\n        _mockedBalance = _balance;\n    }\n\n    function getUserReserveData(address asset, address user)\n        external\n        view\n        override\n        returns (\n            uint256 currentATokenBalance,\n            uint256 currentStableDebt,\n            uint256 currentVariableDebt,\n            uint256 principalStableDebt,\n            uint256 scaledVariableDebt,\n            uint256 stableBorrowRate,\n            uint256 liquidityRate,\n            uint40 stableRateLastUpdated,\n            bool usageAsCollateralEnabled\n        )\n    {\n        return (_mockedBalance, 0, 0, 0, 0, 0, 0, 0, false);\n    }\n\n    function getReserveData(address asset)\n        external\n        view\n        override\n        returns (\n            uint256 availableLiquidity,\n            uint256 totalStableDebt,\n            uint256 totalVariableDebt,\n            uint256 liquidityRate,\n            uint256 variableBorrowRate,\n            uint256 stableBorrowRate,\n            uint256 averageStableBorrowRate,\n            uint256 liquidityIndex,\n            uint256 variableBorrowIndex,\n            uint40 lastUpdateTimestamp\n        ) {\n            return (0, 0, 0, 0, 0, 0, 0, 0, 0, 0);\n        }\n\n    function setMockedBalance(uint256 _balance) external {\n        _mockedBalance = _balance;\n    }\n}\n",
  "sourcePath": "/Users/guillaumedebavelaere/alyra/projects/HelloDefi/truffle/test/helpers/MockProtocolDataProviderAAVE2.sol",
  "compiler": {
    "name": "solc",
    "version": "0.8.17+commit.8df45f5f.Emscripten.clang"
  },
  "schemaVersion": "3.4.11",
  "updatedAt": "2022-12-11T10:56:47.560Z",
  "devdoc": {
    "kind": "dev",
    "methods": {
      "getReserveData(address)": {
        "details": "Returns the reserve data for asset."
      },
      "getUserReserveData(address,address)": {
        "details": "Returns the user's reserve data for asset."
      }
    },
    "version": 1
  },
  "userdoc": {
    "kind": "user",
    "methods": {},
    "version": 1
  }
}