{
  "contractName": "MockLendingPoolAAVE2",
  "abi": [
    {
      "inputs": [
        {
          "internalType": "address",
          "name": "asset",
          "type": "address"
        },
        {
          "internalType": "uint256",
          "name": "amount",
          "type": "uint256"
        },
        {
          "internalType": "address",
          "name": "onBehalfOf",
          "type": "address"
        },
        {
          "internalType": "uint16",
          "name": "referralCode",
          "type": "uint16"
        }
      ],
      "name": "deposit",
      "outputs": [],
      "stateMutability": "nonpayable",
      "type": "function"
    },
    {
      "inputs": [
        {
          "internalType": "address",
          "name": "asset",
          "type": "address"
        },
        {
          "internalType": "uint256",
          "name": "amount",
          "type": "uint256"
        },
        {
          "internalType": "address",
          "name": "to",
          "type": "address"
        }
      ],
      "name": "withdraw",
      "outputs": [
        {
          "internalType": "uint256",
          "name": "",
          "type": "uint256"
        }
      ],
      "stateMutability": "nonpayable",
      "type": "function"
    }
  ],
  "bytecode": "0x608060405234801561001057600080fd5b50610287806100206000396000f3fe608060405234801561001057600080fd5b50600436106100365760003560e01c806369328dec1461003b578063e8eda9df1461006b575b600080fd5b61005560048036038101906100509190610133565b610087565b6040516100629190610195565b60405180910390f35b610085600480360381019061008091906101ea565b610094565b005b6000600190509392505050565b50505050565b600080fd5b600073ffffffffffffffffffffffffffffffffffffffff82169050919050565b60006100ca8261009f565b9050919050565b6100da816100bf565b81146100e557600080fd5b50565b6000813590506100f7816100d1565b92915050565b6000819050919050565b610110816100fd565b811461011b57600080fd5b50565b60008135905061012d81610107565b92915050565b60008060006060848603121561014c5761014b61009a565b5b600061015a868287016100e8565b935050602061016b8682870161011e565b925050604061017c868287016100e8565b9150509250925092565b61018f816100fd565b82525050565b60006020820190506101aa6000830184610186565b92915050565b600061ffff82169050919050565b6101c7816101b0565b81146101d257600080fd5b50565b6000813590506101e4816101be565b92915050565b600080600080608085870312156102045761020361009a565b5b6000610212878288016100e8565b94505060206102238782880161011e565b9350506040610234878288016100e8565b9250506060610245878288016101d5565b9150509295919450925056fea2646970667358221220d7f34a60deda535c472f2231625ce8d416bcdc02f31aba8ae5f3243c9880b91364736f6c63430008110033",
  "immutableReferences": {},
  "source": "// SPDX-License-Identifier: MIT\npragma solidity 0.8.17;\n\nimport \"../../contracts/ILendingPoolAAVE2.sol\";\n\ncontract MockLendingPoolAAVE2 is ILendingPoolAAVE2 {\n    function deposit(\n        address asset,\n        uint256 amount,\n        address onBehalfOf,\n        uint16 referralCode\n    ) external override {\n        // nothing to do, it is just a mock\n    }\n\n    function withdraw(\n        address asset,\n        uint256 amount,\n        address to\n    ) external override returns (uint256) {\n        // nothing to do, it is just a mock\n        return 1;\n    }\n}\n",
  "sourcePath": "/Users/guillaumedebavelaere/alyra/projects/HelloDefi/truffle/test/helpers/MockLendingPoolAAVE2.sol",
  "compiler": {
    "name": "solc",
    "version": "0.8.17+commit.8df45f5f.Emscripten.clang"
  },
  "schemaVersion": "3.4.11",
  "updatedAt": "2022-12-10T11:16:19.075Z",
  "devdoc": {
    "kind": "dev",
    "methods": {
      "deposit(address,uint256,address,uint16)": {
        "details": "Deposits an `amount` of underlying asset into the reserve, receiving in return overlying aTokens. - E.g. User deposits 100 USDC and gets in return 100 aUSDC",
        "params": {
          "amount": "The amount to be deposited",
          "asset": "The address of the underlying asset to deposit",
          "onBehalfOf": "The address that will receive the aTokens, same as msg.sender if the user   wants to receive them on his own wallet, or a different address if the beneficiary of aTokens   is a different wallet",
          "referralCode": "Code used to register the integrator originating the operation, for potential rewards.   0 if the action is executed directly by the user, without any middle-man*"
        }
      },
      "withdraw(address,uint256,address)": {
        "details": "Withdraws an `amount` of underlying asset from the reserve, burning the equivalent aTokens owned E.g. User has 100 aUSDC, calls withdraw() and receives 100 USDC, burning the 100 aUSDC",
        "params": {
          "amount": "The underlying amount to be withdrawn   - Send the value type(uint256).max in order to withdraw the whole aToken balance",
          "asset": "The address of the underlying asset to withdraw",
          "to": "Address that will receive the underlying, same as msg.sender if the user   wants to receive it on his own wallet, or a different address if the beneficiary is a   different wallet"
        },
        "returns": {
          "_0": "The final amount withdrawn*"
        }
      }
    },
    "version": 1
  },
  "userdoc": {
    "kind": "user",
    "methods": {},
    "version": 1
  }
}