{
  "contractName": "MockPriceFeedConsumer",
  "abi": [
    {
      "inputs": [
        {
          "internalType": "uint256",
          "name": "answer",
          "type": "uint256"
        }
      ],
      "stateMutability": "nonpayable",
      "type": "constructor"
    },
    {
      "inputs": [
        {
          "internalType": "address",
          "name": "_asset",
          "type": "address"
        }
      ],
      "name": "getLatestPrice",
      "outputs": [
        {
          "internalType": "uint256",
          "name": "",
          "type": "uint256"
        }
      ],
      "stateMutability": "view",
      "type": "function"
    },
    {
      "inputs": [
        {
          "internalType": "uint256",
          "name": "answer",
          "type": "uint256"
        }
      ],
      "name": "setAnswer",
      "outputs": [],
      "stateMutability": "nonpayable",
      "type": "function"
    }
  ],
  "bytecode": "0x608060405234801561001057600080fd5b506040516102a53803806102a58339818101604052810190610032919061007a565b80600081905550506100a7565b600080fd5b6000819050919050565b61005781610044565b811461006257600080fd5b50565b6000815190506100748161004e565b92915050565b6000602082840312156100905761008f61003f565b5b600061009e84828501610065565b91505092915050565b6101ef806100b66000396000f3fe608060405234801561001057600080fd5b50600436106100365760003560e01c806316345f181461003b57806385a013e01461006b575b600080fd5b610055600480360381019061005091906100ff565b610087565b6040516100629190610145565b60405180910390f35b6100856004803603810190610080919061018c565b610092565b005b600080549050919050565b8060008190555050565b600080fd5b600073ffffffffffffffffffffffffffffffffffffffff82169050919050565b60006100cc826100a1565b9050919050565b6100dc816100c1565b81146100e757600080fd5b50565b6000813590506100f9816100d3565b92915050565b6000602082840312156101155761011461009c565b5b6000610123848285016100ea565b91505092915050565b6000819050919050565b61013f8161012c565b82525050565b600060208201905061015a6000830184610136565b92915050565b6101698161012c565b811461017457600080fd5b50565b60008135905061018681610160565b92915050565b6000602082840312156101a2576101a161009c565b5b60006101b084828501610177565b9150509291505056fea264697066735822122008bb400f5b90e4f4d5c0065db465d78acf123642c244903d9f883716cf8443c064736f6c63430008110033",
  "immutableReferences": {},
  "source": "// SPDX-License-Identifier: MIT\npragma solidity 0.8.17;\n\nimport \"../../contracts/PriceFeedConsumer.sol\";\n\ncontract MockPriceFeedConsumer is IPriceFeedConsumer {\n    uint256 private _answer;\n\n    constructor(uint256 answer) {\n        _answer = answer;\n    }\n\n    function getLatestPrice(address _asset) virtual public override view returns (uint256) {\n        return _answer;\n    }\n\n    function setAnswer(uint256 answer) external {\n        _answer = answer;\n    }\n}\n",
  "sourcePath": "/Users/guillaumedebavelaere/alyra/projects/HelloDefi/truffle/test/helpers/MockPriceFeedConsumer.sol",
  "compiler": {
    "name": "solc",
    "version": "0.8.17+commit.8df45f5f.Emscripten.clang"
  },
  "schemaVersion": "3.4.11",
  "updatedAt": "2022-12-10T10:14:02.037Z",
  "devdoc": {
    "kind": "dev",
    "methods": {},
    "version": 1
  },
  "userdoc": {
    "kind": "user",
    "methods": {},
    "version": 1
  }
}