{
  "contractName": "PriceFeedConsumer",
  "abi": [
    {
      "inputs": [
        {
          "internalType": "address",
          "name": "_aggregatorAddress",
          "type": "address"
        }
      ],
      "stateMutability": "nonpayable",
      "type": "constructor"
    },
    {
      "inputs": [
        {
          "internalType": "address",
          "name": "_asset",
          "type": "address"
        }
      ],
      "name": "getLatestPrice",
      "outputs": [
        {
          "internalType": "uint256",
          "name": "",
          "type": "uint256"
        }
      ],
      "stateMutability": "view",
      "type": "function",
      "constant": true
    }
  ],
  "bytecode": "0x608060405234801561001057600080fd5b5060405161093d38038061093d833981810160405281019061003291906100db565b806000806101000a81548173ffffffffffffffffffffffffffffffffffffffff021916908373ffffffffffffffffffffffffffffffffffffffff16021790555050610108565b600080fd5b600073ffffffffffffffffffffffffffffffffffffffff82169050919050565b60006100a88261007d565b9050919050565b6100b88161009d565b81146100c357600080fd5b50565b6000815190506100d5816100af565b92915050565b6000602082840312156100f1576100f0610078565b5b60006100ff848285016100c6565b91505092915050565b610826806101176000396000f3fe608060405234801561001057600080fd5b506004361061002b5760003560e01c806316345f1814610030575b600080fd5b61004a600480360381019061004591906103bb565b610060565b6040516100579190610401565b60405180910390f35b60008060008060008060008054906101000a900473ffffffffffffffffffffffffffffffffffffffff1673ffffffffffffffffffffffffffffffffffffffff1663feaf968c6040518163ffffffff1660e01b815260040160a060405180830381865afa1580156100d4573d6000803e3d6000fd5b505050506040513d601f19601f820116820180604052508101906100f891906104c0565b945094509450945094508673ffffffffffffffffffffffffffffffffffffffff1663313ce5676040518163ffffffff1660e01b8152600401602060405180830381865afa15801561014d573d6000803e3d6000fd5b505050506040513d601f19601f820116820180604052508101906101719190610574565b60ff1660008054906101000a900473ffffffffffffffffffffffffffffffffffffffff1673ffffffffffffffffffffffffffffffffffffffff1663313ce5676040518163ffffffff1660e01b8152600401602060405180830381865afa1580156101df573d6000803e3d6000fd5b505050506040513d601f19601f820116820180604052508101906102039190610574565b60ff16101561034a5760008060009054906101000a900473ffffffffffffffffffffffffffffffffffffffff1673ffffffffffffffffffffffffffffffffffffffff1663313ce5676040518163ffffffff1660e01b8152600401602060405180830381865afa15801561027a573d6000803e3d6000fd5b505050506040513d601f19601f8201168201806040525081019061029e9190610574565b600a6102aa9190610703565b8873ffffffffffffffffffffffffffffffffffffffff1663313ce5676040518163ffffffff1660e01b8152600401602060405180830381865afa1580156102f5573d6000803e3d6000fd5b505050506040513d601f19601f820116820180604052508101906103199190610574565b600a6103259190610703565b61032f919061077d565b9050808561033d91906107ae565b9650505050505050610353565b83955050505050505b919050565b600080fd5b600073ffffffffffffffffffffffffffffffffffffffff82169050919050565b60006103888261035d565b9050919050565b6103988161037d565b81146103a357600080fd5b50565b6000813590506103b58161038f565b92915050565b6000602082840312156103d1576103d0610358565b5b60006103df848285016103a6565b91505092915050565b6000819050919050565b6103fb816103e8565b82525050565b600060208201905061041660008301846103f2565b92915050565b600069ffffffffffffffffffff82169050919050565b61043b8161041c565b811461044657600080fd5b50565b60008151905061045881610432565b92915050565b6000819050919050565b6104718161045e565b811461047c57600080fd5b50565b60008151905061048e81610468565b92915050565b61049d816103e8565b81146104a857600080fd5b50565b6000815190506104ba81610494565b92915050565b600080600080600060a086880312156104dc576104db610358565b5b60006104ea88828901610449565b95505060206104fb8882890161047f565b945050604061050c888289016104ab565b935050606061051d888289016104ab565b925050608061052e88828901610449565b9150509295509295909350565b600060ff82169050919050565b6105518161053b565b811461055c57600080fd5b50565b60008151905061056e81610548565b92915050565b60006020828403121561058a57610589610358565b5b60006105988482850161055f565b91505092915050565b7f4e487b7100000000000000000000000000000000000000000000000000000000600052601160045260246000fd5b60008160011c9050919050565b6000808291508390505b600185111561062757808604811115610603576106026105a1565b5b60018516156106125780820291505b8081029050610620856105d0565b94506105e7565b94509492505050565b60008261064057600190506106fc565b8161064e57600090506106fc565b8160018114610664576002811461066e5761069d565b60019150506106fc565b60ff8411156106805761067f6105a1565b5b8360020a915084821115610697576106966105a1565b5b506106fc565b5060208310610133831016604e8410600b84101617156106d25782820a9050838111156106cd576106cc6105a1565b5b6106fc565b6106df84848460016105dd565b925090508184048111156106f6576106f56105a1565b5b81810290505b9392505050565b600061070e826103e8565b91506107198361053b565b92506107467fffffffffffffffffffffffffffffffffffffffffffffffffffffffffffffffff8484610630565b905092915050565b7f4e487b7100000000000000000000000000000000000000000000000000000000600052601260045260246000fd5b6000610788826103e8565b9150610793836103e8565b9250826107a3576107a261074e565b5b828204905092915050565b60006107b9826103e8565b91506107c4836103e8565b92508282026107d2816103e8565b915082820484148315176107e9576107e86105a1565b5b509291505056fea264697066735822122063794a74012b7917f6bd2089ba262078e11d6c41c90c59c9197ab7afce0241d064736f6c63430008110033",
  "immutableReferences": {},
  "source": "// SPDX-License-Identifier: MIT\npragma solidity ^0.8.0;\n\nimport \"@chainlink/contracts/src/v0.8/interfaces/AggregatorV3Interface.sol\";\nimport \"@openzeppelin/contracts/interfaces/IERC20Metadata.sol\";\n\ninterface IPriceFeedConsumer {\n    function getLatestPrice(address _asset) external view returns (uint256);\n}\n\n/**\n * For now it supports only one asset feed price\n * TODO: handle multiple assets\n */\ncontract PriceFeedConsumer is IPriceFeedConsumer {\n    AggregatorV3Interface internal priceFeed;\n\n    constructor(address _aggregatorAddress) {\n        priceFeed = AggregatorV3Interface(_aggregatorAddress);\n    }\n\n    /**\n     * Returns the latest price\n     */\n    function getLatestPrice(address _asset) override public view returns (uint256) {\n        (\n            uint80 roundID,\n            int256 price,\n            uint256 startedAt,\n            uint256 timeStamp,\n            uint80 answeredInRound\n        ) = priceFeed.latestRoundData();\n        if (priceFeed.decimals() < IERC20Metadata(_asset).decimals()) {\n            uint256 decimalsToAdd = 10**IERC20Metadata(_asset).decimals() / 10**priceFeed.decimals();\n            return uint256(price) * decimalsToAdd;\n        }\n        return uint256(price);\n    }\n}\n",
  "sourcePath": "/Users/guillaumedebavelaere/alyra/projects/HelloDefi/truffle/contracts/PriceFeedConsumer.sol",
  "compiler": {
    "name": "solc",
    "version": "0.8.17+commit.8df45f5f.Emscripten.clang"
  },
  "schemaVersion": "3.4.10",
  "updatedAt": "2022-12-08T19:52:05.632Z",
  "networkType": "ethereum",
  "devdoc": {
    "kind": "dev",
    "methods": {},
    "version": 1
  },
  "userdoc": {
    "kind": "user",
    "methods": {
      "getLatestPrice(address)": {
        "notice": "Returns the latest price"
      }
    },
    "notice": "For now it supports only one asset feed price TODO: handle multiple assets",
    "version": 1
  }
}