{
  "contractName": "PriceFeedConsumer",
  "abi": [
    {
      "inputs": [
        {
          "internalType": "address",
          "name": "_aggregatorAddressDai",
          "type": "address"
        },
        {
          "internalType": "address",
          "name": "_aggregatorAddressLink",
          "type": "address"
        }
      ],
      "stateMutability": "nonpayable",
      "type": "constructor"
    },
    {
      "inputs": [
        {
          "internalType": "address",
          "name": "_asset",
          "type": "address"
        }
      ],
      "name": "getLatestPrice",
      "outputs": [
        {
          "internalType": "uint256",
          "name": "",
          "type": "uint256"
        }
      ],
      "stateMutability": "view",
      "type": "function",
      "constant": true
    }
  ],
  "bytecode": "0x608060405234801561001057600080fd5b506040516109ed3803806109ed8339818101604052810190610032919061011d565b816000806101000a81548173ffffffffffffffffffffffffffffffffffffffff021916908373ffffffffffffffffffffffffffffffffffffffff16021790555080600160006101000a81548173ffffffffffffffffffffffffffffffffffffffff021916908373ffffffffffffffffffffffffffffffffffffffff160217905550505061015d565b600080fd5b600073ffffffffffffffffffffffffffffffffffffffff82169050919050565b60006100ea826100bf565b9050919050565b6100fa816100df565b811461010557600080fd5b50565b600081519050610117816100f1565b92915050565b60008060408385031215610134576101336100ba565b5b600061014285828601610108565b925050602061015385828601610108565b9150509250929050565b6108818061016c6000396000f3fe608060405234801561001057600080fd5b506004361061002b5760003560e01c806316345f1814610030575b600080fd5b61004a60048036038101906100459190610416565b610060565b604051610057919061045c565b60405180910390f35b60008060008054906101000a900473ffffffffffffffffffffffffffffffffffffffff1690507375ab5ab1eef154c0352fc31d2428cef80c7f8b3373ffffffffffffffffffffffffffffffffffffffff168373ffffffffffffffffffffffffffffffffffffffff16036100f55760008054906101000a900473ffffffffffffffffffffffffffffffffffffffff16905061011b565b600160009054906101000a900473ffffffffffffffffffffffffffffffffffffffff1690505b60008060008060008573ffffffffffffffffffffffffffffffffffffffff1663feaf968c6040518163ffffffff1660e01b815260040160a060405180830381865afa15801561016e573d6000803e3d6000fd5b505050506040513d601f19601f82011682018060405250810190610192919061051b565b945094509450945094508773ffffffffffffffffffffffffffffffffffffffff1663313ce5676040518163ffffffff1660e01b8152600401602060405180830381865afa1580156101e7573d6000803e3d6000fd5b505050506040513d601f19601f8201168201806040525081019061020b91906105cf565b60ff168673ffffffffffffffffffffffffffffffffffffffff1663313ce5676040518163ffffffff1660e01b8152600401602060405180830381865afa158015610259573d6000803e3d6000fd5b505050506040513d601f19601f8201168201806040525081019061027d91906105cf565b60ff1610156103a45760008673ffffffffffffffffffffffffffffffffffffffff1663313ce5676040518163ffffffff1660e01b8152600401602060405180830381865afa1580156102d3573d6000803e3d6000fd5b505050506040513d601f19601f820116820180604052508101906102f791906105cf565b600a610303919061075e565b8973ffffffffffffffffffffffffffffffffffffffff1663313ce5676040518163ffffffff1660e01b8152600401602060405180830381865afa15801561034e573d6000803e3d6000fd5b505050506040513d601f19601f8201168201806040525081019061037291906105cf565b600a61037e919061075e565b61038891906107d8565b905080856103969190610809565b9750505050505050506103ae565b8396505050505050505b919050565b600080fd5b600073ffffffffffffffffffffffffffffffffffffffff82169050919050565b60006103e3826103b8565b9050919050565b6103f3816103d8565b81146103fe57600080fd5b50565b600081359050610410816103ea565b92915050565b60006020828403121561042c5761042b6103b3565b5b600061043a84828501610401565b91505092915050565b6000819050919050565b61045681610443565b82525050565b6000602082019050610471600083018461044d565b92915050565b600069ffffffffffffffffffff82169050919050565b61049681610477565b81146104a157600080fd5b50565b6000815190506104b38161048d565b92915050565b6000819050919050565b6104cc816104b9565b81146104d757600080fd5b50565b6000815190506104e9816104c3565b92915050565b6104f881610443565b811461050357600080fd5b50565b600081519050610515816104ef565b92915050565b600080600080600060a08688031215610537576105366103b3565b5b6000610545888289016104a4565b9550506020610556888289016104da565b945050604061056788828901610506565b935050606061057888828901610506565b9250506080610589888289016104a4565b9150509295509295909350565b600060ff82169050919050565b6105ac81610596565b81146105b757600080fd5b50565b6000815190506105c9816105a3565b92915050565b6000602082840312156105e5576105e46103b3565b5b60006105f3848285016105ba565b91505092915050565b7f4e487b7100000000000000000000000000000000000000000000000000000000600052601160045260246000fd5b60008160011c9050919050565b6000808291508390505b60018511156106825780860481111561065e5761065d6105fc565b5b600185161561066d5780820291505b808102905061067b8561062b565b9450610642565b94509492505050565b60008261069b5760019050610757565b816106a95760009050610757565b81600181146106bf57600281146106c9576106f8565b6001915050610757565b60ff8411156106db576106da6105fc565b5b8360020a9150848211156106f2576106f16105fc565b5b50610757565b5060208310610133831016604e8410600b841016171561072d5782820a905083811115610728576107276105fc565b5b610757565b61073a8484846001610638565b92509050818404811115610751576107506105fc565b5b81810290505b9392505050565b600061076982610443565b915061077483610596565b92506107a17fffffffffffffffffffffffffffffffffffffffffffffffffffffffffffffffff848461068b565b905092915050565b7f4e487b7100000000000000000000000000000000000000000000000000000000600052601260045260246000fd5b60006107e382610443565b91506107ee83610443565b9250826107fe576107fd6107a9565b5b828204905092915050565b600061081482610443565b915061081f83610443565b925082820261082d81610443565b91508282048414831517610844576108436105fc565b5b509291505056fea2646970667358221220d5dbf02f5ab5ba94b400f0199e9f003a38c40b8c0a71071d67c11b1c7c71b4e664736f6c63430008110033",
  "immutableReferences": {},
  "source": "// SPDX-License-Identifier: MIT\npragma solidity ^0.8.0;\n\nimport \"@chainlink/contracts/src/v0.8/interfaces/AggregatorV3Interface.sol\";\nimport \"@openzeppelin/contracts/interfaces/IERC20Metadata.sol\";\n\ninterface IPriceFeedConsumer {\n    function getLatestPrice(address _asset) external view returns (uint256);\n}\n\n/**\n * For now it supports manual added asset because feed registry (https://docs.chain.link/data-feeds/feed-registry)\n * is not available on testnet.\n * TODO: handle multiple assets\n */\ncontract PriceFeedConsumer is IPriceFeedConsumer {\n    AggregatorV3Interface internal priceFeedDai;\n    AggregatorV3Interface internal priceFeedLink;\n\n    constructor(address _aggregatorAddressDai, address _aggregatorAddressLink) {\n        priceFeedDai = AggregatorV3Interface(_aggregatorAddressDai);\n        priceFeedLink = AggregatorV3Interface(_aggregatorAddressLink);\n    }\n\n    /**\n     * Returns the latest price\n     */\n    function getLatestPrice(address _asset) override public view returns (uint256) {\n        AggregatorV3Interface priceFeed = priceFeedDai;\n        if (_asset == address(0x75Ab5AB1Eef154C0352Fc31D2428Cef80C7F8B33)) {\n            priceFeed = priceFeedDai;\n        } else {\n            priceFeed = priceFeedLink;\n        }\n        \n        (\n            uint80 roundID,\n            int256 price,\n            uint256 startedAt,\n            uint256 timeStamp,\n            uint80 answeredInRound\n        ) = priceFeed.latestRoundData();\n        if (priceFeed.decimals() < IERC20Metadata(_asset).decimals()) {\n            uint256 decimalsToAdd = 10**IERC20Metadata(_asset).decimals() / 10**priceFeed.decimals();\n            return uint256(price) * decimalsToAdd;\n        }\n        return uint256(price);\n    }\n\n    function _getPriceFeed(address _asset) private returns(AggregatorV3Interface) {\n        return priceFeedDai;\n    }\n}\n",
  "sourcePath": "/Users/guillaumedebavelaere/alyra/projects/HelloDefi/truffle/contracts/PriceFeedConsumer.sol",
  "compiler": {
    "name": "solc",
    "version": "0.8.17+commit.8df45f5f.Emscripten.clang"
  },
  "schemaVersion": "3.4.10",
  "updatedAt": "2022-12-09T18:56:57.440Z",
  "networkType": "ethereum",
  "devdoc": {
    "kind": "dev",
    "methods": {},
    "version": 1
  },
  "userdoc": {
    "kind": "user",
    "methods": {
      "getLatestPrice(address)": {
        "notice": "Returns the latest price"
      }
    },
    "notice": "For now it supports manual added asset because feed registry (https://docs.chain.link/data-feeds/feed-registry) is not available on testnet. TODO: handle multiple assets",
    "version": 1
  }
}